{
	"Erc.sol": {
		"ERC20": {
			"abi": [
				{
					"inputs": [
						{
							"internalType": "string",
							"name": "name_",
							"type": "string"
						},
						{
							"internalType": "string",
							"name": "symbol_",
							"type": "string"
						},
						{
							"internalType": "uint256",
							"name": "initialSupply",
							"type": "uint256"
						},
						{
							"internalType": "address",
							"name": "shop",
							"type": "address"
						}
					],
					"stateMutability": "nonpayable",
					"type": "constructor"
				},
				{
					"anonymous": false,
					"inputs": [
						{
							"indexed": true,
							"internalType": "address",
							"name": "owner",
							"type": "address"
						},
						{
							"indexed": true,
							"internalType": "address",
							"name": "to",
							"type": "address"
						},
						{
							"indexed": false,
							"internalType": "uint256",
							"name": "amount",
							"type": "uint256"
						}
					],
					"name": "Approve",
					"type": "event"
				},
				{
					"anonymous": false,
					"inputs": [
						{
							"indexed": true,
							"internalType": "address",
							"name": "from",
							"type": "address"
						},
						{
							"indexed": true,
							"internalType": "address",
							"name": "to",
							"type": "address"
						},
						{
							"indexed": false,
							"internalType": "uint256",
							"name": "amount",
							"type": "uint256"
						}
					],
					"name": "Transfer",
					"type": "event"
				},
				{
					"inputs": [
						{
							"internalType": "address",
							"name": "_owner",
							"type": "address"
						},
						{
							"internalType": "address",
							"name": "spender",
							"type": "address"
						}
					],
					"name": "allowance",
					"outputs": [
						{
							"internalType": "uint256",
							"name": "",
							"type": "uint256"
						}
					],
					"stateMutability": "view",
					"type": "function"
				},
				{
					"inputs": [
						{
							"internalType": "address",
							"name": "spender",
							"type": "address"
						},
						{
							"internalType": "uint256",
							"name": "amount",
							"type": "uint256"
						}
					],
					"name": "approve",
					"outputs": [],
					"stateMutability": "nonpayable",
					"type": "function"
				},
				{
					"inputs": [
						{
							"internalType": "address",
							"name": "account",
							"type": "address"
						}
					],
					"name": "balanceOf",
					"outputs": [
						{
							"internalType": "uint256",
							"name": "",
							"type": "uint256"
						}
					],
					"stateMutability": "view",
					"type": "function"
				},
				{
					"inputs": [
						{
							"internalType": "address",
							"name": "_from",
							"type": "address"
						},
						{
							"internalType": "uint256",
							"name": "amount",
							"type": "uint256"
						}
					],
					"name": "burn",
					"outputs": [],
					"stateMutability": "nonpayable",
					"type": "function"
				},
				{
					"inputs": [],
					"name": "decimals",
					"outputs": [
						{
							"internalType": "uint256",
							"name": "",
							"type": "uint256"
						}
					],
					"stateMutability": "pure",
					"type": "function"
				},
				{
					"inputs": [
						{
							"internalType": "uint256",
							"name": "amount",
							"type": "uint256"
						},
						{
							"internalType": "address",
							"name": "shop",
							"type": "address"
						}
					],
					"name": "mint",
					"outputs": [],
					"stateMutability": "nonpayable",
					"type": "function"
				},
				{
					"inputs": [],
					"name": "name",
					"outputs": [
						{
							"internalType": "string",
							"name": "",
							"type": "string"
						}
					],
					"stateMutability": "view",
					"type": "function"
				},
				{
					"inputs": [],
					"name": "symbol",
					"outputs": [
						{
							"internalType": "string",
							"name": "",
							"type": "string"
						}
					],
					"stateMutability": "view",
					"type": "function"
				},
				{
					"inputs": [],
					"name": "totalSupply",
					"outputs": [
						{
							"internalType": "uint256",
							"name": "",
							"type": "uint256"
						}
					],
					"stateMutability": "view",
					"type": "function"
				},
				{
					"inputs": [
						{
							"internalType": "address",
							"name": "to",
							"type": "address"
						},
						{
							"internalType": "uint256",
							"name": "amount",
							"type": "uint256"
						}
					],
					"name": "transfer",
					"outputs": [],
					"stateMutability": "nonpayable",
					"type": "function"
				},
				{
					"inputs": [
						{
							"internalType": "address",
							"name": "sender",
							"type": "address"
						},
						{
							"internalType": "address",
							"name": "recipient",
							"type": "address"
						},
						{
							"internalType": "uint256",
							"name": "amount",
							"type": "uint256"
						}
					],
					"name": "transferFrom",
					"outputs": [],
					"stateMutability": "nonpayable",
					"type": "function"
				}
			],
			"devdoc": {
				"kind": "dev",
				"methods": {},
				"version": 1
			},
			"evm": {
				"assembly": "    /* \"Erc.sol\":82:2927  contract ERC20 is IERC20 {... */\n  mstore(0x40, 0x80)\n    /* \"Erc.sol\":907:1117  constructor(string memory name_, string memory symbol_, uint initialSupply, address shop) {... */\n  callvalue\n  dup1\n  iszero\n  tag_1\n  jumpi\n  0x00\n  dup1\n  revert\ntag_1:\n  pop\n  mload(0x40)\n  sub(codesize, bytecodeSize)\n  dup1\n  bytecodeSize\n  dup4\n  codecopy\n  dup2\n  dup2\n  add\n  0x40\n  mstore\n  dup2\n  add\n  swap1\n  tag_2\n  swap2\n  swap1\n  tag_3\n  jump\t// in\ntag_2:\n    /* \"Erc.sol\":1015:1020  name_ */\n  dup4\n    /* \"Erc.sol\":1007:1012  _name */\n  0x04\n    /* \"Erc.sol\":1007:1020  _name = name_ */\n  swap1\n  dup2\n  tag_6\n  swap2\n  swap1\n  tag_7\n  jump\t// in\ntag_6:\n  pop\n    /* \"Erc.sol\":1040:1047  symbol_ */\n  dup3\n    /* \"Erc.sol\":1030:1037  _symbol */\n  0x05\n    /* \"Erc.sol\":1030:1047  _symbol = symbol_ */\n  swap1\n  dup2\n  tag_8\n  swap2\n  swap1\n  tag_7\n  jump\t// in\ntag_8:\n  pop\n    /* \"Erc.sol\":1065:1075  msg.sender */\n  caller\n    /* \"Erc.sol\":1057:1062  owner */\n  0x01\n  0x00\n    /* \"Erc.sol\":1057:1075  owner = msg.sender */\n  0x0100\n  exp\n  dup2\n  sload\n  dup2\n  0xffffffffffffffffffffffffffffffffffffffff\n  mul\n  not\n  and\n  swap1\n  dup4\n  0xffffffffffffffffffffffffffffffffffffffff\n  and\n  mul\n  or\n  swap1\n  sstore\n  pop\n    /* \"Erc.sol\":1085:1110  mint(initialSupply, shop) */\n  tag_9\n    /* \"Erc.sol\":1090:1103  initialSupply */\n  dup3\n    /* \"Erc.sol\":1105:1109  shop */\n  dup3\n    /* \"Erc.sol\":1085:1089  mint */\n  shl(0x20, tag_10)\n    /* \"Erc.sol\":1085:1110  mint(initialSupply, shop) */\n  0x20\n  shr\n  jump\t// in\ntag_9:\n    /* \"Erc.sol\":907:1117  constructor(string memory name_, string memory symbol_, uint initialSupply, address shop) {... */\n  pop\n  pop\n  pop\n  pop\n    /* \"Erc.sol\":82:2927  contract ERC20 is IERC20 {... */\n  jump(tag_11)\n    /* \"Erc.sol\":1503:1738  function mint(uint amount, address shop) public onlyOwner {... */\ntag_10:\n    /* \"Erc.sol\":860:865  owner */\n  0x01\n  0x00\n  swap1\n  sload\n  swap1\n  0x0100\n  exp\n  swap1\n  div\n  0xffffffffffffffffffffffffffffffffffffffff\n  and\n    /* \"Erc.sol\":846:865  msg.sender == owner */\n  0xffffffffffffffffffffffffffffffffffffffff\n  and\n    /* \"Erc.sol\":846:856  msg.sender */\n  caller\n    /* \"Erc.sol\":846:865  msg.sender == owner */\n  0xffffffffffffffffffffffffffffffffffffffff\n  and\n  eq\n    /* \"Erc.sol\":838:883  require(msg.sender == owner, \"not an owner!\") */\n  tag_13\n  jumpi\n  mload(0x40)\n  0x08c379a000000000000000000000000000000000000000000000000000000000\n  dup2\n  mstore\n  0x04\n  add\n  tag_14\n  swap1\n  tag_15\n  jump\t// in\ntag_14:\n  mload(0x40)\n  dup1\n  swap2\n  sub\n  swap1\n  revert\ntag_13:\n    /* \"Erc.sol\":1571:1617  _beforeTokenTransfer(address(0), shop, amount) */\n  tag_17\n    /* \"Erc.sol\":1600:1601  0 */\n  0x00\n    /* \"Erc.sol\":1604:1608  shop */\n  dup3\n    /* \"Erc.sol\":1610:1616  amount */\n  dup5\n    /* \"Erc.sol\":1571:1591  _beforeTokenTransfer */\n  shl(0x20, tag_18)\n    /* \"Erc.sol\":1571:1617  _beforeTokenTransfer(address(0), shop, amount) */\n  0x20\n  shr\n  jump\t// in\ntag_17:\n    /* \"Erc.sol\":1645:1651  amount */\n  dup2\n    /* \"Erc.sol\":1627:1635  balances */\n  0x02\n    /* \"Erc.sol\":1627:1641  balances[shop] */\n  0x00\n    /* \"Erc.sol\":1636:1640  shop */\n  dup4\n    /* \"Erc.sol\":1627:1641  balances[shop] */\n  0xffffffffffffffffffffffffffffffffffffffff\n  and\n  0xffffffffffffffffffffffffffffffffffffffff\n  and\n  dup2\n  mstore\n  0x20\n  add\n  swap1\n  dup2\n  mstore\n  0x20\n  add\n  0x00\n  keccak256\n  0x00\n    /* \"Erc.sol\":1627:1651  balances[shop] += amount */\n  dup3\n  dup3\n  sload\n  tag_19\n  swap2\n  swap1\n  tag_20\n  jump\t// in\ntag_19:\n  swap3\n  pop\n  pop\n  dup2\n  swap1\n  sstore\n  pop\n    /* \"Erc.sol\":1676:1682  amount */\n  dup2\n    /* \"Erc.sol\":1661:1672  totalTokens */\n  0x00\n  dup1\n    /* \"Erc.sol\":1661:1682  totalTokens += amount */\n  dup3\n  dup3\n  sload\n  tag_21\n  swap2\n  swap1\n  tag_20\n  jump\t// in\ntag_21:\n  swap3\n  pop\n  pop\n  dup2\n  swap1\n  sstore\n  pop\n    /* \"Erc.sol\":1718:1722  shop */\n  dup1\n    /* \"Erc.sol\":1697:1731  Transfer(address(0), shop, amount) */\n  0xffffffffffffffffffffffffffffffffffffffff\n  and\n    /* \"Erc.sol\":1714:1715  0 */\n  0x00\n    /* \"Erc.sol\":1697:1731  Transfer(address(0), shop, amount) */\n  0xffffffffffffffffffffffffffffffffffffffff\n  and\n  0xddf252ad1be2c89b69c2b068fc378daa952ba7f163c4a11628f55a4df523b3ef\n    /* \"Erc.sol\":1724:1730  amount */\n  dup5\n    /* \"Erc.sol\":1697:1731  Transfer(address(0), shop, amount) */\n  mload(0x40)\n  tag_22\n  swap2\n  swap1\n  tag_23\n  jump\t// in\ntag_22:\n  mload(0x40)\n  dup1\n  swap2\n  sub\n  swap1\n  log3\n    /* \"Erc.sol\":1503:1738  function mint(uint amount, address shop) public onlyOwner {... */\n  pop\n  pop\n  jump\t// out\n    /* \"Erc.sol\":2807:2925  function _beforeTokenTransfer(... */\ntag_18:\n  pop\n  pop\n  pop\n  jump\t// out\n    /* \"#utility.yul\":7:82   */\ntag_25:\n    /* \"#utility.yul\":40:46   */\n  0x00\n    /* \"#utility.yul\":73:75   */\n  0x40\n    /* \"#utility.yul\":67:76   */\n  mload\n    /* \"#utility.yul\":57:76   */\n  swap1\n  pop\n    /* \"#utility.yul\":7:82   */\n  swap1\n  jump\t// out\n    /* \"#utility.yul\":88:205   */\ntag_26:\n    /* \"#utility.yul\":197:198   */\n  0x00\n    /* \"#utility.yul\":194:195   */\n  dup1\n    /* \"#utility.yul\":187:199   */\n  revert\n    /* \"#utility.yul\":211:328   */\ntag_27:\n    /* \"#utility.yul\":320:321   */\n  0x00\n    /* \"#utility.yul\":317:318   */\n  dup1\n    /* \"#utility.yul\":310:322   */\n  revert\n    /* \"#utility.yul\":334:451   */\ntag_28:\n    /* \"#utility.yul\":443:444   */\n  0x00\n    /* \"#utility.yul\":440:441   */\n  dup1\n    /* \"#utility.yul\":433:445   */\n  revert\n    /* \"#utility.yul\":457:574   */\ntag_29:\n    /* \"#utility.yul\":566:567   */\n  0x00\n    /* \"#utility.yul\":563:564   */\n  dup1\n    /* \"#utility.yul\":556:568   */\n  revert\n    /* \"#utility.yul\":580:682   */\ntag_30:\n    /* \"#utility.yul\":621:627   */\n  0x00\n    /* \"#utility.yul\":672:674   */\n  0x1f\n    /* \"#utility.yul\":668:675   */\n  not\n    /* \"#utility.yul\":663:665   */\n  0x1f\n    /* \"#utility.yul\":656:661   */\n  dup4\n    /* \"#utility.yul\":652:666   */\n  add\n    /* \"#utility.yul\":648:676   */\n  and\n    /* \"#utility.yul\":638:676   */\n  swap1\n  pop\n    /* \"#utility.yul\":580:682   */\n  swap2\n  swap1\n  pop\n  jump\t// out\n    /* \"#utility.yul\":688:868   */\ntag_31:\n    /* \"#utility.yul\":736:813   */\n  0x4e487b7100000000000000000000000000000000000000000000000000000000\n    /* \"#utility.yul\":733:734   */\n  0x00\n    /* \"#utility.yul\":726:814   */\n  mstore\n    /* \"#utility.yul\":833:837   */\n  0x41\n    /* \"#utility.yul\":830:831   */\n  0x04\n    /* \"#utility.yul\":823:838   */\n  mstore\n    /* \"#utility.yul\":857:861   */\n  0x24\n    /* \"#utility.yul\":854:855   */\n  0x00\n    /* \"#utility.yul\":847:862   */\n  revert\n    /* \"#utility.yul\":874:1155   */\ntag_32:\n    /* \"#utility.yul\":957:984   */\n  tag_77\n    /* \"#utility.yul\":979:983   */\n  dup3\n    /* \"#utility.yul\":957:984   */\n  tag_30\n  jump\t// in\ntag_77:\n    /* \"#utility.yul\":949:955   */\n  dup2\n    /* \"#utility.yul\":945:985   */\n  add\n    /* \"#utility.yul\":1087:1093   */\n  dup2\n    /* \"#utility.yul\":1075:1085   */\n  dup2\n    /* \"#utility.yul\":1072:1094   */\n  lt\n    /* \"#utility.yul\":1051:1069   */\n  0xffffffffffffffff\n    /* \"#utility.yul\":1039:1049   */\n  dup3\n    /* \"#utility.yul\":1036:1070   */\n  gt\n    /* \"#utility.yul\":1033:1095   */\n  or\n    /* \"#utility.yul\":1030:1118   */\n  iszero\n  tag_78\n  jumpi\n    /* \"#utility.yul\":1098:1116   */\n  tag_79\n  tag_31\n  jump\t// in\ntag_79:\n    /* \"#utility.yul\":1030:1118   */\ntag_78:\n    /* \"#utility.yul\":1138:1148   */\n  dup1\n    /* \"#utility.yul\":1134:1136   */\n  0x40\n    /* \"#utility.yul\":1127:1149   */\n  mstore\n    /* \"#utility.yul\":917:1155   */\n  pop\n    /* \"#utility.yul\":874:1155   */\n  pop\n  pop\n  jump\t// out\n    /* \"#utility.yul\":1161:1290   */\ntag_33:\n    /* \"#utility.yul\":1195:1201   */\n  0x00\n    /* \"#utility.yul\":1222:1242   */\n  tag_81\n  tag_25\n  jump\t// in\ntag_81:\n    /* \"#utility.yul\":1212:1242   */\n  swap1\n  pop\n    /* \"#utility.yul\":1251:1284   */\n  tag_82\n    /* \"#utility.yul\":1279:1283   */\n  dup3\n    /* \"#utility.yul\":1271:1277   */\n  dup3\n    /* \"#utility.yul\":1251:1284   */\n  tag_32\n  jump\t// in\ntag_82:\n    /* \"#utility.yul\":1161:1290   */\n  swap2\n  swap1\n  pop\n  jump\t// out\n    /* \"#utility.yul\":1296:1604   */\ntag_34:\n    /* \"#utility.yul\":1358:1362   */\n  0x00\n    /* \"#utility.yul\":1448:1466   */\n  0xffffffffffffffff\n    /* \"#utility.yul\":1440:1446   */\n  dup3\n    /* \"#utility.yul\":1437:1467   */\n  gt\n    /* \"#utility.yul\":1434:1490   */\n  iszero\n  tag_84\n  jumpi\n    /* \"#utility.yul\":1470:1488   */\n  tag_85\n  tag_31\n  jump\t// in\ntag_85:\n    /* \"#utility.yul\":1434:1490   */\ntag_84:\n    /* \"#utility.yul\":1508:1537   */\n  tag_86\n    /* \"#utility.yul\":1530:1536   */\n  dup3\n    /* \"#utility.yul\":1508:1537   */\n  tag_30\n  jump\t// in\ntag_86:\n    /* \"#utility.yul\":1500:1537   */\n  swap1\n  pop\n    /* \"#utility.yul\":1592:1596   */\n  0x20\n    /* \"#utility.yul\":1586:1590   */\n  dup2\n    /* \"#utility.yul\":1582:1597   */\n  add\n    /* \"#utility.yul\":1574:1597   */\n  swap1\n  pop\n    /* \"#utility.yul\":1296:1604   */\n  swap2\n  swap1\n  pop\n  jump\t// out\n    /* \"#utility.yul\":1610:1749   */\ntag_35:\n    /* \"#utility.yul\":1699:1705   */\n  dup3\n    /* \"#utility.yul\":1694:1697   */\n  dup2\n    /* \"#utility.yul\":1689:1692   */\n  dup4\n    /* \"#utility.yul\":1683:1706   */\n  mcopy\n    /* \"#utility.yul\":1740:1741   */\n  0x00\n    /* \"#utility.yul\":1731:1737   */\n  dup4\n    /* \"#utility.yul\":1726:1729   */\n  dup4\n    /* \"#utility.yul\":1722:1738   */\n  add\n    /* \"#utility.yul\":1715:1742   */\n  mstore\n    /* \"#utility.yul\":1610:1749   */\n  pop\n  pop\n  pop\n  jump\t// out\n    /* \"#utility.yul\":1755:2189   */\ntag_36:\n    /* \"#utility.yul\":1844:1849   */\n  0x00\n    /* \"#utility.yul\":1869:1935   */\n  tag_89\n    /* \"#utility.yul\":1885:1934   */\n  tag_90\n    /* \"#utility.yul\":1927:1933   */\n  dup5\n    /* \"#utility.yul\":1885:1934   */\n  tag_34\n  jump\t// in\ntag_90:\n    /* \"#utility.yul\":1869:1935   */\n  tag_33\n  jump\t// in\ntag_89:\n    /* \"#utility.yul\":1860:1935   */\n  swap1\n  pop\n    /* \"#utility.yul\":1958:1964   */\n  dup3\n    /* \"#utility.yul\":1951:1956   */\n  dup2\n    /* \"#utility.yul\":1944:1965   */\n  mstore\n    /* \"#utility.yul\":1996:2000   */\n  0x20\n    /* \"#utility.yul\":1989:1994   */\n  dup2\n    /* \"#utility.yul\":1985:2001   */\n  add\n    /* \"#utility.yul\":2034:2037   */\n  dup5\n    /* \"#utility.yul\":2025:2031   */\n  dup5\n    /* \"#utility.yul\":2020:2023   */\n  dup5\n    /* \"#utility.yul\":2016:2032   */\n  add\n    /* \"#utility.yul\":2013:2038   */\n  gt\n    /* \"#utility.yul\":2010:2122   */\n  iszero\n  tag_91\n  jumpi\n    /* \"#utility.yul\":2041:2120   */\n  tag_92\n  tag_29\n  jump\t// in\ntag_92:\n    /* \"#utility.yul\":2010:2122   */\ntag_91:\n    /* \"#utility.yul\":2131:2183   */\n  tag_93\n    /* \"#utility.yul\":2176:2182   */\n  dup5\n    /* \"#utility.yul\":2171:2174   */\n  dup3\n    /* \"#utility.yul\":2166:2169   */\n  dup6\n    /* \"#utility.yul\":2131:2183   */\n  tag_35\n  jump\t// in\ntag_93:\n    /* \"#utility.yul\":1850:2189   */\n  pop\n    /* \"#utility.yul\":1755:2189   */\n  swap4\n  swap3\n  pop\n  pop\n  pop\n  jump\t// out\n    /* \"#utility.yul\":2209:2564   */\ntag_37:\n    /* \"#utility.yul\":2276:2281   */\n  0x00\n    /* \"#utility.yul\":2325:2328   */\n  dup3\n    /* \"#utility.yul\":2318:2322   */\n  0x1f\n    /* \"#utility.yul\":2310:2316   */\n  dup4\n    /* \"#utility.yul\":2306:2323   */\n  add\n    /* \"#utility.yul\":2302:2329   */\n  slt\n    /* \"#utility.yul\":2292:2414   */\n  tag_95\n  jumpi\n    /* \"#utility.yul\":2333:2412   */\n  tag_96\n  tag_28\n  jump\t// in\ntag_96:\n    /* \"#utility.yul\":2292:2414   */\ntag_95:\n    /* \"#utility.yul\":2443:2449   */\n  dup2\n    /* \"#utility.yul\":2437:2450   */\n  mload\n    /* \"#utility.yul\":2468:2558   */\n  tag_97\n    /* \"#utility.yul\":2554:2557   */\n  dup5\n    /* \"#utility.yul\":2546:2552   */\n  dup3\n    /* \"#utility.yul\":2539:2543   */\n  0x20\n    /* \"#utility.yul\":2531:2537   */\n  dup7\n    /* \"#utility.yul\":2527:2544   */\n  add\n    /* \"#utility.yul\":2468:2558   */\n  tag_36\n  jump\t// in\ntag_97:\n    /* \"#utility.yul\":2459:2558   */\n  swap2\n  pop\n    /* \"#utility.yul\":2282:2564   */\n  pop\n    /* \"#utility.yul\":2209:2564   */\n  swap3\n  swap2\n  pop\n  pop\n  jump\t// out\n    /* \"#utility.yul\":2570:2647   */\ntag_38:\n    /* \"#utility.yul\":2607:2614   */\n  0x00\n    /* \"#utility.yul\":2636:2641   */\n  dup2\n    /* \"#utility.yul\":2625:2641   */\n  swap1\n  pop\n    /* \"#utility.yul\":2570:2647   */\n  swap2\n  swap1\n  pop\n  jump\t// out\n    /* \"#utility.yul\":2653:2775   */\ntag_39:\n    /* \"#utility.yul\":2726:2750   */\n  tag_100\n    /* \"#utility.yul\":2744:2749   */\n  dup2\n    /* \"#utility.yul\":2726:2750   */\n  tag_38\n  jump\t// in\ntag_100:\n    /* \"#utility.yul\":2719:2724   */\n  dup2\n    /* \"#utility.yul\":2716:2751   */\n  eq\n    /* \"#utility.yul\":2706:2769   */\n  tag_101\n  jumpi\n    /* \"#utility.yul\":2765:2766   */\n  0x00\n    /* \"#utility.yul\":2762:2763   */\n  dup1\n    /* \"#utility.yul\":2755:2767   */\n  revert\n    /* \"#utility.yul\":2706:2769   */\ntag_101:\n    /* \"#utility.yul\":2653:2775   */\n  pop\n  jump\t// out\n    /* \"#utility.yul\":2781:2924   */\ntag_40:\n    /* \"#utility.yul\":2838:2843   */\n  0x00\n    /* \"#utility.yul\":2869:2875   */\n  dup2\n    /* \"#utility.yul\":2863:2876   */\n  mload\n    /* \"#utility.yul\":2854:2876   */\n  swap1\n  pop\n    /* \"#utility.yul\":2885:2918   */\n  tag_103\n    /* \"#utility.yul\":2912:2917   */\n  dup2\n    /* \"#utility.yul\":2885:2918   */\n  tag_39\n  jump\t// in\ntag_103:\n    /* \"#utility.yul\":2781:2924   */\n  swap3\n  swap2\n  pop\n  pop\n  jump\t// out\n    /* \"#utility.yul\":2930:3056   */\ntag_41:\n    /* \"#utility.yul\":2967:2974   */\n  0x00\n    /* \"#utility.yul\":3007:3049   */\n  0xffffffffffffffffffffffffffffffffffffffff\n    /* \"#utility.yul\":3000:3005   */\n  dup3\n    /* \"#utility.yul\":2996:3050   */\n  and\n    /* \"#utility.yul\":2985:3050   */\n  swap1\n  pop\n    /* \"#utility.yul\":2930:3056   */\n  swap2\n  swap1\n  pop\n  jump\t// out\n    /* \"#utility.yul\":3062:3158   */\ntag_42:\n    /* \"#utility.yul\":3099:3106   */\n  0x00\n    /* \"#utility.yul\":3128:3152   */\n  tag_106\n    /* \"#utility.yul\":3146:3151   */\n  dup3\n    /* \"#utility.yul\":3128:3152   */\n  tag_41\n  jump\t// in\ntag_106:\n    /* \"#utility.yul\":3117:3152   */\n  swap1\n  pop\n    /* \"#utility.yul\":3062:3158   */\n  swap2\n  swap1\n  pop\n  jump\t// out\n    /* \"#utility.yul\":3164:3286   */\ntag_43:\n    /* \"#utility.yul\":3237:3261   */\n  tag_108\n    /* \"#utility.yul\":3255:3260   */\n  dup2\n    /* \"#utility.yul\":3237:3261   */\n  tag_42\n  jump\t// in\ntag_108:\n    /* \"#utility.yul\":3230:3235   */\n  dup2\n    /* \"#utility.yul\":3227:3262   */\n  eq\n    /* \"#utility.yul\":3217:3280   */\n  tag_109\n  jumpi\n    /* \"#utility.yul\":3276:3277   */\n  0x00\n    /* \"#utility.yul\":3273:3274   */\n  dup1\n    /* \"#utility.yul\":3266:3278   */\n  revert\n    /* \"#utility.yul\":3217:3280   */\ntag_109:\n    /* \"#utility.yul\":3164:3286   */\n  pop\n  jump\t// out\n    /* \"#utility.yul\":3292:3435   */\ntag_44:\n    /* \"#utility.yul\":3349:3354   */\n  0x00\n    /* \"#utility.yul\":3380:3386   */\n  dup2\n    /* \"#utility.yul\":3374:3387   */\n  mload\n    /* \"#utility.yul\":3365:3387   */\n  swap1\n  pop\n    /* \"#utility.yul\":3396:3429   */\n  tag_111\n    /* \"#utility.yul\":3423:3428   */\n  dup2\n    /* \"#utility.yul\":3396:3429   */\n  tag_43\n  jump\t// in\ntag_111:\n    /* \"#utility.yul\":3292:3435   */\n  swap3\n  swap2\n  pop\n  pop\n  jump\t// out\n    /* \"#utility.yul\":3441:4607   */\ntag_3:\n    /* \"#utility.yul\":3558:3564   */\n  0x00\n    /* \"#utility.yul\":3566:3572   */\n  dup1\n    /* \"#utility.yul\":3574:3580   */\n  0x00\n    /* \"#utility.yul\":3582:3588   */\n  dup1\n    /* \"#utility.yul\":3631:3634   */\n  0x80\n    /* \"#utility.yul\":3619:3628   */\n  dup6\n    /* \"#utility.yul\":3610:3617   */\n  dup8\n    /* \"#utility.yul\":3606:3629   */\n  sub\n    /* \"#utility.yul\":3602:3635   */\n  slt\n    /* \"#utility.yul\":3599:3719   */\n  iszero\n  tag_113\n  jumpi\n    /* \"#utility.yul\":3638:3717   */\n  tag_114\n  tag_26\n  jump\t// in\ntag_114:\n    /* \"#utility.yul\":3599:3719   */\ntag_113:\n    /* \"#utility.yul\":3779:3780   */\n  0x00\n    /* \"#utility.yul\":3768:3777   */\n  dup6\n    /* \"#utility.yul\":3764:3781   */\n  add\n    /* \"#utility.yul\":3758:3782   */\n  mload\n    /* \"#utility.yul\":3809:3827   */\n  0xffffffffffffffff\n    /* \"#utility.yul\":3801:3807   */\n  dup2\n    /* \"#utility.yul\":3798:3828   */\n  gt\n    /* \"#utility.yul\":3795:3912   */\n  iszero\n  tag_115\n  jumpi\n    /* \"#utility.yul\":3831:3910   */\n  tag_116\n  tag_27\n  jump\t// in\ntag_116:\n    /* \"#utility.yul\":3795:3912   */\ntag_115:\n    /* \"#utility.yul\":3936:4010   */\n  tag_117\n    /* \"#utility.yul\":4002:4009   */\n  dup8\n    /* \"#utility.yul\":3993:3999   */\n  dup3\n    /* \"#utility.yul\":3982:3991   */\n  dup9\n    /* \"#utility.yul\":3978:4000   */\n  add\n    /* \"#utility.yul\":3936:4010   */\n  tag_37\n  jump\t// in\ntag_117:\n    /* \"#utility.yul\":3926:4010   */\n  swap5\n  pop\n    /* \"#utility.yul\":3729:4020   */\n  pop\n    /* \"#utility.yul\":4080:4082   */\n  0x20\n    /* \"#utility.yul\":4069:4078   */\n  dup6\n    /* \"#utility.yul\":4065:4083   */\n  add\n    /* \"#utility.yul\":4059:4084   */\n  mload\n    /* \"#utility.yul\":4111:4129   */\n  0xffffffffffffffff\n    /* \"#utility.yul\":4103:4109   */\n  dup2\n    /* \"#utility.yul\":4100:4130   */\n  gt\n    /* \"#utility.yul\":4097:4214   */\n  iszero\n  tag_118\n  jumpi\n    /* \"#utility.yul\":4133:4212   */\n  tag_119\n  tag_27\n  jump\t// in\ntag_119:\n    /* \"#utility.yul\":4097:4214   */\ntag_118:\n    /* \"#utility.yul\":4238:4312   */\n  tag_120\n    /* \"#utility.yul\":4304:4311   */\n  dup8\n    /* \"#utility.yul\":4295:4301   */\n  dup3\n    /* \"#utility.yul\":4284:4293   */\n  dup9\n    /* \"#utility.yul\":4280:4302   */\n  add\n    /* \"#utility.yul\":4238:4312   */\n  tag_37\n  jump\t// in\ntag_120:\n    /* \"#utility.yul\":4228:4312   */\n  swap4\n  pop\n    /* \"#utility.yul\":4030:4322   */\n  pop\n    /* \"#utility.yul\":4361:4363   */\n  0x40\n    /* \"#utility.yul\":4387:4451   */\n  tag_121\n    /* \"#utility.yul\":4443:4450   */\n  dup8\n    /* \"#utility.yul\":4434:4440   */\n  dup3\n    /* \"#utility.yul\":4423:4432   */\n  dup9\n    /* \"#utility.yul\":4419:4441   */\n  add\n    /* \"#utility.yul\":4387:4451   */\n  tag_40\n  jump\t// in\ntag_121:\n    /* \"#utility.yul\":4377:4451   */\n  swap3\n  pop\n    /* \"#utility.yul\":4332:4461   */\n  pop\n    /* \"#utility.yul\":4500:4502   */\n  0x60\n    /* \"#utility.yul\":4526:4590   */\n  tag_122\n    /* \"#utility.yul\":4582:4589   */\n  dup8\n    /* \"#utility.yul\":4573:4579   */\n  dup3\n    /* \"#utility.yul\":4562:4571   */\n  dup9\n    /* \"#utility.yul\":4558:4580   */\n  add\n    /* \"#utility.yul\":4526:4590   */\n  tag_44\n  jump\t// in\ntag_122:\n    /* \"#utility.yul\":4516:4590   */\n  swap2\n  pop\n    /* \"#utility.yul\":4471:4600   */\n  pop\n    /* \"#utility.yul\":3441:4607   */\n  swap3\n  swap6\n  swap2\n  swap5\n  pop\n  swap3\n  pop\n  jump\t// out\n    /* \"#utility.yul\":4613:4712   */\ntag_45:\n    /* \"#utility.yul\":4665:4671   */\n  0x00\n    /* \"#utility.yul\":4699:4704   */\n  dup2\n    /* \"#utility.yul\":4693:4705   */\n  mload\n    /* \"#utility.yul\":4683:4705   */\n  swap1\n  pop\n    /* \"#utility.yul\":4613:4712   */\n  swap2\n  swap1\n  pop\n  jump\t// out\n    /* \"#utility.yul\":4718:4898   */\ntag_46:\n    /* \"#utility.yul\":4766:4843   */\n  0x4e487b7100000000000000000000000000000000000000000000000000000000\n    /* \"#utility.yul\":4763:4764   */\n  0x00\n    /* \"#utility.yul\":4756:4844   */\n  mstore\n    /* \"#utility.yul\":4863:4867   */\n  0x22\n    /* \"#utility.yul\":4860:4861   */\n  0x04\n    /* \"#utility.yul\":4853:4868   */\n  mstore\n    /* \"#utility.yul\":4887:4891   */\n  0x24\n    /* \"#utility.yul\":4884:4885   */\n  0x00\n    /* \"#utility.yul\":4877:4892   */\n  revert\n    /* \"#utility.yul\":4904:5224   */\ntag_47:\n    /* \"#utility.yul\":4948:4954   */\n  0x00\n    /* \"#utility.yul\":4985:4986   */\n  0x02\n    /* \"#utility.yul\":4979:4983   */\n  dup3\n    /* \"#utility.yul\":4975:4987   */\n  div\n    /* \"#utility.yul\":4965:4987   */\n  swap1\n  pop\n    /* \"#utility.yul\":5032:5033   */\n  0x01\n    /* \"#utility.yul\":5026:5030   */\n  dup3\n    /* \"#utility.yul\":5022:5034   */\n  and\n    /* \"#utility.yul\":5053:5071   */\n  dup1\n    /* \"#utility.yul\":5043:5124   */\n  tag_126\n  jumpi\n    /* \"#utility.yul\":5109:5113   */\n  0x7f\n    /* \"#utility.yul\":5101:5107   */\n  dup3\n    /* \"#utility.yul\":5097:5114   */\n  and\n    /* \"#utility.yul\":5087:5114   */\n  swap2\n  pop\n    /* \"#utility.yul\":5043:5124   */\ntag_126:\n    /* \"#utility.yul\":5171:5173   */\n  0x20\n    /* \"#utility.yul\":5163:5169   */\n  dup3\n    /* \"#utility.yul\":5160:5174   */\n  lt\n    /* \"#utility.yul\":5140:5158   */\n  dup2\n    /* \"#utility.yul\":5137:5175   */\n  sub\n    /* \"#utility.yul\":5134:5218   */\n  tag_127\n  jumpi\n    /* \"#utility.yul\":5190:5208   */\n  tag_128\n  tag_46\n  jump\t// in\ntag_128:\n    /* \"#utility.yul\":5134:5218   */\ntag_127:\n    /* \"#utility.yul\":4955:5224   */\n  pop\n    /* \"#utility.yul\":4904:5224   */\n  swap2\n  swap1\n  pop\n  jump\t// out\n    /* \"#utility.yul\":5230:5371   */\ntag_48:\n    /* \"#utility.yul\":5279:5283   */\n  0x00\n    /* \"#utility.yul\":5302:5305   */\n  dup2\n    /* \"#utility.yul\":5294:5305   */\n  swap1\n  pop\n    /* \"#utility.yul\":5325:5328   */\n  dup2\n    /* \"#utility.yul\":5322:5323   */\n  0x00\n    /* \"#utility.yul\":5315:5329   */\n  mstore\n    /* \"#utility.yul\":5359:5363   */\n  0x20\n    /* \"#utility.yul\":5356:5357   */\n  0x00\n    /* \"#utility.yul\":5346:5364   */\n  keccak256\n    /* \"#utility.yul\":5338:5364   */\n  swap1\n  pop\n    /* \"#utility.yul\":5230:5371   */\n  swap2\n  swap1\n  pop\n  jump\t// out\n    /* \"#utility.yul\":5377:5470   */\ntag_49:\n    /* \"#utility.yul\":5414:5420   */\n  0x00\n    /* \"#utility.yul\":5461:5463   */\n  0x20\n    /* \"#utility.yul\":5456:5458   */\n  0x1f\n    /* \"#utility.yul\":5449:5454   */\n  dup4\n    /* \"#utility.yul\":5445:5459   */\n  add\n    /* \"#utility.yul\":5441:5464   */\n  div\n    /* \"#utility.yul\":5431:5464   */\n  swap1\n  pop\n    /* \"#utility.yul\":5377:5470   */\n  swap2\n  swap1\n  pop\n  jump\t// out\n    /* \"#utility.yul\":5476:5583   */\ntag_50:\n    /* \"#utility.yul\":5520:5528   */\n  0x00\n    /* \"#utility.yul\":5570:5575   */\n  dup3\n    /* \"#utility.yul\":5564:5568   */\n  dup3\n    /* \"#utility.yul\":5560:5576   */\n  shl\n    /* \"#utility.yul\":5539:5576   */\n  swap1\n  pop\n    /* \"#utility.yul\":5476:5583   */\n  swap3\n  swap2\n  pop\n  pop\n  jump\t// out\n    /* \"#utility.yul\":5589:5982   */\ntag_51:\n    /* \"#utility.yul\":5658:5664   */\n  0x00\n    /* \"#utility.yul\":5708:5709   */\n  0x08\n    /* \"#utility.yul\":5696:5706   */\n  dup4\n    /* \"#utility.yul\":5692:5710   */\n  mul\n    /* \"#utility.yul\":5731:5828   */\n  tag_133\n    /* \"#utility.yul\":5761:5827   */\n  0xffffffffffffffffffffffffffffffffffffffffffffffffffffffffffffffff\n    /* \"#utility.yul\":5750:5759   */\n  dup3\n    /* \"#utility.yul\":5731:5828   */\n  tag_50\n  jump\t// in\ntag_133:\n    /* \"#utility.yul\":5849:5888   */\n  tag_134\n    /* \"#utility.yul\":5879:5887   */\n  dup7\n    /* \"#utility.yul\":5868:5877   */\n  dup4\n    /* \"#utility.yul\":5849:5888   */\n  tag_50\n  jump\t// in\ntag_134:\n    /* \"#utility.yul\":5837:5888   */\n  swap6\n  pop\n    /* \"#utility.yul\":5921:5925   */\n  dup1\n    /* \"#utility.yul\":5917:5926   */\n  not\n    /* \"#utility.yul\":5910:5915   */\n  dup5\n    /* \"#utility.yul\":5906:5927   */\n  and\n    /* \"#utility.yul\":5897:5927   */\n  swap4\n  pop\n    /* \"#utility.yul\":5970:5974   */\n  dup1\n    /* \"#utility.yul\":5960:5968   */\n  dup7\n    /* \"#utility.yul\":5956:5975   */\n  and\n    /* \"#utility.yul\":5949:5954   */\n  dup5\n    /* \"#utility.yul\":5946:5976   */\n  or\n    /* \"#utility.yul\":5936:5976   */\n  swap3\n  pop\n    /* \"#utility.yul\":5665:5982   */\n  pop\n  pop\n    /* \"#utility.yul\":5589:5982   */\n  swap4\n  swap3\n  pop\n  pop\n  pop\n  jump\t// out\n    /* \"#utility.yul\":5988:6048   */\ntag_52:\n    /* \"#utility.yul\":6016:6019   */\n  0x00\n    /* \"#utility.yul\":6037:6042   */\n  dup2\n    /* \"#utility.yul\":6030:6042   */\n  swap1\n  pop\n    /* \"#utility.yul\":5988:6048   */\n  swap2\n  swap1\n  pop\n  jump\t// out\n    /* \"#utility.yul\":6054:6196   */\ntag_53:\n    /* \"#utility.yul\":6104:6113   */\n  0x00\n    /* \"#utility.yul\":6137:6190   */\n  tag_137\n    /* \"#utility.yul\":6155:6189   */\n  tag_138\n    /* \"#utility.yul\":6164:6188   */\n  tag_139\n    /* \"#utility.yul\":6182:6187   */\n  dup5\n    /* \"#utility.yul\":6164:6188   */\n  tag_38\n  jump\t// in\ntag_139:\n    /* \"#utility.yul\":6155:6189   */\n  tag_52\n  jump\t// in\ntag_138:\n    /* \"#utility.yul\":6137:6190   */\n  tag_38\n  jump\t// in\ntag_137:\n    /* \"#utility.yul\":6124:6190   */\n  swap1\n  pop\n    /* \"#utility.yul\":6054:6196   */\n  swap2\n  swap1\n  pop\n  jump\t// out\n    /* \"#utility.yul\":6202:6277   */\ntag_54:\n    /* \"#utility.yul\":6245:6248   */\n  0x00\n    /* \"#utility.yul\":6266:6271   */\n  dup2\n    /* \"#utility.yul\":6259:6271   */\n  swap1\n  pop\n    /* \"#utility.yul\":6202:6277   */\n  swap2\n  swap1\n  pop\n  jump\t// out\n    /* \"#utility.yul\":6283:6552   */\ntag_55:\n    /* \"#utility.yul\":6393:6432   */\n  tag_142\n    /* \"#utility.yul\":6424:6431   */\n  dup4\n    /* \"#utility.yul\":6393:6432   */\n  tag_53\n  jump\t// in\ntag_142:\n    /* \"#utility.yul\":6454:6545   */\n  tag_143\n    /* \"#utility.yul\":6503:6544   */\n  tag_144\n    /* \"#utility.yul\":6527:6543   */\n  dup3\n    /* \"#utility.yul\":6503:6544   */\n  tag_54\n  jump\t// in\ntag_144:\n    /* \"#utility.yul\":6495:6501   */\n  dup5\n    /* \"#utility.yul\":6488:6492   */\n  dup5\n    /* \"#utility.yul\":6482:6493   */\n  sload\n    /* \"#utility.yul\":6454:6545   */\n  tag_51\n  jump\t// in\ntag_143:\n    /* \"#utility.yul\":6448:6452   */\n  dup3\n    /* \"#utility.yul\":6441:6546   */\n  sstore\n    /* \"#utility.yul\":6359:6552   */\n  pop\n    /* \"#utility.yul\":6283:6552   */\n  pop\n  pop\n  pop\n  jump\t// out\n    /* \"#utility.yul\":6558:6631   */\ntag_56:\n    /* \"#utility.yul\":6603:6606   */\n  0x00\n    /* \"#utility.yul\":6558:6631   */\n  swap1\n  jump\t// out\n    /* \"#utility.yul\":6637:6826   */\ntag_57:\n    /* \"#utility.yul\":6714:6746   */\n  tag_147\n  tag_56\n  jump\t// in\ntag_147:\n    /* \"#utility.yul\":6755:6820   */\n  tag_148\n    /* \"#utility.yul\":6813:6819   */\n  dup2\n    /* \"#utility.yul\":6805:6811   */\n  dup5\n    /* \"#utility.yul\":6799:6803   */\n  dup5\n    /* \"#utility.yul\":6755:6820   */\n  tag_55\n  jump\t// in\ntag_148:\n    /* \"#utility.yul\":6690:6826   */\n  pop\n    /* \"#utility.yul\":6637:6826   */\n  pop\n  pop\n  jump\t// out\n    /* \"#utility.yul\":6832:7018   */\ntag_58:\n    /* \"#utility.yul\":6892:7012   */\ntag_150:\n    /* \"#utility.yul\":6909:6912   */\n  dup2\n    /* \"#utility.yul\":6902:6907   */\n  dup2\n    /* \"#utility.yul\":6899:6913   */\n  lt\n    /* \"#utility.yul\":6892:7012   */\n  iszero\n  tag_152\n  jumpi\n    /* \"#utility.yul\":6963:7002   */\n  tag_153\n    /* \"#utility.yul\":7000:7001   */\n  0x00\n    /* \"#utility.yul\":6993:6998   */\n  dup3\n    /* \"#utility.yul\":6963:7002   */\n  tag_57\n  jump\t// in\ntag_153:\n    /* \"#utility.yul\":6936:6937   */\n  0x01\n    /* \"#utility.yul\":6929:6934   */\n  dup2\n    /* \"#utility.yul\":6925:6938   */\n  add\n    /* \"#utility.yul\":6916:6938   */\n  swap1\n  pop\n    /* \"#utility.yul\":6892:7012   */\n  jump(tag_150)\ntag_152:\n    /* \"#utility.yul\":6832:7018   */\n  pop\n  pop\n  jump\t// out\n    /* \"#utility.yul\":7024:7567   */\ntag_59:\n    /* \"#utility.yul\":7125:7127   */\n  0x1f\n    /* \"#utility.yul\":7120:7123   */\n  dup3\n    /* \"#utility.yul\":7117:7128   */\n  gt\n    /* \"#utility.yul\":7114:7560   */\n  iszero\n  tag_155\n  jumpi\n    /* \"#utility.yul\":7159:7197   */\n  tag_156\n    /* \"#utility.yul\":7191:7196   */\n  dup2\n    /* \"#utility.yul\":7159:7197   */\n  tag_48\n  jump\t// in\ntag_156:\n    /* \"#utility.yul\":7243:7272   */\n  tag_157\n    /* \"#utility.yul\":7261:7271   */\n  dup5\n    /* \"#utility.yul\":7243:7272   */\n  tag_49\n  jump\t// in\ntag_157:\n    /* \"#utility.yul\":7233:7241   */\n  dup2\n    /* \"#utility.yul\":7229:7273   */\n  add\n    /* \"#utility.yul\":7426:7428   */\n  0x20\n    /* \"#utility.yul\":7414:7424   */\n  dup6\n    /* \"#utility.yul\":7411:7429   */\n  lt\n    /* \"#utility.yul\":7408:7457   */\n  iszero\n  tag_158\n  jumpi\n    /* \"#utility.yul\":7447:7455   */\n  dup2\n    /* \"#utility.yul\":7432:7455   */\n  swap1\n  pop\n    /* \"#utility.yul\":7408:7457   */\ntag_158:\n    /* \"#utility.yul\":7470:7550   */\n  tag_159\n    /* \"#utility.yul\":7526:7548   */\n  tag_160\n    /* \"#utility.yul\":7544:7547   */\n  dup6\n    /* \"#utility.yul\":7526:7548   */\n  tag_49\n  jump\t// in\ntag_160:\n    /* \"#utility.yul\":7516:7524   */\n  dup4\n    /* \"#utility.yul\":7512:7549   */\n  add\n    /* \"#utility.yul\":7499:7510   */\n  dup3\n    /* \"#utility.yul\":7470:7550   */\n  tag_58\n  jump\t// in\ntag_159:\n    /* \"#utility.yul\":7129:7560   */\n  pop\n  pop\n    /* \"#utility.yul\":7114:7560   */\ntag_155:\n    /* \"#utility.yul\":7024:7567   */\n  pop\n  pop\n  pop\n  jump\t// out\n    /* \"#utility.yul\":7573:7690   */\ntag_60:\n    /* \"#utility.yul\":7627:7635   */\n  0x00\n    /* \"#utility.yul\":7677:7682   */\n  dup3\n    /* \"#utility.yul\":7671:7675   */\n  dup3\n    /* \"#utility.yul\":7667:7683   */\n  shr\n    /* \"#utility.yul\":7646:7683   */\n  swap1\n  pop\n    /* \"#utility.yul\":7573:7690   */\n  swap3\n  swap2\n  pop\n  pop\n  jump\t// out\n    /* \"#utility.yul\":7696:7865   */\ntag_61:\n    /* \"#utility.yul\":7740:7746   */\n  0x00\n    /* \"#utility.yul\":7773:7824   */\n  tag_163\n    /* \"#utility.yul\":7821:7822   */\n  0x00\n    /* \"#utility.yul\":7817:7823   */\n  not\n    /* \"#utility.yul\":7809:7814   */\n  dup5\n    /* \"#utility.yul\":7806:7807   */\n  0x08\n    /* \"#utility.yul\":7802:7815   */\n  mul\n    /* \"#utility.yul\":7773:7824   */\n  tag_60\n  jump\t// in\ntag_163:\n    /* \"#utility.yul\":7769:7825   */\n  not\n    /* \"#utility.yul\":7854:7858   */\n  dup1\n    /* \"#utility.yul\":7848:7852   */\n  dup4\n    /* \"#utility.yul\":7844:7859   */\n  and\n    /* \"#utility.yul\":7834:7859   */\n  swap2\n  pop\n    /* \"#utility.yul\":7747:7865   */\n  pop\n    /* \"#utility.yul\":7696:7865   */\n  swap3\n  swap2\n  pop\n  pop\n  jump\t// out\n    /* \"#utility.yul\":7870:8165   */\ntag_62:\n    /* \"#utility.yul\":7946:7950   */\n  0x00\n    /* \"#utility.yul\":8092:8121   */\n  tag_165\n    /* \"#utility.yul\":8117:8120   */\n  dup4\n    /* \"#utility.yul\":8111:8115   */\n  dup4\n    /* \"#utility.yul\":8092:8121   */\n  tag_61\n  jump\t// in\ntag_165:\n    /* \"#utility.yul\":8084:8121   */\n  swap2\n  pop\n    /* \"#utility.yul\":8154:8157   */\n  dup3\n    /* \"#utility.yul\":8151:8152   */\n  0x02\n    /* \"#utility.yul\":8147:8158   */\n  mul\n    /* \"#utility.yul\":8141:8145   */\n  dup3\n    /* \"#utility.yul\":8138:8159   */\n  or\n    /* \"#utility.yul\":8130:8159   */\n  swap1\n  pop\n    /* \"#utility.yul\":7870:8165   */\n  swap3\n  swap2\n  pop\n  pop\n  jump\t// out\n    /* \"#utility.yul\":8170:9565   */\ntag_7:\n    /* \"#utility.yul\":8287:8324   */\n  tag_167\n    /* \"#utility.yul\":8320:8323   */\n  dup3\n    /* \"#utility.yul\":8287:8324   */\n  tag_45\n  jump\t// in\ntag_167:\n    /* \"#utility.yul\":8389:8407   */\n  0xffffffffffffffff\n    /* \"#utility.yul\":8381:8387   */\n  dup2\n    /* \"#utility.yul\":8378:8408   */\n  gt\n    /* \"#utility.yul\":8375:8431   */\n  iszero\n  tag_168\n  jumpi\n    /* \"#utility.yul\":8411:8429   */\n  tag_169\n  tag_31\n  jump\t// in\ntag_169:\n    /* \"#utility.yul\":8375:8431   */\ntag_168:\n    /* \"#utility.yul\":8455:8493   */\n  tag_170\n    /* \"#utility.yul\":8487:8491   */\n  dup3\n    /* \"#utility.yul\":8481:8492   */\n  sload\n    /* \"#utility.yul\":8455:8493   */\n  tag_47\n  jump\t// in\ntag_170:\n    /* \"#utility.yul\":8540:8607   */\n  tag_171\n    /* \"#utility.yul\":8600:8606   */\n  dup3\n    /* \"#utility.yul\":8592:8598   */\n  dup3\n    /* \"#utility.yul\":8586:8590   */\n  dup6\n    /* \"#utility.yul\":8540:8607   */\n  tag_59\n  jump\t// in\ntag_171:\n    /* \"#utility.yul\":8634:8635   */\n  0x00\n    /* \"#utility.yul\":8658:8662   */\n  0x20\n    /* \"#utility.yul\":8645:8662   */\n  swap1\n  pop\n    /* \"#utility.yul\":8690:8692   */\n  0x1f\n    /* \"#utility.yul\":8682:8688   */\n  dup4\n    /* \"#utility.yul\":8679:8693   */\n  gt\n    /* \"#utility.yul\":8707:8708   */\n  0x01\n    /* \"#utility.yul\":8702:9320   */\n  dup2\n  eq\n  tag_173\n  jumpi\n    /* \"#utility.yul\":9364:9365   */\n  0x00\n    /* \"#utility.yul\":9381:9387   */\n  dup5\n    /* \"#utility.yul\":9378:9455   */\n  iszero\n  tag_174\n  jumpi\n    /* \"#utility.yul\":9430:9439   */\n  dup3\n    /* \"#utility.yul\":9425:9428   */\n  dup8\n    /* \"#utility.yul\":9421:9440   */\n  add\n    /* \"#utility.yul\":9415:9441   */\n  mload\n    /* \"#utility.yul\":9406:9441   */\n  swap1\n  pop\n    /* \"#utility.yul\":9378:9455   */\ntag_174:\n    /* \"#utility.yul\":9481:9548   */\n  tag_175\n    /* \"#utility.yul\":9541:9547   */\n  dup6\n    /* \"#utility.yul\":9534:9539   */\n  dup3\n    /* \"#utility.yul\":9481:9548   */\n  tag_62\n  jump\t// in\ntag_175:\n    /* \"#utility.yul\":9475:9479   */\n  dup7\n    /* \"#utility.yul\":9468:9549   */\n  sstore\n    /* \"#utility.yul\":9337:9559   */\n  pop\n    /* \"#utility.yul\":8672:9559   */\n  jump(tag_172)\n    /* \"#utility.yul\":8702:9320   */\ntag_173:\n    /* \"#utility.yul\":8754:8758   */\n  0x1f\n    /* \"#utility.yul\":8750:8759   */\n  not\n    /* \"#utility.yul\":8742:8748   */\n  dup5\n    /* \"#utility.yul\":8738:8760   */\n  and\n    /* \"#utility.yul\":8788:8825   */\n  tag_176\n    /* \"#utility.yul\":8820:8824   */\n  dup7\n    /* \"#utility.yul\":8788:8825   */\n  tag_48\n  jump\t// in\ntag_176:\n    /* \"#utility.yul\":8847:8848   */\n  0x00\n    /* \"#utility.yul\":8861:9069   */\ntag_177:\n    /* \"#utility.yul\":8875:8882   */\n  dup3\n    /* \"#utility.yul\":8872:8873   */\n  dup2\n    /* \"#utility.yul\":8869:8883   */\n  lt\n    /* \"#utility.yul\":8861:9069   */\n  iszero\n  tag_179\n  jumpi\n    /* \"#utility.yul\":8954:8963   */\n  dup5\n    /* \"#utility.yul\":8949:8952   */\n  dup10\n    /* \"#utility.yul\":8945:8964   */\n  add\n    /* \"#utility.yul\":8939:8965   */\n  mload\n    /* \"#utility.yul\":8931:8937   */\n  dup3\n    /* \"#utility.yul\":8924:8966   */\n  sstore\n    /* \"#utility.yul\":9005:9006   */\n  0x01\n    /* \"#utility.yul\":8997:9003   */\n  dup3\n    /* \"#utility.yul\":8993:9007   */\n  add\n    /* \"#utility.yul\":8983:9007   */\n  swap2\n  pop\n    /* \"#utility.yul\":9052:9054   */\n  0x20\n    /* \"#utility.yul\":9041:9050   */\n  dup6\n    /* \"#utility.yul\":9037:9055   */\n  add\n    /* \"#utility.yul\":9024:9055   */\n  swap5\n  pop\n    /* \"#utility.yul\":8898:8902   */\n  0x20\n    /* \"#utility.yul\":8895:8896   */\n  dup2\n    /* \"#utility.yul\":8891:8903   */\n  add\n    /* \"#utility.yul\":8886:8903   */\n  swap1\n  pop\n    /* \"#utility.yul\":8861:9069   */\n  jump(tag_177)\ntag_179:\n    /* \"#utility.yul\":9097:9103   */\n  dup7\n    /* \"#utility.yul\":9088:9095   */\n  dup4\n    /* \"#utility.yul\":9085:9104   */\n  lt\n    /* \"#utility.yul\":9082:9261   */\n  iszero\n  tag_180\n  jumpi\n    /* \"#utility.yul\":9155:9164   */\n  dup5\n    /* \"#utility.yul\":9150:9153   */\n  dup10\n    /* \"#utility.yul\":9146:9165   */\n  add\n    /* \"#utility.yul\":9140:9166   */\n  mload\n    /* \"#utility.yul\":9198:9246   */\n  tag_181\n    /* \"#utility.yul\":9240:9244   */\n  0x1f\n    /* \"#utility.yul\":9232:9238   */\n  dup10\n    /* \"#utility.yul\":9228:9245   */\n  and\n    /* \"#utility.yul\":9217:9226   */\n  dup3\n    /* \"#utility.yul\":9198:9246   */\n  tag_61\n  jump\t// in\ntag_181:\n    /* \"#utility.yul\":9190:9196   */\n  dup4\n    /* \"#utility.yul\":9183:9247   */\n  sstore\n    /* \"#utility.yul\":9105:9261   */\n  pop\n    /* \"#utility.yul\":9082:9261   */\ntag_180:\n    /* \"#utility.yul\":9307:9308   */\n  0x01\n    /* \"#utility.yul\":9303:9304   */\n  0x02\n    /* \"#utility.yul\":9295:9301   */\n  dup9\n    /* \"#utility.yul\":9291:9305   */\n  mul\n    /* \"#utility.yul\":9287:9309   */\n  add\n    /* \"#utility.yul\":9281:9285   */\n  dup9\n    /* \"#utility.yul\":9274:9310   */\n  sstore\n    /* \"#utility.yul\":8709:9320   */\n  pop\n  pop\n  pop\n    /* \"#utility.yul\":8672:9559   */\ntag_172:\n  pop\n    /* \"#utility.yul\":8262:9565   */\n  pop\n  pop\n  pop\n    /* \"#utility.yul\":8170:9565   */\n  pop\n  pop\n  jump\t// out\n    /* \"#utility.yul\":9571:9740   */\ntag_63:\n    /* \"#utility.yul\":9655:9666   */\n  0x00\n    /* \"#utility.yul\":9689:9695   */\n  dup3\n    /* \"#utility.yul\":9684:9687   */\n  dup3\n    /* \"#utility.yul\":9677:9696   */\n  mstore\n    /* \"#utility.yul\":9729:9733   */\n  0x20\n    /* \"#utility.yul\":9724:9727   */\n  dup3\n    /* \"#utility.yul\":9720:9734   */\n  add\n    /* \"#utility.yul\":9705:9734   */\n  swap1\n  pop\n    /* \"#utility.yul\":9571:9740   */\n  swap3\n  swap2\n  pop\n  pop\n  jump\t// out\n    /* \"#utility.yul\":9746:9909   */\ntag_64:\n    /* \"#utility.yul\":9886:9901   */\n  0x6e6f7420616e206f776e65722100000000000000000000000000000000000000\n    /* \"#utility.yul\":9882:9883   */\n  0x00\n    /* \"#utility.yul\":9874:9880   */\n  dup3\n    /* \"#utility.yul\":9870:9884   */\n  add\n    /* \"#utility.yul\":9863:9902   */\n  mstore\n    /* \"#utility.yul\":9746:9909   */\n  pop\n  jump\t// out\n    /* \"#utility.yul\":9915:10281   */\ntag_65:\n    /* \"#utility.yul\":10057:10060   */\n  0x00\n    /* \"#utility.yul\":10078:10145   */\n  tag_185\n    /* \"#utility.yul\":10142:10144   */\n  0x0d\n    /* \"#utility.yul\":10137:10140   */\n  dup4\n    /* \"#utility.yul\":10078:10145   */\n  tag_63\n  jump\t// in\ntag_185:\n    /* \"#utility.yul\":10071:10145   */\n  swap2\n  pop\n    /* \"#utility.yul\":10154:10247   */\n  tag_186\n    /* \"#utility.yul\":10243:10246   */\n  dup3\n    /* \"#utility.yul\":10154:10247   */\n  tag_64\n  jump\t// in\ntag_186:\n    /* \"#utility.yul\":10272:10274   */\n  0x20\n    /* \"#utility.yul\":10267:10270   */\n  dup3\n    /* \"#utility.yul\":10263:10275   */\n  add\n    /* \"#utility.yul\":10256:10275   */\n  swap1\n  pop\n    /* \"#utility.yul\":9915:10281   */\n  swap2\n  swap1\n  pop\n  jump\t// out\n    /* \"#utility.yul\":10287:10706   */\ntag_15:\n    /* \"#utility.yul\":10453:10457   */\n  0x00\n    /* \"#utility.yul\":10491:10493   */\n  0x20\n    /* \"#utility.yul\":10480:10489   */\n  dup3\n    /* \"#utility.yul\":10476:10494   */\n  add\n    /* \"#utility.yul\":10468:10494   */\n  swap1\n  pop\n    /* \"#utility.yul\":10540:10549   */\n  dup2\n    /* \"#utility.yul\":10534:10538   */\n  dup2\n    /* \"#utility.yul\":10530:10550   */\n  sub\n    /* \"#utility.yul\":10526:10527   */\n  0x00\n    /* \"#utility.yul\":10515:10524   */\n  dup4\n    /* \"#utility.yul\":10511:10528   */\n  add\n    /* \"#utility.yul\":10504:10551   */\n  mstore\n    /* \"#utility.yul\":10568:10699   */\n  tag_188\n    /* \"#utility.yul\":10694:10698   */\n  dup2\n    /* \"#utility.yul\":10568:10699   */\n  tag_65\n  jump\t// in\ntag_188:\n    /* \"#utility.yul\":10560:10699   */\n  swap1\n  pop\n    /* \"#utility.yul\":10287:10706   */\n  swap2\n  swap1\n  pop\n  jump\t// out\n    /* \"#utility.yul\":10712:10892   */\ntag_66:\n    /* \"#utility.yul\":10760:10837   */\n  0x4e487b7100000000000000000000000000000000000000000000000000000000\n    /* \"#utility.yul\":10757:10758   */\n  0x00\n    /* \"#utility.yul\":10750:10838   */\n  mstore\n    /* \"#utility.yul\":10857:10861   */\n  0x11\n    /* \"#utility.yul\":10854:10855   */\n  0x04\n    /* \"#utility.yul\":10847:10862   */\n  mstore\n    /* \"#utility.yul\":10881:10885   */\n  0x24\n    /* \"#utility.yul\":10878:10879   */\n  0x00\n    /* \"#utility.yul\":10871:10886   */\n  revert\n    /* \"#utility.yul\":10898:11089   */\ntag_20:\n    /* \"#utility.yul\":10938:10941   */\n  0x00\n    /* \"#utility.yul\":10957:10977   */\n  tag_191\n    /* \"#utility.yul\":10975:10976   */\n  dup3\n    /* \"#utility.yul\":10957:10977   */\n  tag_38\n  jump\t// in\ntag_191:\n    /* \"#utility.yul\":10952:10977   */\n  swap2\n  pop\n    /* \"#utility.yul\":10991:11011   */\n  tag_192\n    /* \"#utility.yul\":11009:11010   */\n  dup4\n    /* \"#utility.yul\":10991:11011   */\n  tag_38\n  jump\t// in\ntag_192:\n    /* \"#utility.yul\":10986:11011   */\n  swap3\n  pop\n    /* \"#utility.yul\":11034:11035   */\n  dup3\n    /* \"#utility.yul\":11031:11032   */\n  dup3\n    /* \"#utility.yul\":11027:11036   */\n  add\n    /* \"#utility.yul\":11020:11036   */\n  swap1\n  pop\n    /* \"#utility.yul\":11055:11058   */\n  dup1\n    /* \"#utility.yul\":11052:11053   */\n  dup3\n    /* \"#utility.yul\":11049:11059   */\n  gt\n    /* \"#utility.yul\":11046:11082   */\n  iszero\n  tag_193\n  jumpi\n    /* \"#utility.yul\":11062:11080   */\n  tag_194\n  tag_66\n  jump\t// in\ntag_194:\n    /* \"#utility.yul\":11046:11082   */\ntag_193:\n    /* \"#utility.yul\":10898:11089   */\n  swap3\n  swap2\n  pop\n  pop\n  jump\t// out\n    /* \"#utility.yul\":11095:11213   */\ntag_67:\n    /* \"#utility.yul\":11182:11206   */\n  tag_196\n    /* \"#utility.yul\":11200:11205   */\n  dup2\n    /* \"#utility.yul\":11182:11206   */\n  tag_38\n  jump\t// in\ntag_196:\n    /* \"#utility.yul\":11177:11180   */\n  dup3\n    /* \"#utility.yul\":11170:11207   */\n  mstore\n    /* \"#utility.yul\":11095:11213   */\n  pop\n  pop\n  jump\t// out\n    /* \"#utility.yul\":11219:11441   */\ntag_23:\n    /* \"#utility.yul\":11312:11316   */\n  0x00\n    /* \"#utility.yul\":11350:11352   */\n  0x20\n    /* \"#utility.yul\":11339:11348   */\n  dup3\n    /* \"#utility.yul\":11335:11353   */\n  add\n    /* \"#utility.yul\":11327:11353   */\n  swap1\n  pop\n    /* \"#utility.yul\":11363:11434   */\n  tag_198\n    /* \"#utility.yul\":11431:11432   */\n  0x00\n    /* \"#utility.yul\":11420:11429   */\n  dup4\n    /* \"#utility.yul\":11416:11433   */\n  add\n    /* \"#utility.yul\":11407:11413   */\n  dup5\n    /* \"#utility.yul\":11363:11434   */\n  tag_67\n  jump\t// in\ntag_198:\n    /* \"#utility.yul\":11219:11441   */\n  swap3\n  swap2\n  pop\n  pop\n  jump\t// out\n    /* \"Erc.sol\":82:2927  contract ERC20 is IERC20 {... */\ntag_11:\n  dataSize(sub_0)\n  dup1\n  dataOffset(sub_0)\n  0x00\n  codecopy\n  0x00\n  return\nstop\n\nsub_0: assembly {\n        /* \"Erc.sol\":82:2927  contract ERC20 is IERC20 {... */\n      mstore(0x40, 0x80)\n      callvalue\n      dup1\n      iszero\n      tag_1\n      jumpi\n      0x00\n      dup1\n      revert\n    tag_1:\n      pop\n      jumpi(tag_2, lt(calldatasize, 0x04))\n      shr(0xe0, calldataload(0x00))\n      dup1\n      0x70a08231\n      gt\n      tag_14\n      jumpi\n      dup1\n      0x70a08231\n      eq\n      tag_8\n      jumpi\n      dup1\n      0x94bf804d\n      eq\n      tag_9\n      jumpi\n      dup1\n      0x95d89b41\n      eq\n      tag_10\n      jumpi\n      dup1\n      0x9dc29fac\n      eq\n      tag_11\n      jumpi\n      dup1\n      0xa9059cbb\n      eq\n      tag_12\n      jumpi\n      dup1\n      0xdd62ed3e\n      eq\n      tag_13\n      jumpi\n      jump(tag_2)\n    tag_14:\n      dup1\n      0x06fdde03\n      eq\n      tag_3\n      jumpi\n      dup1\n      0x095ea7b3\n      eq\n      tag_4\n      jumpi\n      dup1\n      0x18160ddd\n      eq\n      tag_5\n      jumpi\n      dup1\n      0x23b872dd\n      eq\n      tag_6\n      jumpi\n      dup1\n      0x313ce567\n      eq\n      tag_7\n      jumpi\n    tag_2:\n      0x00\n      dup1\n      revert\n        /* \"Erc.sol\":293:375  function name() external view returns(string memory) {... */\n    tag_3:\n      tag_15\n      tag_16\n      jump\t// in\n    tag_15:\n      mload(0x40)\n      tag_17\n      swap2\n      swap1\n      tag_18\n      jump\t// in\n    tag_17:\n      mload(0x40)\n      dup1\n      swap2\n      sub\n      swap1\n      return\n        /* \"Erc.sol\":2074:2182  function approve(address spender, uint amount) public {... */\n    tag_4:\n      tag_19\n      0x04\n      dup1\n      calldatasize\n      sub\n      dup2\n      add\n      swap1\n      tag_20\n      swap2\n      swap1\n      tag_21\n      jump\t// in\n    tag_20:\n      tag_22\n      jump\t// in\n    tag_19:\n      stop\n        /* \"Erc.sol\":572:658  function totalSupply() external view returns(uint) {... */\n    tag_5:\n      tag_23\n      tag_24\n      jump\t// in\n    tag_23:\n      mload(0x40)\n      tag_25\n      swap2\n      swap1\n      tag_26\n      jump\t// in\n    tag_25:\n      mload(0x40)\n      dup1\n      swap2\n      sub\n      swap1\n      return\n        /* \"Erc.sol\":2375:2801  function transferFrom(address sender, address recipient, uint amount) public enoughTokens(sender, amount) {... */\n    tag_6:\n      tag_27\n      0x04\n      dup1\n      calldatasize\n      sub\n      dup2\n      add\n      swap1\n      tag_28\n      swap2\n      swap1\n      tag_29\n      jump\t// in\n    tag_28:\n      tag_30\n      jump\t// in\n    tag_27:\n      stop\n        /* \"Erc.sol\":473:566  function decimals() external pure returns(uint) {... */\n    tag_7:\n      tag_31\n      tag_32\n      jump\t// in\n    tag_31:\n      mload(0x40)\n      tag_33\n      swap2\n      swap1\n      tag_26\n      jump\t// in\n    tag_33:\n      mload(0x40)\n      dup1\n      swap2\n      sub\n      swap1\n      return\n        /* \"Erc.sol\":1123:1226  function balanceOf(address account) public view returns(uint) {... */\n    tag_8:\n      tag_34\n      0x04\n      dup1\n      calldatasize\n      sub\n      dup2\n      add\n      swap1\n      tag_35\n      swap2\n      swap1\n      tag_36\n      jump\t// in\n    tag_35:\n      tag_37\n      jump\t// in\n    tag_34:\n      mload(0x40)\n      tag_38\n      swap2\n      swap1\n      tag_26\n      jump\t// in\n    tag_38:\n      mload(0x40)\n      dup1\n      swap2\n      sub\n      swap1\n      return\n        /* \"Erc.sol\":1503:1738  function mint(uint amount, address shop) public onlyOwner {... */\n    tag_9:\n      tag_39\n      0x04\n      dup1\n      calldatasize\n      sub\n      dup2\n      add\n      swap1\n      tag_40\n      swap2\n      swap1\n      tag_41\n      jump\t// in\n    tag_40:\n      tag_42\n      jump\t// in\n    tag_39:\n      stop\n        /* \"Erc.sol\":381:467  function symbol() external view returns(string memory) {... */\n    tag_10:\n      tag_43\n      tag_44\n      jump\t// in\n    tag_43:\n      mload(0x40)\n      tag_45\n      swap2\n      swap1\n      tag_18\n      jump\t// in\n    tag_45:\n      mload(0x40)\n      dup1\n      swap2\n      sub\n      swap1\n      return\n        /* \"Erc.sol\":1744:1933  function burn(address _from, uint amount) public onlyOwner {... */\n    tag_11:\n      tag_46\n      0x04\n      dup1\n      calldatasize\n      sub\n      dup2\n      add\n      swap1\n      tag_47\n      swap2\n      swap1\n      tag_21\n      jump\t// in\n    tag_47:\n      tag_48\n      jump\t// in\n    tag_46:\n      stop\n        /* \"Erc.sol\":1232:1497  function transfer(address to, uint amount) external enoughTokens(msg.sender, amount) {... */\n    tag_12:\n      tag_49\n      0x04\n      dup1\n      calldatasize\n      sub\n      dup2\n      add\n      swap1\n      tag_50\n      swap2\n      swap1\n      tag_21\n      jump\t// in\n    tag_50:\n      tag_51\n      jump\t// in\n    tag_49:\n      stop\n        /* \"Erc.sol\":1939:2068  function allowance(address _owner, address spender) public view returns(uint) {... */\n    tag_13:\n      tag_52\n      0x04\n      dup1\n      calldatasize\n      sub\n      dup2\n      add\n      swap1\n      tag_53\n      swap2\n      swap1\n      tag_54\n      jump\t// in\n    tag_53:\n      tag_55\n      jump\t// in\n    tag_52:\n      mload(0x40)\n      tag_56\n      swap2\n      swap1\n      tag_26\n      jump\t// in\n    tag_56:\n      mload(0x40)\n      dup1\n      swap2\n      sub\n      swap1\n      return\n        /* \"Erc.sol\":293:375  function name() external view returns(string memory) {... */\n    tag_16:\n        /* \"Erc.sol\":331:344  string memory */\n      0x60\n        /* \"Erc.sol\":363:368  _name */\n      0x04\n        /* \"Erc.sol\":356:368  return _name */\n      dup1\n      sload\n      tag_58\n      swap1\n      tag_59\n      jump\t// in\n    tag_58:\n      dup1\n      0x1f\n      add\n      0x20\n      dup1\n      swap2\n      div\n      mul\n      0x20\n      add\n      mload(0x40)\n      swap1\n      dup2\n      add\n      0x40\n      mstore\n      dup1\n      swap3\n      swap2\n      swap1\n      dup2\n      dup2\n      mstore\n      0x20\n      add\n      dup3\n      dup1\n      sload\n      tag_60\n      swap1\n      tag_59\n      jump\t// in\n    tag_60:\n      dup1\n      iszero\n      tag_61\n      jumpi\n      dup1\n      0x1f\n      lt\n      tag_62\n      jumpi\n      0x0100\n      dup1\n      dup4\n      sload\n      div\n      mul\n      dup4\n      mstore\n      swap2\n      0x20\n      add\n      swap2\n      jump(tag_61)\n    tag_62:\n      dup3\n      add\n      swap2\n      swap1\n      0x00\n      mstore\n      keccak256(0x00, 0x20)\n      swap1\n    tag_63:\n      dup2\n      sload\n      dup2\n      mstore\n      swap1\n      0x01\n      add\n      swap1\n      0x20\n      add\n      dup1\n      dup4\n      gt\n      tag_63\n      jumpi\n      dup3\n      swap1\n      sub\n      0x1f\n      and\n      dup3\n      add\n      swap2\n    tag_61:\n      pop\n      pop\n      pop\n      pop\n      pop\n      swap1\n      pop\n        /* \"Erc.sol\":293:375  function name() external view returns(string memory) {... */\n      swap1\n      jump\t// out\n        /* \"Erc.sol\":2074:2182  function approve(address spender, uint amount) public {... */\n    tag_22:\n        /* \"Erc.sol\":2138:2175  _approve(msg.sender, spender, amount) */\n      tag_65\n        /* \"Erc.sol\":2147:2157  msg.sender */\n      caller\n        /* \"Erc.sol\":2159:2166  spender */\n      dup4\n        /* \"Erc.sol\":2168:2174  amount */\n      dup4\n        /* \"Erc.sol\":2138:2146  _approve */\n      tag_66\n        /* \"Erc.sol\":2138:2175  _approve(msg.sender, spender, amount) */\n      jump\t// in\n    tag_65:\n        /* \"Erc.sol\":2074:2182  function approve(address spender, uint amount) public {... */\n      pop\n      pop\n      jump\t// out\n        /* \"Erc.sol\":572:658  function totalSupply() external view returns(uint) {... */\n    tag_24:\n        /* \"Erc.sol\":617:621  uint */\n      0x00\n        /* \"Erc.sol\":640:651  totalTokens */\n      dup1\n      sload\n        /* \"Erc.sol\":633:651  return totalTokens */\n      swap1\n      pop\n        /* \"Erc.sol\":572:658  function totalSupply() external view returns(uint) {... */\n      swap1\n      jump\t// out\n        /* \"Erc.sol\":2375:2801  function transferFrom(address sender, address recipient, uint amount) public enoughTokens(sender, amount) {... */\n    tag_30:\n        /* \"Erc.sol\":2465:2471  sender */\n      dup3\n        /* \"Erc.sol\":2473:2479  amount */\n      dup2\n        /* \"Erc.sol\":753:760  _amount */\n      dup1\n        /* \"Erc.sol\":733:749  balanceOf(_from) */\n      tag_69\n        /* \"Erc.sol\":743:748  _from */\n      dup4\n        /* \"Erc.sol\":733:742  balanceOf */\n      tag_37\n        /* \"Erc.sol\":733:749  balanceOf(_from) */\n      jump\t// in\n    tag_69:\n        /* \"Erc.sol\":733:760  balanceOf(_from) >= _amount */\n      lt\n      iszero\n        /* \"Erc.sol\":725:783  require(balanceOf(_from) >= _amount, \"not enough tokens!\") */\n      tag_70\n      jumpi\n      mload(0x40)\n      0x08c379a000000000000000000000000000000000000000000000000000000000\n      dup2\n      mstore\n      0x04\n      add\n      tag_71\n      swap1\n      tag_72\n      jump\t// in\n    tag_71:\n      mload(0x40)\n      dup1\n      swap2\n      sub\n      swap1\n      revert\n    tag_70:\n        /* \"Erc.sol\":2491:2538  _beforeTokenTransfer(sender, recipient, amount) */\n      tag_74\n        /* \"Erc.sol\":2512:2518  sender */\n      dup6\n        /* \"Erc.sol\":2520:2529  recipient */\n      dup6\n        /* \"Erc.sol\":2531:2537  amount */\n      dup6\n        /* \"Erc.sol\":2491:2511  _beforeTokenTransfer */\n      tag_75\n        /* \"Erc.sol\":2491:2538  _beforeTokenTransfer(sender, recipient, amount) */\n      jump\t// in\n    tag_74:\n        /* \"Erc.sol\":2662:2668  amount */\n      dup3\n        /* \"Erc.sol\":2628:2638  allowances */\n      0x03\n        /* \"Erc.sol\":2628:2646  allowances[sender] */\n      0x00\n        /* \"Erc.sol\":2639:2645  sender */\n      dup8\n        /* \"Erc.sol\":2628:2646  allowances[sender] */\n      0xffffffffffffffffffffffffffffffffffffffff\n      and\n      0xffffffffffffffffffffffffffffffffffffffff\n      and\n      dup2\n      mstore\n      0x20\n      add\n      swap1\n      dup2\n      mstore\n      0x20\n      add\n      0x00\n      keccak256\n        /* \"Erc.sol\":2628:2658  allowances[sender][msg.sender] */\n      0x00\n        /* \"Erc.sol\":2647:2657  msg.sender */\n      caller\n        /* \"Erc.sol\":2628:2658  allowances[sender][msg.sender] */\n      0xffffffffffffffffffffffffffffffffffffffff\n      and\n      0xffffffffffffffffffffffffffffffffffffffff\n      and\n      dup2\n      mstore\n      0x20\n      add\n      swap1\n      dup2\n      mstore\n      0x20\n      add\n      0x00\n      keccak256\n      0x00\n        /* \"Erc.sol\":2628:2668  allowances[sender][msg.sender] -= amount */\n      dup3\n      dup3\n      sload\n      tag_76\n      swap2\n      swap1\n      tag_77\n      jump\t// in\n    tag_76:\n      swap3\n      pop\n      pop\n      dup2\n      swap1\n      sstore\n      pop\n        /* \"Erc.sol\":2699:2705  amount */\n      dup3\n        /* \"Erc.sol\":2679:2687  balances */\n      0x02\n        /* \"Erc.sol\":2679:2695  balances[sender] */\n      0x00\n        /* \"Erc.sol\":2688:2694  sender */\n      dup8\n        /* \"Erc.sol\":2679:2695  balances[sender] */\n      0xffffffffffffffffffffffffffffffffffffffff\n      and\n      0xffffffffffffffffffffffffffffffffffffffff\n      and\n      dup2\n      mstore\n      0x20\n      add\n      swap1\n      dup2\n      mstore\n      0x20\n      add\n      0x00\n      keccak256\n      0x00\n        /* \"Erc.sol\":2679:2705  balances[sender] -= amount */\n      dup3\n      dup3\n      sload\n      tag_78\n      swap2\n      swap1\n      tag_77\n      jump\t// in\n    tag_78:\n      swap3\n      pop\n      pop\n      dup2\n      swap1\n      sstore\n      pop\n        /* \"Erc.sol\":2738:2744  amount */\n      dup3\n        /* \"Erc.sol\":2715:2723  balances */\n      0x02\n        /* \"Erc.sol\":2715:2734  balances[recipient] */\n      0x00\n        /* \"Erc.sol\":2724:2733  recipient */\n      dup7\n        /* \"Erc.sol\":2715:2734  balances[recipient] */\n      0xffffffffffffffffffffffffffffffffffffffff\n      and\n      0xffffffffffffffffffffffffffffffffffffffff\n      and\n      dup2\n      mstore\n      0x20\n      add\n      swap1\n      dup2\n      mstore\n      0x20\n      add\n      0x00\n      keccak256\n      0x00\n        /* \"Erc.sol\":2715:2744  balances[recipient] += amount */\n      dup3\n      dup3\n      sload\n      tag_79\n      swap2\n      swap1\n      tag_80\n      jump\t// in\n    tag_79:\n      swap3\n      pop\n      pop\n      dup2\n      swap1\n      sstore\n      pop\n        /* \"Erc.sol\":2776:2785  recipient */\n      dup4\n        /* \"Erc.sol\":2759:2794  Transfer(sender, recipient, amount) */\n      0xffffffffffffffffffffffffffffffffffffffff\n      and\n        /* \"Erc.sol\":2768:2774  sender */\n      dup6\n        /* \"Erc.sol\":2759:2794  Transfer(sender, recipient, amount) */\n      0xffffffffffffffffffffffffffffffffffffffff\n      and\n      0xddf252ad1be2c89b69c2b068fc378daa952ba7f163c4a11628f55a4df523b3ef\n        /* \"Erc.sol\":2787:2793  amount */\n      dup6\n        /* \"Erc.sol\":2759:2794  Transfer(sender, recipient, amount) */\n      mload(0x40)\n      tag_81\n      swap2\n      swap1\n      tag_26\n      jump\t// in\n    tag_81:\n      mload(0x40)\n      dup1\n      swap2\n      sub\n      swap1\n      log3\n        /* \"Erc.sol\":2375:2801  function transferFrom(address sender, address recipient, uint amount) public enoughTokens(sender, amount) {... */\n      pop\n      pop\n      pop\n      pop\n      pop\n      jump\t// out\n        /* \"Erc.sol\":473:566  function decimals() external pure returns(uint) {... */\n    tag_32:\n        /* \"Erc.sol\":515:519  uint */\n      0x00\n        /* \"Erc.sol\":538:540  18 */\n      0x12\n        /* \"Erc.sol\":531:540  return 18 */\n      swap1\n      pop\n        /* \"Erc.sol\":473:566  function decimals() external pure returns(uint) {... */\n      swap1\n      jump\t// out\n        /* \"Erc.sol\":1123:1226  function balanceOf(address account) public view returns(uint) {... */\n    tag_37:\n        /* \"Erc.sol\":1179:1183  uint */\n      0x00\n        /* \"Erc.sol\":1202:1210  balances */\n      0x02\n        /* \"Erc.sol\":1202:1219  balances[account] */\n      0x00\n        /* \"Erc.sol\":1211:1218  account */\n      dup4\n        /* \"Erc.sol\":1202:1219  balances[account] */\n      0xffffffffffffffffffffffffffffffffffffffff\n      and\n      0xffffffffffffffffffffffffffffffffffffffff\n      and\n      dup2\n      mstore\n      0x20\n      add\n      swap1\n      dup2\n      mstore\n      0x20\n      add\n      0x00\n      keccak256\n      sload\n        /* \"Erc.sol\":1195:1219  return balances[account] */\n      swap1\n      pop\n        /* \"Erc.sol\":1123:1226  function balanceOf(address account) public view returns(uint) {... */\n      swap2\n      swap1\n      pop\n      jump\t// out\n        /* \"Erc.sol\":1503:1738  function mint(uint amount, address shop) public onlyOwner {... */\n    tag_42:\n        /* \"Erc.sol\":860:865  owner */\n      0x01\n      0x00\n      swap1\n      sload\n      swap1\n      0x0100\n      exp\n      swap1\n      div\n      0xffffffffffffffffffffffffffffffffffffffff\n      and\n        /* \"Erc.sol\":846:865  msg.sender == owner */\n      0xffffffffffffffffffffffffffffffffffffffff\n      and\n        /* \"Erc.sol\":846:856  msg.sender */\n      caller\n        /* \"Erc.sol\":846:865  msg.sender == owner */\n      0xffffffffffffffffffffffffffffffffffffffff\n      and\n      eq\n        /* \"Erc.sol\":838:883  require(msg.sender == owner, \"not an owner!\") */\n      tag_85\n      jumpi\n      mload(0x40)\n      0x08c379a000000000000000000000000000000000000000000000000000000000\n      dup2\n      mstore\n      0x04\n      add\n      tag_86\n      swap1\n      tag_87\n      jump\t// in\n    tag_86:\n      mload(0x40)\n      dup1\n      swap2\n      sub\n      swap1\n      revert\n    tag_85:\n        /* \"Erc.sol\":1571:1617  _beforeTokenTransfer(address(0), shop, amount) */\n      tag_89\n        /* \"Erc.sol\":1600:1601  0 */\n      0x00\n        /* \"Erc.sol\":1604:1608  shop */\n      dup3\n        /* \"Erc.sol\":1610:1616  amount */\n      dup5\n        /* \"Erc.sol\":1571:1591  _beforeTokenTransfer */\n      tag_75\n        /* \"Erc.sol\":1571:1617  _beforeTokenTransfer(address(0), shop, amount) */\n      jump\t// in\n    tag_89:\n        /* \"Erc.sol\":1645:1651  amount */\n      dup2\n        /* \"Erc.sol\":1627:1635  balances */\n      0x02\n        /* \"Erc.sol\":1627:1641  balances[shop] */\n      0x00\n        /* \"Erc.sol\":1636:1640  shop */\n      dup4\n        /* \"Erc.sol\":1627:1641  balances[shop] */\n      0xffffffffffffffffffffffffffffffffffffffff\n      and\n      0xffffffffffffffffffffffffffffffffffffffff\n      and\n      dup2\n      mstore\n      0x20\n      add\n      swap1\n      dup2\n      mstore\n      0x20\n      add\n      0x00\n      keccak256\n      0x00\n        /* \"Erc.sol\":1627:1651  balances[shop] += amount */\n      dup3\n      dup3\n      sload\n      tag_90\n      swap2\n      swap1\n      tag_80\n      jump\t// in\n    tag_90:\n      swap3\n      pop\n      pop\n      dup2\n      swap1\n      sstore\n      pop\n        /* \"Erc.sol\":1676:1682  amount */\n      dup2\n        /* \"Erc.sol\":1661:1672  totalTokens */\n      0x00\n      dup1\n        /* \"Erc.sol\":1661:1682  totalTokens += amount */\n      dup3\n      dup3\n      sload\n      tag_91\n      swap2\n      swap1\n      tag_80\n      jump\t// in\n    tag_91:\n      swap3\n      pop\n      pop\n      dup2\n      swap1\n      sstore\n      pop\n        /* \"Erc.sol\":1718:1722  shop */\n      dup1\n        /* \"Erc.sol\":1697:1731  Transfer(address(0), shop, amount) */\n      0xffffffffffffffffffffffffffffffffffffffff\n      and\n        /* \"Erc.sol\":1714:1715  0 */\n      0x00\n        /* \"Erc.sol\":1697:1731  Transfer(address(0), shop, amount) */\n      0xffffffffffffffffffffffffffffffffffffffff\n      and\n      0xddf252ad1be2c89b69c2b068fc378daa952ba7f163c4a11628f55a4df523b3ef\n        /* \"Erc.sol\":1724:1730  amount */\n      dup5\n        /* \"Erc.sol\":1697:1731  Transfer(address(0), shop, amount) */\n      mload(0x40)\n      tag_92\n      swap2\n      swap1\n      tag_26\n      jump\t// in\n    tag_92:\n      mload(0x40)\n      dup1\n      swap2\n      sub\n      swap1\n      log3\n        /* \"Erc.sol\":1503:1738  function mint(uint amount, address shop) public onlyOwner {... */\n      pop\n      pop\n      jump\t// out\n        /* \"Erc.sol\":381:467  function symbol() external view returns(string memory) {... */\n    tag_44:\n        /* \"Erc.sol\":421:434  string memory */\n      0x60\n        /* \"Erc.sol\":453:460  _symbol */\n      0x05\n        /* \"Erc.sol\":446:460  return _symbol */\n      dup1\n      sload\n      tag_94\n      swap1\n      tag_59\n      jump\t// in\n    tag_94:\n      dup1\n      0x1f\n      add\n      0x20\n      dup1\n      swap2\n      div\n      mul\n      0x20\n      add\n      mload(0x40)\n      swap1\n      dup2\n      add\n      0x40\n      mstore\n      dup1\n      swap3\n      swap2\n      swap1\n      dup2\n      dup2\n      mstore\n      0x20\n      add\n      dup3\n      dup1\n      sload\n      tag_95\n      swap1\n      tag_59\n      jump\t// in\n    tag_95:\n      dup1\n      iszero\n      tag_96\n      jumpi\n      dup1\n      0x1f\n      lt\n      tag_97\n      jumpi\n      0x0100\n      dup1\n      dup4\n      sload\n      div\n      mul\n      dup4\n      mstore\n      swap2\n      0x20\n      add\n      swap2\n      jump(tag_96)\n    tag_97:\n      dup3\n      add\n      swap2\n      swap1\n      0x00\n      mstore\n      keccak256(0x00, 0x20)\n      swap1\n    tag_98:\n      dup2\n      sload\n      dup2\n      mstore\n      swap1\n      0x01\n      add\n      swap1\n      0x20\n      add\n      dup1\n      dup4\n      gt\n      tag_98\n      jumpi\n      dup3\n      swap1\n      sub\n      0x1f\n      and\n      dup3\n      add\n      swap2\n    tag_96:\n      pop\n      pop\n      pop\n      pop\n      pop\n      swap1\n      pop\n        /* \"Erc.sol\":381:467  function symbol() external view returns(string memory) {... */\n      swap1\n      jump\t// out\n        /* \"Erc.sol\":1744:1933  function burn(address _from, uint amount) public onlyOwner {... */\n    tag_48:\n        /* \"Erc.sol\":860:865  owner */\n      0x01\n      0x00\n      swap1\n      sload\n      swap1\n      0x0100\n      exp\n      swap1\n      div\n      0xffffffffffffffffffffffffffffffffffffffff\n      and\n        /* \"Erc.sol\":846:865  msg.sender == owner */\n      0xffffffffffffffffffffffffffffffffffffffff\n      and\n        /* \"Erc.sol\":846:856  msg.sender */\n      caller\n        /* \"Erc.sol\":846:865  msg.sender == owner */\n      0xffffffffffffffffffffffffffffffffffffffff\n      and\n      eq\n        /* \"Erc.sol\":838:883  require(msg.sender == owner, \"not an owner!\") */\n      tag_100\n      jumpi\n      mload(0x40)\n      0x08c379a000000000000000000000000000000000000000000000000000000000\n      dup2\n      mstore\n      0x04\n      add\n      tag_101\n      swap1\n      tag_87\n      jump\t// in\n    tag_101:\n      mload(0x40)\n      dup1\n      swap2\n      sub\n      swap1\n      revert\n    tag_100:\n        /* \"Erc.sol\":1813:1860  _beforeTokenTransfer(_from, address(0), amount) */\n      tag_103\n        /* \"Erc.sol\":1834:1839  _from */\n      dup3\n        /* \"Erc.sol\":1849:1850  0 */\n      0x00\n        /* \"Erc.sol\":1853:1859  amount */\n      dup4\n        /* \"Erc.sol\":1813:1833  _beforeTokenTransfer */\n      tag_75\n        /* \"Erc.sol\":1813:1860  _beforeTokenTransfer(_from, address(0), amount) */\n      jump\t// in\n    tag_103:\n        /* \"Erc.sol\":1889:1895  amount */\n      dup1\n        /* \"Erc.sol\":1870:1878  balances */\n      0x02\n        /* \"Erc.sol\":1870:1885  balances[_from] */\n      0x00\n        /* \"Erc.sol\":1879:1884  _from */\n      dup5\n        /* \"Erc.sol\":1870:1885  balances[_from] */\n      0xffffffffffffffffffffffffffffffffffffffff\n      and\n      0xffffffffffffffffffffffffffffffffffffffff\n      and\n      dup2\n      mstore\n      0x20\n      add\n      swap1\n      dup2\n      mstore\n      0x20\n      add\n      0x00\n      keccak256\n      0x00\n        /* \"Erc.sol\":1870:1895  balances[_from] -= amount */\n      dup3\n      dup3\n      sload\n      tag_104\n      swap2\n      swap1\n      tag_77\n      jump\t// in\n    tag_104:\n      swap3\n      pop\n      pop\n      dup2\n      swap1\n      sstore\n      pop\n        /* \"Erc.sol\":1920:1926  amount */\n      dup1\n        /* \"Erc.sol\":1905:1916  totalTokens */\n      0x00\n      dup1\n        /* \"Erc.sol\":1905:1926  totalTokens -= amount */\n      dup3\n      dup3\n      sload\n      tag_105\n      swap2\n      swap1\n      tag_77\n      jump\t// in\n    tag_105:\n      swap3\n      pop\n      pop\n      dup2\n      swap1\n      sstore\n      pop\n        /* \"Erc.sol\":1744:1933  function burn(address _from, uint amount) public onlyOwner {... */\n      pop\n      pop\n      jump\t// out\n        /* \"Erc.sol\":1232:1497  function transfer(address to, uint amount) external enoughTokens(msg.sender, amount) {... */\n    tag_51:\n        /* \"Erc.sol\":1297:1307  msg.sender */\n      caller\n        /* \"Erc.sol\":1309:1315  amount */\n      dup2\n        /* \"Erc.sol\":753:760  _amount */\n      dup1\n        /* \"Erc.sol\":733:749  balanceOf(_from) */\n      tag_107\n        /* \"Erc.sol\":743:748  _from */\n      dup4\n        /* \"Erc.sol\":733:742  balanceOf */\n      tag_37\n        /* \"Erc.sol\":733:749  balanceOf(_from) */\n      jump\t// in\n    tag_107:\n        /* \"Erc.sol\":733:760  balanceOf(_from) >= _amount */\n      lt\n      iszero\n        /* \"Erc.sol\":725:783  require(balanceOf(_from) >= _amount, \"not enough tokens!\") */\n      tag_108\n      jumpi\n      mload(0x40)\n      0x08c379a000000000000000000000000000000000000000000000000000000000\n      dup2\n      mstore\n      0x04\n      add\n      tag_109\n      swap1\n      tag_72\n      jump\t// in\n    tag_109:\n      mload(0x40)\n      dup1\n      swap2\n      sub\n      swap1\n      revert\n    tag_108:\n        /* \"Erc.sol\":1327:1371  _beforeTokenTransfer(msg.sender, to, amount) */\n      tag_111\n        /* \"Erc.sol\":1348:1358  msg.sender */\n      caller\n        /* \"Erc.sol\":1360:1362  to */\n      dup6\n        /* \"Erc.sol\":1364:1370  amount */\n      dup6\n        /* \"Erc.sol\":1327:1347  _beforeTokenTransfer */\n      tag_75\n        /* \"Erc.sol\":1327:1371  _beforeTokenTransfer(msg.sender, to, amount) */\n      jump\t// in\n    tag_111:\n        /* \"Erc.sol\":1405:1411  amount */\n      dup3\n        /* \"Erc.sol\":1381:1389  balances */\n      0x02\n        /* \"Erc.sol\":1381:1401  balances[msg.sender] */\n      0x00\n        /* \"Erc.sol\":1390:1400  msg.sender */\n      caller\n        /* \"Erc.sol\":1381:1401  balances[msg.sender] */\n      0xffffffffffffffffffffffffffffffffffffffff\n      and\n      0xffffffffffffffffffffffffffffffffffffffff\n      and\n      dup2\n      mstore\n      0x20\n      add\n      swap1\n      dup2\n      mstore\n      0x20\n      add\n      0x00\n      keccak256\n      0x00\n        /* \"Erc.sol\":1381:1411  balances[msg.sender] -= amount */\n      dup3\n      dup3\n      sload\n      tag_112\n      swap2\n      swap1\n      tag_77\n      jump\t// in\n    tag_112:\n      swap3\n      pop\n      pop\n      dup2\n      swap1\n      sstore\n      pop\n        /* \"Erc.sol\":1437:1443  amount */\n      dup3\n        /* \"Erc.sol\":1421:1429  balances */\n      0x02\n        /* \"Erc.sol\":1421:1433  balances[to] */\n      0x00\n        /* \"Erc.sol\":1430:1432  to */\n      dup7\n        /* \"Erc.sol\":1421:1433  balances[to] */\n      0xffffffffffffffffffffffffffffffffffffffff\n      and\n      0xffffffffffffffffffffffffffffffffffffffff\n      and\n      dup2\n      mstore\n      0x20\n      add\n      swap1\n      dup2\n      mstore\n      0x20\n      add\n      0x00\n      keccak256\n      0x00\n        /* \"Erc.sol\":1421:1443  balances[to] += amount */\n      dup3\n      dup3\n      sload\n      tag_113\n      swap2\n      swap1\n      tag_80\n      jump\t// in\n    tag_113:\n      swap3\n      pop\n      pop\n      dup2\n      swap1\n      sstore\n      pop\n        /* \"Erc.sol\":1479:1481  to */\n      dup4\n        /* \"Erc.sol\":1458:1490  Transfer(msg.sender, to, amount) */\n      0xffffffffffffffffffffffffffffffffffffffff\n      and\n        /* \"Erc.sol\":1467:1477  msg.sender */\n      caller\n        /* \"Erc.sol\":1458:1490  Transfer(msg.sender, to, amount) */\n      0xffffffffffffffffffffffffffffffffffffffff\n      and\n      0xddf252ad1be2c89b69c2b068fc378daa952ba7f163c4a11628f55a4df523b3ef\n        /* \"Erc.sol\":1483:1489  amount */\n      dup6\n        /* \"Erc.sol\":1458:1490  Transfer(msg.sender, to, amount) */\n      mload(0x40)\n      tag_114\n      swap2\n      swap1\n      tag_26\n      jump\t// in\n    tag_114:\n      mload(0x40)\n      dup1\n      swap2\n      sub\n      swap1\n      log3\n        /* \"Erc.sol\":1232:1497  function transfer(address to, uint amount) external enoughTokens(msg.sender, amount) {... */\n      pop\n      pop\n      pop\n      pop\n      jump\t// out\n        /* \"Erc.sol\":1939:2068  function allowance(address _owner, address spender) public view returns(uint) {... */\n    tag_55:\n        /* \"Erc.sol\":2011:2015  uint */\n      0x00\n        /* \"Erc.sol\":2034:2044  allowances */\n      0x03\n        /* \"Erc.sol\":2034:2052  allowances[_owner] */\n      0x00\n        /* \"Erc.sol\":2045:2051  _owner */\n      dup5\n        /* \"Erc.sol\":2034:2052  allowances[_owner] */\n      0xffffffffffffffffffffffffffffffffffffffff\n      and\n      0xffffffffffffffffffffffffffffffffffffffff\n      and\n      dup2\n      mstore\n      0x20\n      add\n      swap1\n      dup2\n      mstore\n      0x20\n      add\n      0x00\n      keccak256\n        /* \"Erc.sol\":2034:2061  allowances[_owner][spender] */\n      0x00\n        /* \"Erc.sol\":2053:2060  spender */\n      dup4\n        /* \"Erc.sol\":2034:2061  allowances[_owner][spender] */\n      0xffffffffffffffffffffffffffffffffffffffff\n      and\n      0xffffffffffffffffffffffffffffffffffffffff\n      and\n      dup2\n      mstore\n      0x20\n      add\n      swap1\n      dup2\n      mstore\n      0x20\n      add\n      0x00\n      keccak256\n      sload\n        /* \"Erc.sol\":2027:2061  return allowances[_owner][spender] */\n      swap1\n      pop\n        /* \"Erc.sol\":1939:2068  function allowance(address _owner, address spender) public view returns(uint) {... */\n      swap3\n      swap2\n      pop\n      pop\n      jump\t// out\n        /* \"Erc.sol\":2188:2369  function _approve(address sender, address spender, uint amount) internal virtual {... */\n    tag_66:\n        /* \"Erc.sol\":2309:2315  amount */\n      dup1\n        /* \"Erc.sol\":2279:2289  allowances */\n      0x03\n        /* \"Erc.sol\":2279:2297  allowances[sender] */\n      0x00\n        /* \"Erc.sol\":2290:2296  sender */\n      dup6\n        /* \"Erc.sol\":2279:2297  allowances[sender] */\n      0xffffffffffffffffffffffffffffffffffffffff\n      and\n      0xffffffffffffffffffffffffffffffffffffffff\n      and\n      dup2\n      mstore\n      0x20\n      add\n      swap1\n      dup2\n      mstore\n      0x20\n      add\n      0x00\n      keccak256\n        /* \"Erc.sol\":2279:2306  allowances[sender][spender] */\n      0x00\n        /* \"Erc.sol\":2298:2305  spender */\n      dup5\n        /* \"Erc.sol\":2279:2306  allowances[sender][spender] */\n      0xffffffffffffffffffffffffffffffffffffffff\n      and\n      0xffffffffffffffffffffffffffffffffffffffff\n      and\n      dup2\n      mstore\n      0x20\n      add\n      swap1\n      dup2\n      mstore\n      0x20\n      add\n      0x00\n      keccak256\n        /* \"Erc.sol\":2279:2315  allowances[sender][spender] = amount */\n      dup2\n      swap1\n      sstore\n      pop\n        /* \"Erc.sol\":2346:2353  spender */\n      dup2\n        /* \"Erc.sol\":2330:2362  Approve(sender, spender, amount) */\n      0xffffffffffffffffffffffffffffffffffffffff\n      and\n        /* \"Erc.sol\":2338:2344  sender */\n      dup4\n        /* \"Erc.sol\":2330:2362  Approve(sender, spender, amount) */\n      0xffffffffffffffffffffffffffffffffffffffff\n      and\n      0x6e11fb1b7f119e3f2fa29896ef5fdf8b8a2d0d4df6fe90ba8668e7d8b2ffa25e\n        /* \"Erc.sol\":2355:2361  amount */\n      dup4\n        /* \"Erc.sol\":2330:2362  Approve(sender, spender, amount) */\n      mload(0x40)\n      tag_117\n      swap2\n      swap1\n      tag_26\n      jump\t// in\n    tag_117:\n      mload(0x40)\n      dup1\n      swap2\n      sub\n      swap1\n      log3\n        /* \"Erc.sol\":2188:2369  function _approve(address sender, address spender, uint amount) internal virtual {... */\n      pop\n      pop\n      pop\n      jump\t// out\n        /* \"Erc.sol\":2807:2925  function _beforeTokenTransfer(... */\n    tag_75:\n      pop\n      pop\n      pop\n      jump\t// out\n        /* \"#utility.yul\":7:106   */\n    tag_119:\n        /* \"#utility.yul\":59:65   */\n      0x00\n        /* \"#utility.yul\":93:98   */\n      dup2\n        /* \"#utility.yul\":87:99   */\n      mload\n        /* \"#utility.yul\":77:99   */\n      swap1\n      pop\n        /* \"#utility.yul\":7:106   */\n      swap2\n      swap1\n      pop\n      jump\t// out\n        /* \"#utility.yul\":112:281   */\n    tag_120:\n        /* \"#utility.yul\":196:207   */\n      0x00\n        /* \"#utility.yul\":230:236   */\n      dup3\n        /* \"#utility.yul\":225:228   */\n      dup3\n        /* \"#utility.yul\":218:237   */\n      mstore\n        /* \"#utility.yul\":270:274   */\n      0x20\n        /* \"#utility.yul\":265:268   */\n      dup3\n        /* \"#utility.yul\":261:275   */\n      add\n        /* \"#utility.yul\":246:275   */\n      swap1\n      pop\n        /* \"#utility.yul\":112:281   */\n      swap3\n      swap2\n      pop\n      pop\n      jump\t// out\n        /* \"#utility.yul\":287:426   */\n    tag_121:\n        /* \"#utility.yul\":376:382   */\n      dup3\n        /* \"#utility.yul\":371:374   */\n      dup2\n        /* \"#utility.yul\":366:369   */\n      dup4\n        /* \"#utility.yul\":360:383   */\n      mcopy\n        /* \"#utility.yul\":417:418   */\n      0x00\n        /* \"#utility.yul\":408:414   */\n      dup4\n        /* \"#utility.yul\":403:406   */\n      dup4\n        /* \"#utility.yul\":399:415   */\n      add\n        /* \"#utility.yul\":392:419   */\n      mstore\n        /* \"#utility.yul\":287:426   */\n      pop\n      pop\n      pop\n      jump\t// out\n        /* \"#utility.yul\":432:534   */\n    tag_122:\n        /* \"#utility.yul\":473:479   */\n      0x00\n        /* \"#utility.yul\":524:526   */\n      0x1f\n        /* \"#utility.yul\":520:527   */\n      not\n        /* \"#utility.yul\":515:517   */\n      0x1f\n        /* \"#utility.yul\":508:513   */\n      dup4\n        /* \"#utility.yul\":504:518   */\n      add\n        /* \"#utility.yul\":500:528   */\n      and\n        /* \"#utility.yul\":490:528   */\n      swap1\n      pop\n        /* \"#utility.yul\":432:534   */\n      swap2\n      swap1\n      pop\n      jump\t// out\n        /* \"#utility.yul\":540:917   */\n    tag_123:\n        /* \"#utility.yul\":628:631   */\n      0x00\n        /* \"#utility.yul\":656:695   */\n      tag_147\n        /* \"#utility.yul\":689:694   */\n      dup3\n        /* \"#utility.yul\":656:695   */\n      tag_119\n      jump\t// in\n    tag_147:\n        /* \"#utility.yul\":711:782   */\n      tag_148\n        /* \"#utility.yul\":775:781   */\n      dup2\n        /* \"#utility.yul\":770:773   */\n      dup6\n        /* \"#utility.yul\":711:782   */\n      tag_120\n      jump\t// in\n    tag_148:\n        /* \"#utility.yul\":704:782   */\n      swap4\n      pop\n        /* \"#utility.yul\":791:856   */\n      tag_149\n        /* \"#utility.yul\":849:855   */\n      dup2\n        /* \"#utility.yul\":844:847   */\n      dup6\n        /* \"#utility.yul\":837:841   */\n      0x20\n        /* \"#utility.yul\":830:835   */\n      dup7\n        /* \"#utility.yul\":826:842   */\n      add\n        /* \"#utility.yul\":791:856   */\n      tag_121\n      jump\t// in\n    tag_149:\n        /* \"#utility.yul\":881:910   */\n      tag_150\n        /* \"#utility.yul\":903:909   */\n      dup2\n        /* \"#utility.yul\":881:910   */\n      tag_122\n      jump\t// in\n    tag_150:\n        /* \"#utility.yul\":876:879   */\n      dup5\n        /* \"#utility.yul\":872:911   */\n      add\n        /* \"#utility.yul\":865:911   */\n      swap2\n      pop\n        /* \"#utility.yul\":632:917   */\n      pop\n        /* \"#utility.yul\":540:917   */\n      swap3\n      swap2\n      pop\n      pop\n      jump\t// out\n        /* \"#utility.yul\":923:1236   */\n    tag_18:\n        /* \"#utility.yul\":1036:1040   */\n      0x00\n        /* \"#utility.yul\":1074:1076   */\n      0x20\n        /* \"#utility.yul\":1063:1072   */\n      dup3\n        /* \"#utility.yul\":1059:1077   */\n      add\n        /* \"#utility.yul\":1051:1077   */\n      swap1\n      pop\n        /* \"#utility.yul\":1123:1132   */\n      dup2\n        /* \"#utility.yul\":1117:1121   */\n      dup2\n        /* \"#utility.yul\":1113:1133   */\n      sub\n        /* \"#utility.yul\":1109:1110   */\n      0x00\n        /* \"#utility.yul\":1098:1107   */\n      dup4\n        /* \"#utility.yul\":1094:1111   */\n      add\n        /* \"#utility.yul\":1087:1134   */\n      mstore\n        /* \"#utility.yul\":1151:1229   */\n      tag_152\n        /* \"#utility.yul\":1224:1228   */\n      dup2\n        /* \"#utility.yul\":1215:1221   */\n      dup5\n        /* \"#utility.yul\":1151:1229   */\n      tag_123\n      jump\t// in\n    tag_152:\n        /* \"#utility.yul\":1143:1229   */\n      swap1\n      pop\n        /* \"#utility.yul\":923:1236   */\n      swap3\n      swap2\n      pop\n      pop\n      jump\t// out\n        /* \"#utility.yul\":1323:1440   */\n    tag_125:\n        /* \"#utility.yul\":1432:1433   */\n      0x00\n        /* \"#utility.yul\":1429:1430   */\n      dup1\n        /* \"#utility.yul\":1422:1434   */\n      revert\n        /* \"#utility.yul\":1569:1695   */\n    tag_127:\n        /* \"#utility.yul\":1606:1613   */\n      0x00\n        /* \"#utility.yul\":1646:1688   */\n      0xffffffffffffffffffffffffffffffffffffffff\n        /* \"#utility.yul\":1639:1644   */\n      dup3\n        /* \"#utility.yul\":1635:1689   */\n      and\n        /* \"#utility.yul\":1624:1689   */\n      swap1\n      pop\n        /* \"#utility.yul\":1569:1695   */\n      swap2\n      swap1\n      pop\n      jump\t// out\n        /* \"#utility.yul\":1701:1797   */\n    tag_128:\n        /* \"#utility.yul\":1738:1745   */\n      0x00\n        /* \"#utility.yul\":1767:1791   */\n      tag_158\n        /* \"#utility.yul\":1785:1790   */\n      dup3\n        /* \"#utility.yul\":1767:1791   */\n      tag_127\n      jump\t// in\n    tag_158:\n        /* \"#utility.yul\":1756:1791   */\n      swap1\n      pop\n        /* \"#utility.yul\":1701:1797   */\n      swap2\n      swap1\n      pop\n      jump\t// out\n        /* \"#utility.yul\":1803:1925   */\n    tag_129:\n        /* \"#utility.yul\":1876:1900   */\n      tag_160\n        /* \"#utility.yul\":1894:1899   */\n      dup2\n        /* \"#utility.yul\":1876:1900   */\n      tag_128\n      jump\t// in\n    tag_160:\n        /* \"#utility.yul\":1869:1874   */\n      dup2\n        /* \"#utility.yul\":1866:1901   */\n      eq\n        /* \"#utility.yul\":1856:1919   */\n      tag_161\n      jumpi\n        /* \"#utility.yul\":1915:1916   */\n      0x00\n        /* \"#utility.yul\":1912:1913   */\n      dup1\n        /* \"#utility.yul\":1905:1917   */\n      revert\n        /* \"#utility.yul\":1856:1919   */\n    tag_161:\n        /* \"#utility.yul\":1803:1925   */\n      pop\n      jump\t// out\n        /* \"#utility.yul\":1931:2070   */\n    tag_130:\n        /* \"#utility.yul\":1977:1982   */\n      0x00\n        /* \"#utility.yul\":2015:2021   */\n      dup2\n        /* \"#utility.yul\":2002:2022   */\n      calldataload\n        /* \"#utility.yul\":1993:2022   */\n      swap1\n      pop\n        /* \"#utility.yul\":2031:2064   */\n      tag_163\n        /* \"#utility.yul\":2058:2063   */\n      dup2\n        /* \"#utility.yul\":2031:2064   */\n      tag_129\n      jump\t// in\n    tag_163:\n        /* \"#utility.yul\":1931:2070   */\n      swap3\n      swap2\n      pop\n      pop\n      jump\t// out\n        /* \"#utility.yul\":2076:2153   */\n    tag_131:\n        /* \"#utility.yul\":2113:2120   */\n      0x00\n        /* \"#utility.yul\":2142:2147   */\n      dup2\n        /* \"#utility.yul\":2131:2147   */\n      swap1\n      pop\n        /* \"#utility.yul\":2076:2153   */\n      swap2\n      swap1\n      pop\n      jump\t// out\n        /* \"#utility.yul\":2159:2281   */\n    tag_132:\n        /* \"#utility.yul\":2232:2256   */\n      tag_166\n        /* \"#utility.yul\":2250:2255   */\n      dup2\n        /* \"#utility.yul\":2232:2256   */\n      tag_131\n      jump\t// in\n    tag_166:\n        /* \"#utility.yul\":2225:2230   */\n      dup2\n        /* \"#utility.yul\":2222:2257   */\n      eq\n        /* \"#utility.yul\":2212:2275   */\n      tag_167\n      jumpi\n        /* \"#utility.yul\":2271:2272   */\n      0x00\n        /* \"#utility.yul\":2268:2269   */\n      dup1\n        /* \"#utility.yul\":2261:2273   */\n      revert\n        /* \"#utility.yul\":2212:2275   */\n    tag_167:\n        /* \"#utility.yul\":2159:2281   */\n      pop\n      jump\t// out\n        /* \"#utility.yul\":2287:2426   */\n    tag_133:\n        /* \"#utility.yul\":2333:2338   */\n      0x00\n        /* \"#utility.yul\":2371:2377   */\n      dup2\n        /* \"#utility.yul\":2358:2378   */\n      calldataload\n        /* \"#utility.yul\":2349:2378   */\n      swap1\n      pop\n        /* \"#utility.yul\":2387:2420   */\n      tag_169\n        /* \"#utility.yul\":2414:2419   */\n      dup2\n        /* \"#utility.yul\":2387:2420   */\n      tag_132\n      jump\t// in\n    tag_169:\n        /* \"#utility.yul\":2287:2426   */\n      swap3\n      swap2\n      pop\n      pop\n      jump\t// out\n        /* \"#utility.yul\":2432:2906   */\n    tag_21:\n        /* \"#utility.yul\":2500:2506   */\n      0x00\n        /* \"#utility.yul\":2508:2514   */\n      dup1\n        /* \"#utility.yul\":2557:2559   */\n      0x40\n        /* \"#utility.yul\":2545:2554   */\n      dup4\n        /* \"#utility.yul\":2536:2543   */\n      dup6\n        /* \"#utility.yul\":2532:2555   */\n      sub\n        /* \"#utility.yul\":2528:2560   */\n      slt\n        /* \"#utility.yul\":2525:2644   */\n      iszero\n      tag_171\n      jumpi\n        /* \"#utility.yul\":2563:2642   */\n      tag_172\n      tag_125\n      jump\t// in\n    tag_172:\n        /* \"#utility.yul\":2525:2644   */\n    tag_171:\n        /* \"#utility.yul\":2683:2684   */\n      0x00\n        /* \"#utility.yul\":2708:2761   */\n      tag_173\n        /* \"#utility.yul\":2753:2760   */\n      dup6\n        /* \"#utility.yul\":2744:2750   */\n      dup3\n        /* \"#utility.yul\":2733:2742   */\n      dup7\n        /* \"#utility.yul\":2729:2751   */\n      add\n        /* \"#utility.yul\":2708:2761   */\n      tag_130\n      jump\t// in\n    tag_173:\n        /* \"#utility.yul\":2698:2761   */\n      swap3\n      pop\n        /* \"#utility.yul\":2654:2771   */\n      pop\n        /* \"#utility.yul\":2810:2812   */\n      0x20\n        /* \"#utility.yul\":2836:2889   */\n      tag_174\n        /* \"#utility.yul\":2881:2888   */\n      dup6\n        /* \"#utility.yul\":2872:2878   */\n      dup3\n        /* \"#utility.yul\":2861:2870   */\n      dup7\n        /* \"#utility.yul\":2857:2879   */\n      add\n        /* \"#utility.yul\":2836:2889   */\n      tag_133\n      jump\t// in\n    tag_174:\n        /* \"#utility.yul\":2826:2889   */\n      swap2\n      pop\n        /* \"#utility.yul\":2781:2899   */\n      pop\n        /* \"#utility.yul\":2432:2906   */\n      swap3\n      pop\n      swap3\n      swap1\n      pop\n      jump\t// out\n        /* \"#utility.yul\":2912:3030   */\n    tag_134:\n        /* \"#utility.yul\":2999:3023   */\n      tag_176\n        /* \"#utility.yul\":3017:3022   */\n      dup2\n        /* \"#utility.yul\":2999:3023   */\n      tag_131\n      jump\t// in\n    tag_176:\n        /* \"#utility.yul\":2994:2997   */\n      dup3\n        /* \"#utility.yul\":2987:3024   */\n      mstore\n        /* \"#utility.yul\":2912:3030   */\n      pop\n      pop\n      jump\t// out\n        /* \"#utility.yul\":3036:3258   */\n    tag_26:\n        /* \"#utility.yul\":3129:3133   */\n      0x00\n        /* \"#utility.yul\":3167:3169   */\n      0x20\n        /* \"#utility.yul\":3156:3165   */\n      dup3\n        /* \"#utility.yul\":3152:3170   */\n      add\n        /* \"#utility.yul\":3144:3170   */\n      swap1\n      pop\n        /* \"#utility.yul\":3180:3251   */\n      tag_178\n        /* \"#utility.yul\":3248:3249   */\n      0x00\n        /* \"#utility.yul\":3237:3246   */\n      dup4\n        /* \"#utility.yul\":3233:3250   */\n      add\n        /* \"#utility.yul\":3224:3230   */\n      dup5\n        /* \"#utility.yul\":3180:3251   */\n      tag_134\n      jump\t// in\n    tag_178:\n        /* \"#utility.yul\":3036:3258   */\n      swap3\n      swap2\n      pop\n      pop\n      jump\t// out\n        /* \"#utility.yul\":3264:3883   */\n    tag_29:\n        /* \"#utility.yul\":3341:3347   */\n      0x00\n        /* \"#utility.yul\":3349:3355   */\n      dup1\n        /* \"#utility.yul\":3357:3363   */\n      0x00\n        /* \"#utility.yul\":3406:3408   */\n      0x60\n        /* \"#utility.yul\":3394:3403   */\n      dup5\n        /* \"#utility.yul\":3385:3392   */\n      dup7\n        /* \"#utility.yul\":3381:3404   */\n      sub\n        /* \"#utility.yul\":3377:3409   */\n      slt\n        /* \"#utility.yul\":3374:3493   */\n      iszero\n      tag_180\n      jumpi\n        /* \"#utility.yul\":3412:3491   */\n      tag_181\n      tag_125\n      jump\t// in\n    tag_181:\n        /* \"#utility.yul\":3374:3493   */\n    tag_180:\n        /* \"#utility.yul\":3532:3533   */\n      0x00\n        /* \"#utility.yul\":3557:3610   */\n      tag_182\n        /* \"#utility.yul\":3602:3609   */\n      dup7\n        /* \"#utility.yul\":3593:3599   */\n      dup3\n        /* \"#utility.yul\":3582:3591   */\n      dup8\n        /* \"#utility.yul\":3578:3600   */\n      add\n        /* \"#utility.yul\":3557:3610   */\n      tag_130\n      jump\t// in\n    tag_182:\n        /* \"#utility.yul\":3547:3610   */\n      swap4\n      pop\n        /* \"#utility.yul\":3503:3620   */\n      pop\n        /* \"#utility.yul\":3659:3661   */\n      0x20\n        /* \"#utility.yul\":3685:3738   */\n      tag_183\n        /* \"#utility.yul\":3730:3737   */\n      dup7\n        /* \"#utility.yul\":3721:3727   */\n      dup3\n        /* \"#utility.yul\":3710:3719   */\n      dup8\n        /* \"#utility.yul\":3706:3728   */\n      add\n        /* \"#utility.yul\":3685:3738   */\n      tag_130\n      jump\t// in\n    tag_183:\n        /* \"#utility.yul\":3675:3738   */\n      swap3\n      pop\n        /* \"#utility.yul\":3630:3748   */\n      pop\n        /* \"#utility.yul\":3787:3789   */\n      0x40\n        /* \"#utility.yul\":3813:3866   */\n      tag_184\n        /* \"#utility.yul\":3858:3865   */\n      dup7\n        /* \"#utility.yul\":3849:3855   */\n      dup3\n        /* \"#utility.yul\":3838:3847   */\n      dup8\n        /* \"#utility.yul\":3834:3856   */\n      add\n        /* \"#utility.yul\":3813:3866   */\n      tag_133\n      jump\t// in\n    tag_184:\n        /* \"#utility.yul\":3803:3866   */\n      swap2\n      pop\n        /* \"#utility.yul\":3758:3876   */\n      pop\n        /* \"#utility.yul\":3264:3883   */\n      swap3\n      pop\n      swap3\n      pop\n      swap3\n      jump\t// out\n        /* \"#utility.yul\":3889:4218   */\n    tag_36:\n        /* \"#utility.yul\":3948:3954   */\n      0x00\n        /* \"#utility.yul\":3997:3999   */\n      0x20\n        /* \"#utility.yul\":3985:3994   */\n      dup3\n        /* \"#utility.yul\":3976:3983   */\n      dup5\n        /* \"#utility.yul\":3972:3995   */\n      sub\n        /* \"#utility.yul\":3968:4000   */\n      slt\n        /* \"#utility.yul\":3965:4084   */\n      iszero\n      tag_186\n      jumpi\n        /* \"#utility.yul\":4003:4082   */\n      tag_187\n      tag_125\n      jump\t// in\n    tag_187:\n        /* \"#utility.yul\":3965:4084   */\n    tag_186:\n        /* \"#utility.yul\":4123:4124   */\n      0x00\n        /* \"#utility.yul\":4148:4201   */\n      tag_188\n        /* \"#utility.yul\":4193:4200   */\n      dup5\n        /* \"#utility.yul\":4184:4190   */\n      dup3\n        /* \"#utility.yul\":4173:4182   */\n      dup6\n        /* \"#utility.yul\":4169:4191   */\n      add\n        /* \"#utility.yul\":4148:4201   */\n      tag_130\n      jump\t// in\n    tag_188:\n        /* \"#utility.yul\":4138:4201   */\n      swap2\n      pop\n        /* \"#utility.yul\":4094:4211   */\n      pop\n        /* \"#utility.yul\":3889:4218   */\n      swap3\n      swap2\n      pop\n      pop\n      jump\t// out\n        /* \"#utility.yul\":4224:4698   */\n    tag_41:\n        /* \"#utility.yul\":4292:4298   */\n      0x00\n        /* \"#utility.yul\":4300:4306   */\n      dup1\n        /* \"#utility.yul\":4349:4351   */\n      0x40\n        /* \"#utility.yul\":4337:4346   */\n      dup4\n        /* \"#utility.yul\":4328:4335   */\n      dup6\n        /* \"#utility.yul\":4324:4347   */\n      sub\n        /* \"#utility.yul\":4320:4352   */\n      slt\n        /* \"#utility.yul\":4317:4436   */\n      iszero\n      tag_190\n      jumpi\n        /* \"#utility.yul\":4355:4434   */\n      tag_191\n      tag_125\n      jump\t// in\n    tag_191:\n        /* \"#utility.yul\":4317:4436   */\n    tag_190:\n        /* \"#utility.yul\":4475:4476   */\n      0x00\n        /* \"#utility.yul\":4500:4553   */\n      tag_192\n        /* \"#utility.yul\":4545:4552   */\n      dup6\n        /* \"#utility.yul\":4536:4542   */\n      dup3\n        /* \"#utility.yul\":4525:4534   */\n      dup7\n        /* \"#utility.yul\":4521:4543   */\n      add\n        /* \"#utility.yul\":4500:4553   */\n      tag_133\n      jump\t// in\n    tag_192:\n        /* \"#utility.yul\":4490:4553   */\n      swap3\n      pop\n        /* \"#utility.yul\":4446:4563   */\n      pop\n        /* \"#utility.yul\":4602:4604   */\n      0x20\n        /* \"#utility.yul\":4628:4681   */\n      tag_193\n        /* \"#utility.yul\":4673:4680   */\n      dup6\n        /* \"#utility.yul\":4664:4670   */\n      dup3\n        /* \"#utility.yul\":4653:4662   */\n      dup7\n        /* \"#utility.yul\":4649:4671   */\n      add\n        /* \"#utility.yul\":4628:4681   */\n      tag_130\n      jump\t// in\n    tag_193:\n        /* \"#utility.yul\":4618:4681   */\n      swap2\n      pop\n        /* \"#utility.yul\":4573:4691   */\n      pop\n        /* \"#utility.yul\":4224:4698   */\n      swap3\n      pop\n      swap3\n      swap1\n      pop\n      jump\t// out\n        /* \"#utility.yul\":4704:5178   */\n    tag_54:\n        /* \"#utility.yul\":4772:4778   */\n      0x00\n        /* \"#utility.yul\":4780:4786   */\n      dup1\n        /* \"#utility.yul\":4829:4831   */\n      0x40\n        /* \"#utility.yul\":4817:4826   */\n      dup4\n        /* \"#utility.yul\":4808:4815   */\n      dup6\n        /* \"#utility.yul\":4804:4827   */\n      sub\n        /* \"#utility.yul\":4800:4832   */\n      slt\n        /* \"#utility.yul\":4797:4916   */\n      iszero\n      tag_195\n      jumpi\n        /* \"#utility.yul\":4835:4914   */\n      tag_196\n      tag_125\n      jump\t// in\n    tag_196:\n        /* \"#utility.yul\":4797:4916   */\n    tag_195:\n        /* \"#utility.yul\":4955:4956   */\n      0x00\n        /* \"#utility.yul\":4980:5033   */\n      tag_197\n        /* \"#utility.yul\":5025:5032   */\n      dup6\n        /* \"#utility.yul\":5016:5022   */\n      dup3\n        /* \"#utility.yul\":5005:5014   */\n      dup7\n        /* \"#utility.yul\":5001:5023   */\n      add\n        /* \"#utility.yul\":4980:5033   */\n      tag_130\n      jump\t// in\n    tag_197:\n        /* \"#utility.yul\":4970:5033   */\n      swap3\n      pop\n        /* \"#utility.yul\":4926:5043   */\n      pop\n        /* \"#utility.yul\":5082:5084   */\n      0x20\n        /* \"#utility.yul\":5108:5161   */\n      tag_198\n        /* \"#utility.yul\":5153:5160   */\n      dup6\n        /* \"#utility.yul\":5144:5150   */\n      dup3\n        /* \"#utility.yul\":5133:5142   */\n      dup7\n        /* \"#utility.yul\":5129:5151   */\n      add\n        /* \"#utility.yul\":5108:5161   */\n      tag_130\n      jump\t// in\n    tag_198:\n        /* \"#utility.yul\":5098:5161   */\n      swap2\n      pop\n        /* \"#utility.yul\":5053:5171   */\n      pop\n        /* \"#utility.yul\":4704:5178   */\n      swap3\n      pop\n      swap3\n      swap1\n      pop\n      jump\t// out\n        /* \"#utility.yul\":5184:5364   */\n    tag_135:\n        /* \"#utility.yul\":5232:5309   */\n      0x4e487b7100000000000000000000000000000000000000000000000000000000\n        /* \"#utility.yul\":5229:5230   */\n      0x00\n        /* \"#utility.yul\":5222:5310   */\n      mstore\n        /* \"#utility.yul\":5329:5333   */\n      0x22\n        /* \"#utility.yul\":5326:5327   */\n      0x04\n        /* \"#utility.yul\":5319:5334   */\n      mstore\n        /* \"#utility.yul\":5353:5357   */\n      0x24\n        /* \"#utility.yul\":5350:5351   */\n      0x00\n        /* \"#utility.yul\":5343:5358   */\n      revert\n        /* \"#utility.yul\":5370:5690   */\n    tag_59:\n        /* \"#utility.yul\":5414:5420   */\n      0x00\n        /* \"#utility.yul\":5451:5452   */\n      0x02\n        /* \"#utility.yul\":5445:5449   */\n      dup3\n        /* \"#utility.yul\":5441:5453   */\n      div\n        /* \"#utility.yul\":5431:5453   */\n      swap1\n      pop\n        /* \"#utility.yul\":5498:5499   */\n      0x01\n        /* \"#utility.yul\":5492:5496   */\n      dup3\n        /* \"#utility.yul\":5488:5500   */\n      and\n        /* \"#utility.yul\":5519:5537   */\n      dup1\n        /* \"#utility.yul\":5509:5590   */\n      tag_201\n      jumpi\n        /* \"#utility.yul\":5575:5579   */\n      0x7f\n        /* \"#utility.yul\":5567:5573   */\n      dup3\n        /* \"#utility.yul\":5563:5580   */\n      and\n        /* \"#utility.yul\":5553:5580   */\n      swap2\n      pop\n        /* \"#utility.yul\":5509:5590   */\n    tag_201:\n        /* \"#utility.yul\":5637:5639   */\n      0x20\n        /* \"#utility.yul\":5629:5635   */\n      dup3\n        /* \"#utility.yul\":5626:5640   */\n      lt\n        /* \"#utility.yul\":5606:5624   */\n      dup2\n        /* \"#utility.yul\":5603:5641   */\n      sub\n        /* \"#utility.yul\":5600:5684   */\n      tag_202\n      jumpi\n        /* \"#utility.yul\":5656:5674   */\n      tag_203\n      tag_135\n      jump\t// in\n    tag_203:\n        /* \"#utility.yul\":5600:5684   */\n    tag_202:\n        /* \"#utility.yul\":5421:5690   */\n      pop\n        /* \"#utility.yul\":5370:5690   */\n      swap2\n      swap1\n      pop\n      jump\t// out\n        /* \"#utility.yul\":5696:5864   */\n    tag_136:\n        /* \"#utility.yul\":5836:5856   */\n      0x6e6f7420656e6f75676820746f6b656e73210000000000000000000000000000\n        /* \"#utility.yul\":5832:5833   */\n      0x00\n        /* \"#utility.yul\":5824:5830   */\n      dup3\n        /* \"#utility.yul\":5820:5834   */\n      add\n        /* \"#utility.yul\":5813:5857   */\n      mstore\n        /* \"#utility.yul\":5696:5864   */\n      pop\n      jump\t// out\n        /* \"#utility.yul\":5870:6236   */\n    tag_137:\n        /* \"#utility.yul\":6012:6015   */\n      0x00\n        /* \"#utility.yul\":6033:6100   */\n      tag_206\n        /* \"#utility.yul\":6097:6099   */\n      0x12\n        /* \"#utility.yul\":6092:6095   */\n      dup4\n        /* \"#utility.yul\":6033:6100   */\n      tag_120\n      jump\t// in\n    tag_206:\n        /* \"#utility.yul\":6026:6100   */\n      swap2\n      pop\n        /* \"#utility.yul\":6109:6202   */\n      tag_207\n        /* \"#utility.yul\":6198:6201   */\n      dup3\n        /* \"#utility.yul\":6109:6202   */\n      tag_136\n      jump\t// in\n    tag_207:\n        /* \"#utility.yul\":6227:6229   */\n      0x20\n        /* \"#utility.yul\":6222:6225   */\n      dup3\n        /* \"#utility.yul\":6218:6230   */\n      add\n        /* \"#utility.yul\":6211:6230   */\n      swap1\n      pop\n        /* \"#utility.yul\":5870:6236   */\n      swap2\n      swap1\n      pop\n      jump\t// out\n        /* \"#utility.yul\":6242:6661   */\n    tag_72:\n        /* \"#utility.yul\":6408:6412   */\n      0x00\n        /* \"#utility.yul\":6446:6448   */\n      0x20\n        /* \"#utility.yul\":6435:6444   */\n      dup3\n        /* \"#utility.yul\":6431:6449   */\n      add\n        /* \"#utility.yul\":6423:6449   */\n      swap1\n      pop\n        /* \"#utility.yul\":6495:6504   */\n      dup2\n        /* \"#utility.yul\":6489:6493   */\n      dup2\n        /* \"#utility.yul\":6485:6505   */\n      sub\n        /* \"#utility.yul\":6481:6482   */\n      0x00\n        /* \"#utility.yul\":6470:6479   */\n      dup4\n        /* \"#utility.yul\":6466:6483   */\n      add\n        /* \"#utility.yul\":6459:6506   */\n      mstore\n        /* \"#utility.yul\":6523:6654   */\n      tag_209\n        /* \"#utility.yul\":6649:6653   */\n      dup2\n        /* \"#utility.yul\":6523:6654   */\n      tag_137\n      jump\t// in\n    tag_209:\n        /* \"#utility.yul\":6515:6654   */\n      swap1\n      pop\n        /* \"#utility.yul\":6242:6661   */\n      swap2\n      swap1\n      pop\n      jump\t// out\n        /* \"#utility.yul\":6667:6847   */\n    tag_138:\n        /* \"#utility.yul\":6715:6792   */\n      0x4e487b7100000000000000000000000000000000000000000000000000000000\n        /* \"#utility.yul\":6712:6713   */\n      0x00\n        /* \"#utility.yul\":6705:6793   */\n      mstore\n        /* \"#utility.yul\":6812:6816   */\n      0x11\n        /* \"#utility.yul\":6809:6810   */\n      0x04\n        /* \"#utility.yul\":6802:6817   */\n      mstore\n        /* \"#utility.yul\":6836:6840   */\n      0x24\n        /* \"#utility.yul\":6833:6834   */\n      0x00\n        /* \"#utility.yul\":6826:6841   */\n      revert\n        /* \"#utility.yul\":6853:7047   */\n    tag_77:\n        /* \"#utility.yul\":6893:6897   */\n      0x00\n        /* \"#utility.yul\":6913:6933   */\n      tag_212\n        /* \"#utility.yul\":6931:6932   */\n      dup3\n        /* \"#utility.yul\":6913:6933   */\n      tag_131\n      jump\t// in\n    tag_212:\n        /* \"#utility.yul\":6908:6933   */\n      swap2\n      pop\n        /* \"#utility.yul\":6947:6967   */\n      tag_213\n        /* \"#utility.yul\":6965:6966   */\n      dup4\n        /* \"#utility.yul\":6947:6967   */\n      tag_131\n      jump\t// in\n    tag_213:\n        /* \"#utility.yul\":6942:6967   */\n      swap3\n      pop\n        /* \"#utility.yul\":6991:6992   */\n      dup3\n        /* \"#utility.yul\":6988:6989   */\n      dup3\n        /* \"#utility.yul\":6984:6993   */\n      sub\n        /* \"#utility.yul\":6976:6993   */\n      swap1\n      pop\n        /* \"#utility.yul\":7015:7016   */\n      dup2\n        /* \"#utility.yul\":7009:7013   */\n      dup2\n        /* \"#utility.yul\":7006:7017   */\n      gt\n        /* \"#utility.yul\":7003:7040   */\n      iszero\n      tag_214\n      jumpi\n        /* \"#utility.yul\":7020:7038   */\n      tag_215\n      tag_138\n      jump\t// in\n    tag_215:\n        /* \"#utility.yul\":7003:7040   */\n    tag_214:\n        /* \"#utility.yul\":6853:7047   */\n      swap3\n      swap2\n      pop\n      pop\n      jump\t// out\n        /* \"#utility.yul\":7053:7244   */\n    tag_80:\n        /* \"#utility.yul\":7093:7096   */\n      0x00\n        /* \"#utility.yul\":7112:7132   */\n      tag_217\n        /* \"#utility.yul\":7130:7131   */\n      dup3\n        /* \"#utility.yul\":7112:7132   */\n      tag_131\n      jump\t// in\n    tag_217:\n        /* \"#utility.yul\":7107:7132   */\n      swap2\n      pop\n        /* \"#utility.yul\":7146:7166   */\n      tag_218\n        /* \"#utility.yul\":7164:7165   */\n      dup4\n        /* \"#utility.yul\":7146:7166   */\n      tag_131\n      jump\t// in\n    tag_218:\n        /* \"#utility.yul\":7141:7166   */\n      swap3\n      pop\n        /* \"#utility.yul\":7189:7190   */\n      dup3\n        /* \"#utility.yul\":7186:7187   */\n      dup3\n        /* \"#utility.yul\":7182:7191   */\n      add\n        /* \"#utility.yul\":7175:7191   */\n      swap1\n      pop\n        /* \"#utility.yul\":7210:7213   */\n      dup1\n        /* \"#utility.yul\":7207:7208   */\n      dup3\n        /* \"#utility.yul\":7204:7214   */\n      gt\n        /* \"#utility.yul\":7201:7237   */\n      iszero\n      tag_219\n      jumpi\n        /* \"#utility.yul\":7217:7235   */\n      tag_220\n      tag_138\n      jump\t// in\n    tag_220:\n        /* \"#utility.yul\":7201:7237   */\n    tag_219:\n        /* \"#utility.yul\":7053:7244   */\n      swap3\n      swap2\n      pop\n      pop\n      jump\t// out\n        /* \"#utility.yul\":7250:7413   */\n    tag_139:\n        /* \"#utility.yul\":7390:7405   */\n      0x6e6f7420616e206f776e65722100000000000000000000000000000000000000\n        /* \"#utility.yul\":7386:7387   */\n      0x00\n        /* \"#utility.yul\":7378:7384   */\n      dup3\n        /* \"#utility.yul\":7374:7388   */\n      add\n        /* \"#utility.yul\":7367:7406   */\n      mstore\n        /* \"#utility.yul\":7250:7413   */\n      pop\n      jump\t// out\n        /* \"#utility.yul\":7419:7785   */\n    tag_140:\n        /* \"#utility.yul\":7561:7564   */\n      0x00\n        /* \"#utility.yul\":7582:7649   */\n      tag_223\n        /* \"#utility.yul\":7646:7648   */\n      0x0d\n        /* \"#utility.yul\":7641:7644   */\n      dup4\n        /* \"#utility.yul\":7582:7649   */\n      tag_120\n      jump\t// in\n    tag_223:\n        /* \"#utility.yul\":7575:7649   */\n      swap2\n      pop\n        /* \"#utility.yul\":7658:7751   */\n      tag_224\n        /* \"#utility.yul\":7747:7750   */\n      dup3\n        /* \"#utility.yul\":7658:7751   */\n      tag_139\n      jump\t// in\n    tag_224:\n        /* \"#utility.yul\":7776:7778   */\n      0x20\n        /* \"#utility.yul\":7771:7774   */\n      dup3\n        /* \"#utility.yul\":7767:7779   */\n      add\n        /* \"#utility.yul\":7760:7779   */\n      swap1\n      pop\n        /* \"#utility.yul\":7419:7785   */\n      swap2\n      swap1\n      pop\n      jump\t// out\n        /* \"#utility.yul\":7791:8210   */\n    tag_87:\n        /* \"#utility.yul\":7957:7961   */\n      0x00\n        /* \"#utility.yul\":7995:7997   */\n      0x20\n        /* \"#utility.yul\":7984:7993   */\n      dup3\n        /* \"#utility.yul\":7980:7998   */\n      add\n        /* \"#utility.yul\":7972:7998   */\n      swap1\n      pop\n        /* \"#utility.yul\":8044:8053   */\n      dup2\n        /* \"#utility.yul\":8038:8042   */\n      dup2\n        /* \"#utility.yul\":8034:8054   */\n      sub\n        /* \"#utility.yul\":8030:8031   */\n      0x00\n        /* \"#utility.yul\":8019:8028   */\n      dup4\n        /* \"#utility.yul\":8015:8032   */\n      add\n        /* \"#utility.yul\":8008:8055   */\n      mstore\n        /* \"#utility.yul\":8072:8203   */\n      tag_226\n        /* \"#utility.yul\":8198:8202   */\n      dup2\n        /* \"#utility.yul\":8072:8203   */\n      tag_140\n      jump\t// in\n    tag_226:\n        /* \"#utility.yul\":8064:8203   */\n      swap1\n      pop\n        /* \"#utility.yul\":7791:8210   */\n      swap2\n      swap1\n      pop\n      jump\t// out\n\n    auxdata: 0xa2646970667358221220cd70206746b47a3abd11b35722d78cae2c79f671bbb8b825a527bf3aad6951cd64736f6c63430008190033\n}\n",
				"bytecode": {
					"linkReferences": {},
					"object": "608060405234801561000f575f80fd5b506040516117c43803806117c4833981810160405281019061003191906103fc565b8360049081610040919061069c565b508260059081610050919061069c565b503360015f6101000a81548173ffffffffffffffffffffffffffffffffffffffff021916908373ffffffffffffffffffffffffffffffffffffffff1602179055506100a182826100aa60201b60201c565b5050505061086b565b60015f9054906101000a900473ffffffffffffffffffffffffffffffffffffffff1673ffffffffffffffffffffffffffffffffffffffff163373ffffffffffffffffffffffffffffffffffffffff1614610139576040517f08c379a0000000000000000000000000000000000000000000000000000000008152600401610130906107c5565b60405180910390fd5b61014a5f828461021d60201b60201c565b8160025f8373ffffffffffffffffffffffffffffffffffffffff1673ffffffffffffffffffffffffffffffffffffffff1681526020019081526020015f205f8282546101969190610810565b92505081905550815f808282546101ad9190610810565b925050819055508073ffffffffffffffffffffffffffffffffffffffff165f73ffffffffffffffffffffffffffffffffffffffff167fddf252ad1be2c89b69c2b068fc378daa952ba7f163c4a11628f55a4df523b3ef846040516102119190610852565b60405180910390a35050565b505050565b5f604051905090565b5f80fd5b5f80fd5b5f80fd5b5f80fd5b5f601f19601f8301169050919050565b7f4e487b71000000000000000000000000000000000000000000000000000000005f52604160045260245ffd5b6102818261023b565b810181811067ffffffffffffffff821117156102a05761029f61024b565b5b80604052505050565b5f6102b2610222565b90506102be8282610278565b919050565b5f67ffffffffffffffff8211156102dd576102dc61024b565b5b6102e68261023b565b9050602081019050919050565b8281835e5f83830152505050565b5f61031361030e846102c3565b6102a9565b90508281526020810184848401111561032f5761032e610237565b5b61033a8482856102f3565b509392505050565b5f82601f83011261035657610355610233565b5b8151610366848260208601610301565b91505092915050565b5f819050919050565b6103818161036f565b811461038b575f80fd5b50565b5f8151905061039c81610378565b92915050565b5f73ffffffffffffffffffffffffffffffffffffffff82169050919050565b5f6103cb826103a2565b9050919050565b6103db816103c1565b81146103e5575f80fd5b50565b5f815190506103f6816103d2565b92915050565b5f805f80608085870312156104145761041361022b565b5b5f85015167ffffffffffffffff8111156104315761043061022f565b5b61043d87828801610342565b945050602085015167ffffffffffffffff81111561045e5761045d61022f565b5b61046a87828801610342565b935050604061047b8782880161038e565b925050606061048c878288016103e8565b91505092959194509250565b5f81519050919050565b7f4e487b71000000000000000000000000000000000000000000000000000000005f52602260045260245ffd5b5f60028204905060018216806104e657607f821691505b6020821081036104f9576104f86104a2565b5b50919050565b5f819050815f5260205f209050919050565b5f6020601f8301049050919050565b5f82821b905092915050565b5f6008830261055b7fffffffffffffffffffffffffffffffffffffffffffffffffffffffffffffffff82610520565b6105658683610520565b95508019841693508086168417925050509392505050565b5f819050919050565b5f6105a061059b6105968461036f565b61057d565b61036f565b9050919050565b5f819050919050565b6105b983610586565b6105cd6105c5826105a7565b84845461052c565b825550505050565b5f90565b6105e16105d5565b6105ec8184846105b0565b505050565b5b8181101561060f576106045f826105d9565b6001810190506105f2565b5050565b601f82111561065457610625816104ff565b61062e84610511565b8101602085101561063d578190505b61065161064985610511565b8301826105f1565b50505b505050565b5f82821c905092915050565b5f6106745f1984600802610659565b1980831691505092915050565b5f61068c8383610665565b9150826002028217905092915050565b6106a582610498565b67ffffffffffffffff8111156106be576106bd61024b565b5b6106c882546104cf565b6106d3828285610613565b5f60209050601f831160018114610704575f84156106f2578287015190505b6106fc8582610681565b865550610763565b601f198416610712866104ff565b5f5b8281101561073957848901518255600182019150602085019450602081019050610714565b868310156107565784890151610752601f891682610665565b8355505b6001600288020188555050505b505050505050565b5f82825260208201905092915050565b7f6e6f7420616e206f776e657221000000000000000000000000000000000000005f82015250565b5f6107af600d8361076b565b91506107ba8261077b565b602082019050919050565b5f6020820190508181035f8301526107dc816107a3565b9050919050565b7f4e487b71000000000000000000000000000000000000000000000000000000005f52601160045260245ffd5b5f61081a8261036f565b91506108258361036f565b925082820190508082111561083d5761083c6107e3565b5b92915050565b61084c8161036f565b82525050565b5f6020820190506108655f830184610843565b92915050565b610f4c806108785f395ff3fe608060405234801561000f575f80fd5b50600436106100a7575f3560e01c806370a082311161006f57806370a082311461013d57806394bf804d1461016d57806395d89b41146101895780639dc29fac146101a7578063a9059cbb146101c3578063dd62ed3e146101df576100a7565b806306fdde03146100ab578063095ea7b3146100c957806318160ddd146100e557806323b872dd14610103578063313ce5671461011f575b5f80fd5b6100b361020f565b6040516100c09190610b48565b60405180910390f35b6100e360048036038101906100de9190610bf9565b61029f565b005b6100ed6102ae565b6040516100fa9190610c46565b60405180910390f35b61011d60048036038101906101189190610c5f565b6102b6565b005b6101276104ae565b6040516101349190610c46565b60405180910390f35b61015760048036038101906101529190610caf565b6104b6565b6040516101649190610c46565b60405180910390f35b61018760048036038101906101829190610cda565b6104fc565b005b610191610669565b60405161019e9190610b48565b60405180910390f35b6101c160048036038101906101bc9190610bf9565b6106f9565b005b6101dd60048036038101906101d89190610bf9565b610801565b005b6101f960048036038101906101f49190610d18565b61096a565b6040516102069190610c46565b60405180910390f35b60606004805461021e90610d83565b80601f016020809104026020016040519081016040528092919081815260200182805461024a90610d83565b80156102955780601f1061026c57610100808354040283529160200191610295565b820191905f5260205f20905b81548152906001019060200180831161027857829003601f168201915b5050505050905090565b6102aa3383836109ec565b5050565b5f8054905090565b8281806102c2836104b6565b1015610303576040517f08c379a00000000000000000000000000000000000000000000000000000000081526004016102fa90610dfd565b60405180910390fd5b61030e858585610ad3565b8260035f8773ffffffffffffffffffffffffffffffffffffffff1673ffffffffffffffffffffffffffffffffffffffff1681526020019081526020015f205f3373ffffffffffffffffffffffffffffffffffffffff1673ffffffffffffffffffffffffffffffffffffffff1681526020019081526020015f205f8282546103959190610e48565b925050819055508260025f8773ffffffffffffffffffffffffffffffffffffffff1673ffffffffffffffffffffffffffffffffffffffff1681526020019081526020015f205f8282546103e89190610e48565b925050819055508260025f8673ffffffffffffffffffffffffffffffffffffffff1673ffffffffffffffffffffffffffffffffffffffff1681526020019081526020015f205f82825461043b9190610e7b565b925050819055508373ffffffffffffffffffffffffffffffffffffffff168573ffffffffffffffffffffffffffffffffffffffff167fddf252ad1be2c89b69c2b068fc378daa952ba7f163c4a11628f55a4df523b3ef8560405161049f9190610c46565b60405180910390a35050505050565b5f6012905090565b5f60025f8373ffffffffffffffffffffffffffffffffffffffff1673ffffffffffffffffffffffffffffffffffffffff1681526020019081526020015f20549050919050565b60015f9054906101000a900473ffffffffffffffffffffffffffffffffffffffff1673ffffffffffffffffffffffffffffffffffffffff163373ffffffffffffffffffffffffffffffffffffffff161461058b576040517f08c379a000000000000000000000000000000000000000000000000000000000815260040161058290610ef8565b60405180910390fd5b6105965f8284610ad3565b8160025f8373ffffffffffffffffffffffffffffffffffffffff1673ffffffffffffffffffffffffffffffffffffffff1681526020019081526020015f205f8282546105e29190610e7b565b92505081905550815f808282546105f99190610e7b565b925050819055508073ffffffffffffffffffffffffffffffffffffffff165f73ffffffffffffffffffffffffffffffffffffffff167fddf252ad1be2c89b69c2b068fc378daa952ba7f163c4a11628f55a4df523b3ef8460405161065d9190610c46565b60405180910390a35050565b60606005805461067890610d83565b80601f01602080910402602001604051908101604052809291908181526020018280546106a490610d83565b80156106ef5780601f106106c6576101008083540402835291602001916106ef565b820191905f5260205f20905b8154815290600101906020018083116106d257829003601f168201915b5050505050905090565b60015f9054906101000a900473ffffffffffffffffffffffffffffffffffffffff1673ffffffffffffffffffffffffffffffffffffffff163373ffffffffffffffffffffffffffffffffffffffff1614610788576040517f08c379a000000000000000000000000000000000000000000000000000000000815260040161077f90610ef8565b60405180910390fd5b610793825f83610ad3565b8060025f8473ffffffffffffffffffffffffffffffffffffffff1673ffffffffffffffffffffffffffffffffffffffff1681526020019081526020015f205f8282546107df9190610e48565b92505081905550805f808282546107f69190610e48565b925050819055505050565b33818061080d836104b6565b101561084e576040517f08c379a000000000000000000000000000000000000000000000000000000000815260040161084590610dfd565b60405180910390fd5b610859338585610ad3565b8260025f3373ffffffffffffffffffffffffffffffffffffffff1673ffffffffffffffffffffffffffffffffffffffff1681526020019081526020015f205f8282546108a59190610e48565b925050819055508260025f8673ffffffffffffffffffffffffffffffffffffffff1673ffffffffffffffffffffffffffffffffffffffff1681526020019081526020015f205f8282546108f89190610e7b565b925050819055508373ffffffffffffffffffffffffffffffffffffffff163373ffffffffffffffffffffffffffffffffffffffff167fddf252ad1be2c89b69c2b068fc378daa952ba7f163c4a11628f55a4df523b3ef8560405161095c9190610c46565b60405180910390a350505050565b5f60035f8473ffffffffffffffffffffffffffffffffffffffff1673ffffffffffffffffffffffffffffffffffffffff1681526020019081526020015f205f8373ffffffffffffffffffffffffffffffffffffffff1673ffffffffffffffffffffffffffffffffffffffff1681526020019081526020015f2054905092915050565b8060035f8573ffffffffffffffffffffffffffffffffffffffff1673ffffffffffffffffffffffffffffffffffffffff1681526020019081526020015f205f8473ffffffffffffffffffffffffffffffffffffffff1673ffffffffffffffffffffffffffffffffffffffff1681526020019081526020015f20819055508173ffffffffffffffffffffffffffffffffffffffff168373ffffffffffffffffffffffffffffffffffffffff167f6e11fb1b7f119e3f2fa29896ef5fdf8b8a2d0d4df6fe90ba8668e7d8b2ffa25e83604051610ac69190610c46565b60405180910390a3505050565b505050565b5f81519050919050565b5f82825260208201905092915050565b8281835e5f83830152505050565b5f601f19601f8301169050919050565b5f610b1a82610ad8565b610b248185610ae2565b9350610b34818560208601610af2565b610b3d81610b00565b840191505092915050565b5f6020820190508181035f830152610b608184610b10565b905092915050565b5f80fd5b5f73ffffffffffffffffffffffffffffffffffffffff82169050919050565b5f610b9582610b6c565b9050919050565b610ba581610b8b565b8114610baf575f80fd5b50565b5f81359050610bc081610b9c565b92915050565b5f819050919050565b610bd881610bc6565b8114610be2575f80fd5b50565b5f81359050610bf381610bcf565b92915050565b5f8060408385031215610c0f57610c0e610b68565b5b5f610c1c85828601610bb2565b9250506020610c2d85828601610be5565b9150509250929050565b610c4081610bc6565b82525050565b5f602082019050610c595f830184610c37565b92915050565b5f805f60608486031215610c7657610c75610b68565b5b5f610c8386828701610bb2565b9350506020610c9486828701610bb2565b9250506040610ca586828701610be5565b9150509250925092565b5f60208284031215610cc457610cc3610b68565b5b5f610cd184828501610bb2565b91505092915050565b5f8060408385031215610cf057610cef610b68565b5b5f610cfd85828601610be5565b9250506020610d0e85828601610bb2565b9150509250929050565b5f8060408385031215610d2e57610d2d610b68565b5b5f610d3b85828601610bb2565b9250506020610d4c85828601610bb2565b9150509250929050565b7f4e487b71000000000000000000000000000000000000000000000000000000005f52602260045260245ffd5b5f6002820490506001821680610d9a57607f821691505b602082108103610dad57610dac610d56565b5b50919050565b7f6e6f7420656e6f75676820746f6b656e732100000000000000000000000000005f82015250565b5f610de7601283610ae2565b9150610df282610db3565b602082019050919050565b5f6020820190508181035f830152610e1481610ddb565b9050919050565b7f4e487b71000000000000000000000000000000000000000000000000000000005f52601160045260245ffd5b5f610e5282610bc6565b9150610e5d83610bc6565b9250828203905081811115610e7557610e74610e1b565b5b92915050565b5f610e8582610bc6565b9150610e9083610bc6565b9250828201905080821115610ea857610ea7610e1b565b5b92915050565b7f6e6f7420616e206f776e657221000000000000000000000000000000000000005f82015250565b5f610ee2600d83610ae2565b9150610eed82610eae565b602082019050919050565b5f6020820190508181035f830152610f0f81610ed6565b905091905056fea2646970667358221220cd70206746b47a3abd11b35722d78cae2c79f671bbb8b825a527bf3aad6951cd64736f6c63430008190033",
					"opcodes": "PUSH1 0x80 PUSH1 0x40 MSTORE CALLVALUE DUP1 ISZERO PUSH2 0xF JUMPI PUSH0 DUP1 REVERT JUMPDEST POP PUSH1 0x40 MLOAD PUSH2 0x17C4 CODESIZE SUB DUP1 PUSH2 0x17C4 DUP4 CODECOPY DUP2 DUP2 ADD PUSH1 0x40 MSTORE DUP2 ADD SWAP1 PUSH2 0x31 SWAP2 SWAP1 PUSH2 0x3FC JUMP JUMPDEST DUP4 PUSH1 0x4 SWAP1 DUP2 PUSH2 0x40 SWAP2 SWAP1 PUSH2 0x69C JUMP JUMPDEST POP DUP3 PUSH1 0x5 SWAP1 DUP2 PUSH2 0x50 SWAP2 SWAP1 PUSH2 0x69C JUMP JUMPDEST POP CALLER PUSH1 0x1 PUSH0 PUSH2 0x100 EXP DUP2 SLOAD DUP2 PUSH20 0xFFFFFFFFFFFFFFFFFFFFFFFFFFFFFFFFFFFFFFFF MUL NOT AND SWAP1 DUP4 PUSH20 0xFFFFFFFFFFFFFFFFFFFFFFFFFFFFFFFFFFFFFFFF AND MUL OR SWAP1 SSTORE POP PUSH2 0xA1 DUP3 DUP3 PUSH2 0xAA PUSH1 0x20 SHL PUSH1 0x20 SHR JUMP JUMPDEST POP POP POP POP PUSH2 0x86B JUMP JUMPDEST PUSH1 0x1 PUSH0 SWAP1 SLOAD SWAP1 PUSH2 0x100 EXP SWAP1 DIV PUSH20 0xFFFFFFFFFFFFFFFFFFFFFFFFFFFFFFFFFFFFFFFF AND PUSH20 0xFFFFFFFFFFFFFFFFFFFFFFFFFFFFFFFFFFFFFFFF AND CALLER PUSH20 0xFFFFFFFFFFFFFFFFFFFFFFFFFFFFFFFFFFFFFFFF AND EQ PUSH2 0x139 JUMPI PUSH1 0x40 MLOAD PUSH32 0x8C379A000000000000000000000000000000000000000000000000000000000 DUP2 MSTORE PUSH1 0x4 ADD PUSH2 0x130 SWAP1 PUSH2 0x7C5 JUMP JUMPDEST PUSH1 0x40 MLOAD DUP1 SWAP2 SUB SWAP1 REVERT JUMPDEST PUSH2 0x14A PUSH0 DUP3 DUP5 PUSH2 0x21D PUSH1 0x20 SHL PUSH1 0x20 SHR JUMP JUMPDEST DUP2 PUSH1 0x2 PUSH0 DUP4 PUSH20 0xFFFFFFFFFFFFFFFFFFFFFFFFFFFFFFFFFFFFFFFF AND PUSH20 0xFFFFFFFFFFFFFFFFFFFFFFFFFFFFFFFFFFFFFFFF AND DUP2 MSTORE PUSH1 0x20 ADD SWAP1 DUP2 MSTORE PUSH1 0x20 ADD PUSH0 KECCAK256 PUSH0 DUP3 DUP3 SLOAD PUSH2 0x196 SWAP2 SWAP1 PUSH2 0x810 JUMP JUMPDEST SWAP3 POP POP DUP2 SWAP1 SSTORE POP DUP2 PUSH0 DUP1 DUP3 DUP3 SLOAD PUSH2 0x1AD SWAP2 SWAP1 PUSH2 0x810 JUMP JUMPDEST SWAP3 POP POP DUP2 SWAP1 SSTORE POP DUP1 PUSH20 0xFFFFFFFFFFFFFFFFFFFFFFFFFFFFFFFFFFFFFFFF AND PUSH0 PUSH20 0xFFFFFFFFFFFFFFFFFFFFFFFFFFFFFFFFFFFFFFFF AND PUSH32 0xDDF252AD1BE2C89B69C2B068FC378DAA952BA7F163C4A11628F55A4DF523B3EF DUP5 PUSH1 0x40 MLOAD PUSH2 0x211 SWAP2 SWAP1 PUSH2 0x852 JUMP JUMPDEST PUSH1 0x40 MLOAD DUP1 SWAP2 SUB SWAP1 LOG3 POP POP JUMP JUMPDEST POP POP POP JUMP JUMPDEST PUSH0 PUSH1 0x40 MLOAD SWAP1 POP SWAP1 JUMP JUMPDEST PUSH0 DUP1 REVERT JUMPDEST PUSH0 DUP1 REVERT JUMPDEST PUSH0 DUP1 REVERT JUMPDEST PUSH0 DUP1 REVERT JUMPDEST PUSH0 PUSH1 0x1F NOT PUSH1 0x1F DUP4 ADD AND SWAP1 POP SWAP2 SWAP1 POP JUMP JUMPDEST PUSH32 0x4E487B7100000000000000000000000000000000000000000000000000000000 PUSH0 MSTORE PUSH1 0x41 PUSH1 0x4 MSTORE PUSH1 0x24 PUSH0 REVERT JUMPDEST PUSH2 0x281 DUP3 PUSH2 0x23B JUMP JUMPDEST DUP2 ADD DUP2 DUP2 LT PUSH8 0xFFFFFFFFFFFFFFFF DUP3 GT OR ISZERO PUSH2 0x2A0 JUMPI PUSH2 0x29F PUSH2 0x24B JUMP JUMPDEST JUMPDEST DUP1 PUSH1 0x40 MSTORE POP POP POP JUMP JUMPDEST PUSH0 PUSH2 0x2B2 PUSH2 0x222 JUMP JUMPDEST SWAP1 POP PUSH2 0x2BE DUP3 DUP3 PUSH2 0x278 JUMP JUMPDEST SWAP2 SWAP1 POP JUMP JUMPDEST PUSH0 PUSH8 0xFFFFFFFFFFFFFFFF DUP3 GT ISZERO PUSH2 0x2DD JUMPI PUSH2 0x2DC PUSH2 0x24B JUMP JUMPDEST JUMPDEST PUSH2 0x2E6 DUP3 PUSH2 0x23B JUMP JUMPDEST SWAP1 POP PUSH1 0x20 DUP2 ADD SWAP1 POP SWAP2 SWAP1 POP JUMP JUMPDEST DUP3 DUP2 DUP4 MCOPY PUSH0 DUP4 DUP4 ADD MSTORE POP POP POP JUMP JUMPDEST PUSH0 PUSH2 0x313 PUSH2 0x30E DUP5 PUSH2 0x2C3 JUMP JUMPDEST PUSH2 0x2A9 JUMP JUMPDEST SWAP1 POP DUP3 DUP2 MSTORE PUSH1 0x20 DUP2 ADD DUP5 DUP5 DUP5 ADD GT ISZERO PUSH2 0x32F JUMPI PUSH2 0x32E PUSH2 0x237 JUMP JUMPDEST JUMPDEST PUSH2 0x33A DUP5 DUP3 DUP6 PUSH2 0x2F3 JUMP JUMPDEST POP SWAP4 SWAP3 POP POP POP JUMP JUMPDEST PUSH0 DUP3 PUSH1 0x1F DUP4 ADD SLT PUSH2 0x356 JUMPI PUSH2 0x355 PUSH2 0x233 JUMP JUMPDEST JUMPDEST DUP2 MLOAD PUSH2 0x366 DUP5 DUP3 PUSH1 0x20 DUP7 ADD PUSH2 0x301 JUMP JUMPDEST SWAP2 POP POP SWAP3 SWAP2 POP POP JUMP JUMPDEST PUSH0 DUP2 SWAP1 POP SWAP2 SWAP1 POP JUMP JUMPDEST PUSH2 0x381 DUP2 PUSH2 0x36F JUMP JUMPDEST DUP2 EQ PUSH2 0x38B JUMPI PUSH0 DUP1 REVERT JUMPDEST POP JUMP JUMPDEST PUSH0 DUP2 MLOAD SWAP1 POP PUSH2 0x39C DUP2 PUSH2 0x378 JUMP JUMPDEST SWAP3 SWAP2 POP POP JUMP JUMPDEST PUSH0 PUSH20 0xFFFFFFFFFFFFFFFFFFFFFFFFFFFFFFFFFFFFFFFF DUP3 AND SWAP1 POP SWAP2 SWAP1 POP JUMP JUMPDEST PUSH0 PUSH2 0x3CB DUP3 PUSH2 0x3A2 JUMP JUMPDEST SWAP1 POP SWAP2 SWAP1 POP JUMP JUMPDEST PUSH2 0x3DB DUP2 PUSH2 0x3C1 JUMP JUMPDEST DUP2 EQ PUSH2 0x3E5 JUMPI PUSH0 DUP1 REVERT JUMPDEST POP JUMP JUMPDEST PUSH0 DUP2 MLOAD SWAP1 POP PUSH2 0x3F6 DUP2 PUSH2 0x3D2 JUMP JUMPDEST SWAP3 SWAP2 POP POP JUMP JUMPDEST PUSH0 DUP1 PUSH0 DUP1 PUSH1 0x80 DUP6 DUP8 SUB SLT ISZERO PUSH2 0x414 JUMPI PUSH2 0x413 PUSH2 0x22B JUMP JUMPDEST JUMPDEST PUSH0 DUP6 ADD MLOAD PUSH8 0xFFFFFFFFFFFFFFFF DUP2 GT ISZERO PUSH2 0x431 JUMPI PUSH2 0x430 PUSH2 0x22F JUMP JUMPDEST JUMPDEST PUSH2 0x43D DUP8 DUP3 DUP9 ADD PUSH2 0x342 JUMP JUMPDEST SWAP5 POP POP PUSH1 0x20 DUP6 ADD MLOAD PUSH8 0xFFFFFFFFFFFFFFFF DUP2 GT ISZERO PUSH2 0x45E JUMPI PUSH2 0x45D PUSH2 0x22F JUMP JUMPDEST JUMPDEST PUSH2 0x46A DUP8 DUP3 DUP9 ADD PUSH2 0x342 JUMP JUMPDEST SWAP4 POP POP PUSH1 0x40 PUSH2 0x47B DUP8 DUP3 DUP9 ADD PUSH2 0x38E JUMP JUMPDEST SWAP3 POP POP PUSH1 0x60 PUSH2 0x48C DUP8 DUP3 DUP9 ADD PUSH2 0x3E8 JUMP JUMPDEST SWAP2 POP POP SWAP3 SWAP6 SWAP2 SWAP5 POP SWAP3 POP JUMP JUMPDEST PUSH0 DUP2 MLOAD SWAP1 POP SWAP2 SWAP1 POP JUMP JUMPDEST PUSH32 0x4E487B7100000000000000000000000000000000000000000000000000000000 PUSH0 MSTORE PUSH1 0x22 PUSH1 0x4 MSTORE PUSH1 0x24 PUSH0 REVERT JUMPDEST PUSH0 PUSH1 0x2 DUP3 DIV SWAP1 POP PUSH1 0x1 DUP3 AND DUP1 PUSH2 0x4E6 JUMPI PUSH1 0x7F DUP3 AND SWAP2 POP JUMPDEST PUSH1 0x20 DUP3 LT DUP2 SUB PUSH2 0x4F9 JUMPI PUSH2 0x4F8 PUSH2 0x4A2 JUMP JUMPDEST JUMPDEST POP SWAP2 SWAP1 POP JUMP JUMPDEST PUSH0 DUP2 SWAP1 POP DUP2 PUSH0 MSTORE PUSH1 0x20 PUSH0 KECCAK256 SWAP1 POP SWAP2 SWAP1 POP JUMP JUMPDEST PUSH0 PUSH1 0x20 PUSH1 0x1F DUP4 ADD DIV SWAP1 POP SWAP2 SWAP1 POP JUMP JUMPDEST PUSH0 DUP3 DUP3 SHL SWAP1 POP SWAP3 SWAP2 POP POP JUMP JUMPDEST PUSH0 PUSH1 0x8 DUP4 MUL PUSH2 0x55B PUSH32 0xFFFFFFFFFFFFFFFFFFFFFFFFFFFFFFFFFFFFFFFFFFFFFFFFFFFFFFFFFFFFFFFF DUP3 PUSH2 0x520 JUMP JUMPDEST PUSH2 0x565 DUP7 DUP4 PUSH2 0x520 JUMP JUMPDEST SWAP6 POP DUP1 NOT DUP5 AND SWAP4 POP DUP1 DUP7 AND DUP5 OR SWAP3 POP POP POP SWAP4 SWAP3 POP POP POP JUMP JUMPDEST PUSH0 DUP2 SWAP1 POP SWAP2 SWAP1 POP JUMP JUMPDEST PUSH0 PUSH2 0x5A0 PUSH2 0x59B PUSH2 0x596 DUP5 PUSH2 0x36F JUMP JUMPDEST PUSH2 0x57D JUMP JUMPDEST PUSH2 0x36F JUMP JUMPDEST SWAP1 POP SWAP2 SWAP1 POP JUMP JUMPDEST PUSH0 DUP2 SWAP1 POP SWAP2 SWAP1 POP JUMP JUMPDEST PUSH2 0x5B9 DUP4 PUSH2 0x586 JUMP JUMPDEST PUSH2 0x5CD PUSH2 0x5C5 DUP3 PUSH2 0x5A7 JUMP JUMPDEST DUP5 DUP5 SLOAD PUSH2 0x52C JUMP JUMPDEST DUP3 SSTORE POP POP POP POP JUMP JUMPDEST PUSH0 SWAP1 JUMP JUMPDEST PUSH2 0x5E1 PUSH2 0x5D5 JUMP JUMPDEST PUSH2 0x5EC DUP2 DUP5 DUP5 PUSH2 0x5B0 JUMP JUMPDEST POP POP POP JUMP JUMPDEST JUMPDEST DUP2 DUP2 LT ISZERO PUSH2 0x60F JUMPI PUSH2 0x604 PUSH0 DUP3 PUSH2 0x5D9 JUMP JUMPDEST PUSH1 0x1 DUP2 ADD SWAP1 POP PUSH2 0x5F2 JUMP JUMPDEST POP POP JUMP JUMPDEST PUSH1 0x1F DUP3 GT ISZERO PUSH2 0x654 JUMPI PUSH2 0x625 DUP2 PUSH2 0x4FF JUMP JUMPDEST PUSH2 0x62E DUP5 PUSH2 0x511 JUMP JUMPDEST DUP2 ADD PUSH1 0x20 DUP6 LT ISZERO PUSH2 0x63D JUMPI DUP2 SWAP1 POP JUMPDEST PUSH2 0x651 PUSH2 0x649 DUP6 PUSH2 0x511 JUMP JUMPDEST DUP4 ADD DUP3 PUSH2 0x5F1 JUMP JUMPDEST POP POP JUMPDEST POP POP POP JUMP JUMPDEST PUSH0 DUP3 DUP3 SHR SWAP1 POP SWAP3 SWAP2 POP POP JUMP JUMPDEST PUSH0 PUSH2 0x674 PUSH0 NOT DUP5 PUSH1 0x8 MUL PUSH2 0x659 JUMP JUMPDEST NOT DUP1 DUP4 AND SWAP2 POP POP SWAP3 SWAP2 POP POP JUMP JUMPDEST PUSH0 PUSH2 0x68C DUP4 DUP4 PUSH2 0x665 JUMP JUMPDEST SWAP2 POP DUP3 PUSH1 0x2 MUL DUP3 OR SWAP1 POP SWAP3 SWAP2 POP POP JUMP JUMPDEST PUSH2 0x6A5 DUP3 PUSH2 0x498 JUMP JUMPDEST PUSH8 0xFFFFFFFFFFFFFFFF DUP2 GT ISZERO PUSH2 0x6BE JUMPI PUSH2 0x6BD PUSH2 0x24B JUMP JUMPDEST JUMPDEST PUSH2 0x6C8 DUP3 SLOAD PUSH2 0x4CF JUMP JUMPDEST PUSH2 0x6D3 DUP3 DUP3 DUP6 PUSH2 0x613 JUMP JUMPDEST PUSH0 PUSH1 0x20 SWAP1 POP PUSH1 0x1F DUP4 GT PUSH1 0x1 DUP2 EQ PUSH2 0x704 JUMPI PUSH0 DUP5 ISZERO PUSH2 0x6F2 JUMPI DUP3 DUP8 ADD MLOAD SWAP1 POP JUMPDEST PUSH2 0x6FC DUP6 DUP3 PUSH2 0x681 JUMP JUMPDEST DUP7 SSTORE POP PUSH2 0x763 JUMP JUMPDEST PUSH1 0x1F NOT DUP5 AND PUSH2 0x712 DUP7 PUSH2 0x4FF JUMP JUMPDEST PUSH0 JUMPDEST DUP3 DUP2 LT ISZERO PUSH2 0x739 JUMPI DUP5 DUP10 ADD MLOAD DUP3 SSTORE PUSH1 0x1 DUP3 ADD SWAP2 POP PUSH1 0x20 DUP6 ADD SWAP5 POP PUSH1 0x20 DUP2 ADD SWAP1 POP PUSH2 0x714 JUMP JUMPDEST DUP7 DUP4 LT ISZERO PUSH2 0x756 JUMPI DUP5 DUP10 ADD MLOAD PUSH2 0x752 PUSH1 0x1F DUP10 AND DUP3 PUSH2 0x665 JUMP JUMPDEST DUP4 SSTORE POP JUMPDEST PUSH1 0x1 PUSH1 0x2 DUP9 MUL ADD DUP9 SSTORE POP POP POP JUMPDEST POP POP POP POP POP POP JUMP JUMPDEST PUSH0 DUP3 DUP3 MSTORE PUSH1 0x20 DUP3 ADD SWAP1 POP SWAP3 SWAP2 POP POP JUMP JUMPDEST PUSH32 0x6E6F7420616E206F776E65722100000000000000000000000000000000000000 PUSH0 DUP3 ADD MSTORE POP JUMP JUMPDEST PUSH0 PUSH2 0x7AF PUSH1 0xD DUP4 PUSH2 0x76B JUMP JUMPDEST SWAP2 POP PUSH2 0x7BA DUP3 PUSH2 0x77B JUMP JUMPDEST PUSH1 0x20 DUP3 ADD SWAP1 POP SWAP2 SWAP1 POP JUMP JUMPDEST PUSH0 PUSH1 0x20 DUP3 ADD SWAP1 POP DUP2 DUP2 SUB PUSH0 DUP4 ADD MSTORE PUSH2 0x7DC DUP2 PUSH2 0x7A3 JUMP JUMPDEST SWAP1 POP SWAP2 SWAP1 POP JUMP JUMPDEST PUSH32 0x4E487B7100000000000000000000000000000000000000000000000000000000 PUSH0 MSTORE PUSH1 0x11 PUSH1 0x4 MSTORE PUSH1 0x24 PUSH0 REVERT JUMPDEST PUSH0 PUSH2 0x81A DUP3 PUSH2 0x36F JUMP JUMPDEST SWAP2 POP PUSH2 0x825 DUP4 PUSH2 0x36F JUMP JUMPDEST SWAP3 POP DUP3 DUP3 ADD SWAP1 POP DUP1 DUP3 GT ISZERO PUSH2 0x83D JUMPI PUSH2 0x83C PUSH2 0x7E3 JUMP JUMPDEST JUMPDEST SWAP3 SWAP2 POP POP JUMP JUMPDEST PUSH2 0x84C DUP2 PUSH2 0x36F JUMP JUMPDEST DUP3 MSTORE POP POP JUMP JUMPDEST PUSH0 PUSH1 0x20 DUP3 ADD SWAP1 POP PUSH2 0x865 PUSH0 DUP4 ADD DUP5 PUSH2 0x843 JUMP JUMPDEST SWAP3 SWAP2 POP POP JUMP JUMPDEST PUSH2 0xF4C DUP1 PUSH2 0x878 PUSH0 CODECOPY PUSH0 RETURN INVALID PUSH1 0x80 PUSH1 0x40 MSTORE CALLVALUE DUP1 ISZERO PUSH2 0xF JUMPI PUSH0 DUP1 REVERT JUMPDEST POP PUSH1 0x4 CALLDATASIZE LT PUSH2 0xA7 JUMPI PUSH0 CALLDATALOAD PUSH1 0xE0 SHR DUP1 PUSH4 0x70A08231 GT PUSH2 0x6F JUMPI DUP1 PUSH4 0x70A08231 EQ PUSH2 0x13D JUMPI DUP1 PUSH4 0x94BF804D EQ PUSH2 0x16D JUMPI DUP1 PUSH4 0x95D89B41 EQ PUSH2 0x189 JUMPI DUP1 PUSH4 0x9DC29FAC EQ PUSH2 0x1A7 JUMPI DUP1 PUSH4 0xA9059CBB EQ PUSH2 0x1C3 JUMPI DUP1 PUSH4 0xDD62ED3E EQ PUSH2 0x1DF JUMPI PUSH2 0xA7 JUMP JUMPDEST DUP1 PUSH4 0x6FDDE03 EQ PUSH2 0xAB JUMPI DUP1 PUSH4 0x95EA7B3 EQ PUSH2 0xC9 JUMPI DUP1 PUSH4 0x18160DDD EQ PUSH2 0xE5 JUMPI DUP1 PUSH4 0x23B872DD EQ PUSH2 0x103 JUMPI DUP1 PUSH4 0x313CE567 EQ PUSH2 0x11F JUMPI JUMPDEST PUSH0 DUP1 REVERT JUMPDEST PUSH2 0xB3 PUSH2 0x20F JUMP JUMPDEST PUSH1 0x40 MLOAD PUSH2 0xC0 SWAP2 SWAP1 PUSH2 0xB48 JUMP JUMPDEST PUSH1 0x40 MLOAD DUP1 SWAP2 SUB SWAP1 RETURN JUMPDEST PUSH2 0xE3 PUSH1 0x4 DUP1 CALLDATASIZE SUB DUP2 ADD SWAP1 PUSH2 0xDE SWAP2 SWAP1 PUSH2 0xBF9 JUMP JUMPDEST PUSH2 0x29F JUMP JUMPDEST STOP JUMPDEST PUSH2 0xED PUSH2 0x2AE JUMP JUMPDEST PUSH1 0x40 MLOAD PUSH2 0xFA SWAP2 SWAP1 PUSH2 0xC46 JUMP JUMPDEST PUSH1 0x40 MLOAD DUP1 SWAP2 SUB SWAP1 RETURN JUMPDEST PUSH2 0x11D PUSH1 0x4 DUP1 CALLDATASIZE SUB DUP2 ADD SWAP1 PUSH2 0x118 SWAP2 SWAP1 PUSH2 0xC5F JUMP JUMPDEST PUSH2 0x2B6 JUMP JUMPDEST STOP JUMPDEST PUSH2 0x127 PUSH2 0x4AE JUMP JUMPDEST PUSH1 0x40 MLOAD PUSH2 0x134 SWAP2 SWAP1 PUSH2 0xC46 JUMP JUMPDEST PUSH1 0x40 MLOAD DUP1 SWAP2 SUB SWAP1 RETURN JUMPDEST PUSH2 0x157 PUSH1 0x4 DUP1 CALLDATASIZE SUB DUP2 ADD SWAP1 PUSH2 0x152 SWAP2 SWAP1 PUSH2 0xCAF JUMP JUMPDEST PUSH2 0x4B6 JUMP JUMPDEST PUSH1 0x40 MLOAD PUSH2 0x164 SWAP2 SWAP1 PUSH2 0xC46 JUMP JUMPDEST PUSH1 0x40 MLOAD DUP1 SWAP2 SUB SWAP1 RETURN JUMPDEST PUSH2 0x187 PUSH1 0x4 DUP1 CALLDATASIZE SUB DUP2 ADD SWAP1 PUSH2 0x182 SWAP2 SWAP1 PUSH2 0xCDA JUMP JUMPDEST PUSH2 0x4FC JUMP JUMPDEST STOP JUMPDEST PUSH2 0x191 PUSH2 0x669 JUMP JUMPDEST PUSH1 0x40 MLOAD PUSH2 0x19E SWAP2 SWAP1 PUSH2 0xB48 JUMP JUMPDEST PUSH1 0x40 MLOAD DUP1 SWAP2 SUB SWAP1 RETURN JUMPDEST PUSH2 0x1C1 PUSH1 0x4 DUP1 CALLDATASIZE SUB DUP2 ADD SWAP1 PUSH2 0x1BC SWAP2 SWAP1 PUSH2 0xBF9 JUMP JUMPDEST PUSH2 0x6F9 JUMP JUMPDEST STOP JUMPDEST PUSH2 0x1DD PUSH1 0x4 DUP1 CALLDATASIZE SUB DUP2 ADD SWAP1 PUSH2 0x1D8 SWAP2 SWAP1 PUSH2 0xBF9 JUMP JUMPDEST PUSH2 0x801 JUMP JUMPDEST STOP JUMPDEST PUSH2 0x1F9 PUSH1 0x4 DUP1 CALLDATASIZE SUB DUP2 ADD SWAP1 PUSH2 0x1F4 SWAP2 SWAP1 PUSH2 0xD18 JUMP JUMPDEST PUSH2 0x96A JUMP JUMPDEST PUSH1 0x40 MLOAD PUSH2 0x206 SWAP2 SWAP1 PUSH2 0xC46 JUMP JUMPDEST PUSH1 0x40 MLOAD DUP1 SWAP2 SUB SWAP1 RETURN JUMPDEST PUSH1 0x60 PUSH1 0x4 DUP1 SLOAD PUSH2 0x21E SWAP1 PUSH2 0xD83 JUMP JUMPDEST DUP1 PUSH1 0x1F ADD PUSH1 0x20 DUP1 SWAP2 DIV MUL PUSH1 0x20 ADD PUSH1 0x40 MLOAD SWAP1 DUP2 ADD PUSH1 0x40 MSTORE DUP1 SWAP3 SWAP2 SWAP1 DUP2 DUP2 MSTORE PUSH1 0x20 ADD DUP3 DUP1 SLOAD PUSH2 0x24A SWAP1 PUSH2 0xD83 JUMP JUMPDEST DUP1 ISZERO PUSH2 0x295 JUMPI DUP1 PUSH1 0x1F LT PUSH2 0x26C JUMPI PUSH2 0x100 DUP1 DUP4 SLOAD DIV MUL DUP4 MSTORE SWAP2 PUSH1 0x20 ADD SWAP2 PUSH2 0x295 JUMP JUMPDEST DUP3 ADD SWAP2 SWAP1 PUSH0 MSTORE PUSH1 0x20 PUSH0 KECCAK256 SWAP1 JUMPDEST DUP2 SLOAD DUP2 MSTORE SWAP1 PUSH1 0x1 ADD SWAP1 PUSH1 0x20 ADD DUP1 DUP4 GT PUSH2 0x278 JUMPI DUP3 SWAP1 SUB PUSH1 0x1F AND DUP3 ADD SWAP2 JUMPDEST POP POP POP POP POP SWAP1 POP SWAP1 JUMP JUMPDEST PUSH2 0x2AA CALLER DUP4 DUP4 PUSH2 0x9EC JUMP JUMPDEST POP POP JUMP JUMPDEST PUSH0 DUP1 SLOAD SWAP1 POP SWAP1 JUMP JUMPDEST DUP3 DUP2 DUP1 PUSH2 0x2C2 DUP4 PUSH2 0x4B6 JUMP JUMPDEST LT ISZERO PUSH2 0x303 JUMPI PUSH1 0x40 MLOAD PUSH32 0x8C379A000000000000000000000000000000000000000000000000000000000 DUP2 MSTORE PUSH1 0x4 ADD PUSH2 0x2FA SWAP1 PUSH2 0xDFD JUMP JUMPDEST PUSH1 0x40 MLOAD DUP1 SWAP2 SUB SWAP1 REVERT JUMPDEST PUSH2 0x30E DUP6 DUP6 DUP6 PUSH2 0xAD3 JUMP JUMPDEST DUP3 PUSH1 0x3 PUSH0 DUP8 PUSH20 0xFFFFFFFFFFFFFFFFFFFFFFFFFFFFFFFFFFFFFFFF AND PUSH20 0xFFFFFFFFFFFFFFFFFFFFFFFFFFFFFFFFFFFFFFFF AND DUP2 MSTORE PUSH1 0x20 ADD SWAP1 DUP2 MSTORE PUSH1 0x20 ADD PUSH0 KECCAK256 PUSH0 CALLER PUSH20 0xFFFFFFFFFFFFFFFFFFFFFFFFFFFFFFFFFFFFFFFF AND PUSH20 0xFFFFFFFFFFFFFFFFFFFFFFFFFFFFFFFFFFFFFFFF AND DUP2 MSTORE PUSH1 0x20 ADD SWAP1 DUP2 MSTORE PUSH1 0x20 ADD PUSH0 KECCAK256 PUSH0 DUP3 DUP3 SLOAD PUSH2 0x395 SWAP2 SWAP1 PUSH2 0xE48 JUMP JUMPDEST SWAP3 POP POP DUP2 SWAP1 SSTORE POP DUP3 PUSH1 0x2 PUSH0 DUP8 PUSH20 0xFFFFFFFFFFFFFFFFFFFFFFFFFFFFFFFFFFFFFFFF AND PUSH20 0xFFFFFFFFFFFFFFFFFFFFFFFFFFFFFFFFFFFFFFFF AND DUP2 MSTORE PUSH1 0x20 ADD SWAP1 DUP2 MSTORE PUSH1 0x20 ADD PUSH0 KECCAK256 PUSH0 DUP3 DUP3 SLOAD PUSH2 0x3E8 SWAP2 SWAP1 PUSH2 0xE48 JUMP JUMPDEST SWAP3 POP POP DUP2 SWAP1 SSTORE POP DUP3 PUSH1 0x2 PUSH0 DUP7 PUSH20 0xFFFFFFFFFFFFFFFFFFFFFFFFFFFFFFFFFFFFFFFF AND PUSH20 0xFFFFFFFFFFFFFFFFFFFFFFFFFFFFFFFFFFFFFFFF AND DUP2 MSTORE PUSH1 0x20 ADD SWAP1 DUP2 MSTORE PUSH1 0x20 ADD PUSH0 KECCAK256 PUSH0 DUP3 DUP3 SLOAD PUSH2 0x43B SWAP2 SWAP1 PUSH2 0xE7B JUMP JUMPDEST SWAP3 POP POP DUP2 SWAP1 SSTORE POP DUP4 PUSH20 0xFFFFFFFFFFFFFFFFFFFFFFFFFFFFFFFFFFFFFFFF AND DUP6 PUSH20 0xFFFFFFFFFFFFFFFFFFFFFFFFFFFFFFFFFFFFFFFF AND PUSH32 0xDDF252AD1BE2C89B69C2B068FC378DAA952BA7F163C4A11628F55A4DF523B3EF DUP6 PUSH1 0x40 MLOAD PUSH2 0x49F SWAP2 SWAP1 PUSH2 0xC46 JUMP JUMPDEST PUSH1 0x40 MLOAD DUP1 SWAP2 SUB SWAP1 LOG3 POP POP POP POP POP JUMP JUMPDEST PUSH0 PUSH1 0x12 SWAP1 POP SWAP1 JUMP JUMPDEST PUSH0 PUSH1 0x2 PUSH0 DUP4 PUSH20 0xFFFFFFFFFFFFFFFFFFFFFFFFFFFFFFFFFFFFFFFF AND PUSH20 0xFFFFFFFFFFFFFFFFFFFFFFFFFFFFFFFFFFFFFFFF AND DUP2 MSTORE PUSH1 0x20 ADD SWAP1 DUP2 MSTORE PUSH1 0x20 ADD PUSH0 KECCAK256 SLOAD SWAP1 POP SWAP2 SWAP1 POP JUMP JUMPDEST PUSH1 0x1 PUSH0 SWAP1 SLOAD SWAP1 PUSH2 0x100 EXP SWAP1 DIV PUSH20 0xFFFFFFFFFFFFFFFFFFFFFFFFFFFFFFFFFFFFFFFF AND PUSH20 0xFFFFFFFFFFFFFFFFFFFFFFFFFFFFFFFFFFFFFFFF AND CALLER PUSH20 0xFFFFFFFFFFFFFFFFFFFFFFFFFFFFFFFFFFFFFFFF AND EQ PUSH2 0x58B JUMPI PUSH1 0x40 MLOAD PUSH32 0x8C379A000000000000000000000000000000000000000000000000000000000 DUP2 MSTORE PUSH1 0x4 ADD PUSH2 0x582 SWAP1 PUSH2 0xEF8 JUMP JUMPDEST PUSH1 0x40 MLOAD DUP1 SWAP2 SUB SWAP1 REVERT JUMPDEST PUSH2 0x596 PUSH0 DUP3 DUP5 PUSH2 0xAD3 JUMP JUMPDEST DUP2 PUSH1 0x2 PUSH0 DUP4 PUSH20 0xFFFFFFFFFFFFFFFFFFFFFFFFFFFFFFFFFFFFFFFF AND PUSH20 0xFFFFFFFFFFFFFFFFFFFFFFFFFFFFFFFFFFFFFFFF AND DUP2 MSTORE PUSH1 0x20 ADD SWAP1 DUP2 MSTORE PUSH1 0x20 ADD PUSH0 KECCAK256 PUSH0 DUP3 DUP3 SLOAD PUSH2 0x5E2 SWAP2 SWAP1 PUSH2 0xE7B JUMP JUMPDEST SWAP3 POP POP DUP2 SWAP1 SSTORE POP DUP2 PUSH0 DUP1 DUP3 DUP3 SLOAD PUSH2 0x5F9 SWAP2 SWAP1 PUSH2 0xE7B JUMP JUMPDEST SWAP3 POP POP DUP2 SWAP1 SSTORE POP DUP1 PUSH20 0xFFFFFFFFFFFFFFFFFFFFFFFFFFFFFFFFFFFFFFFF AND PUSH0 PUSH20 0xFFFFFFFFFFFFFFFFFFFFFFFFFFFFFFFFFFFFFFFF AND PUSH32 0xDDF252AD1BE2C89B69C2B068FC378DAA952BA7F163C4A11628F55A4DF523B3EF DUP5 PUSH1 0x40 MLOAD PUSH2 0x65D SWAP2 SWAP1 PUSH2 0xC46 JUMP JUMPDEST PUSH1 0x40 MLOAD DUP1 SWAP2 SUB SWAP1 LOG3 POP POP JUMP JUMPDEST PUSH1 0x60 PUSH1 0x5 DUP1 SLOAD PUSH2 0x678 SWAP1 PUSH2 0xD83 JUMP JUMPDEST DUP1 PUSH1 0x1F ADD PUSH1 0x20 DUP1 SWAP2 DIV MUL PUSH1 0x20 ADD PUSH1 0x40 MLOAD SWAP1 DUP2 ADD PUSH1 0x40 MSTORE DUP1 SWAP3 SWAP2 SWAP1 DUP2 DUP2 MSTORE PUSH1 0x20 ADD DUP3 DUP1 SLOAD PUSH2 0x6A4 SWAP1 PUSH2 0xD83 JUMP JUMPDEST DUP1 ISZERO PUSH2 0x6EF JUMPI DUP1 PUSH1 0x1F LT PUSH2 0x6C6 JUMPI PUSH2 0x100 DUP1 DUP4 SLOAD DIV MUL DUP4 MSTORE SWAP2 PUSH1 0x20 ADD SWAP2 PUSH2 0x6EF JUMP JUMPDEST DUP3 ADD SWAP2 SWAP1 PUSH0 MSTORE PUSH1 0x20 PUSH0 KECCAK256 SWAP1 JUMPDEST DUP2 SLOAD DUP2 MSTORE SWAP1 PUSH1 0x1 ADD SWAP1 PUSH1 0x20 ADD DUP1 DUP4 GT PUSH2 0x6D2 JUMPI DUP3 SWAP1 SUB PUSH1 0x1F AND DUP3 ADD SWAP2 JUMPDEST POP POP POP POP POP SWAP1 POP SWAP1 JUMP JUMPDEST PUSH1 0x1 PUSH0 SWAP1 SLOAD SWAP1 PUSH2 0x100 EXP SWAP1 DIV PUSH20 0xFFFFFFFFFFFFFFFFFFFFFFFFFFFFFFFFFFFFFFFF AND PUSH20 0xFFFFFFFFFFFFFFFFFFFFFFFFFFFFFFFFFFFFFFFF AND CALLER PUSH20 0xFFFFFFFFFFFFFFFFFFFFFFFFFFFFFFFFFFFFFFFF AND EQ PUSH2 0x788 JUMPI PUSH1 0x40 MLOAD PUSH32 0x8C379A000000000000000000000000000000000000000000000000000000000 DUP2 MSTORE PUSH1 0x4 ADD PUSH2 0x77F SWAP1 PUSH2 0xEF8 JUMP JUMPDEST PUSH1 0x40 MLOAD DUP1 SWAP2 SUB SWAP1 REVERT JUMPDEST PUSH2 0x793 DUP3 PUSH0 DUP4 PUSH2 0xAD3 JUMP JUMPDEST DUP1 PUSH1 0x2 PUSH0 DUP5 PUSH20 0xFFFFFFFFFFFFFFFFFFFFFFFFFFFFFFFFFFFFFFFF AND PUSH20 0xFFFFFFFFFFFFFFFFFFFFFFFFFFFFFFFFFFFFFFFF AND DUP2 MSTORE PUSH1 0x20 ADD SWAP1 DUP2 MSTORE PUSH1 0x20 ADD PUSH0 KECCAK256 PUSH0 DUP3 DUP3 SLOAD PUSH2 0x7DF SWAP2 SWAP1 PUSH2 0xE48 JUMP JUMPDEST SWAP3 POP POP DUP2 SWAP1 SSTORE POP DUP1 PUSH0 DUP1 DUP3 DUP3 SLOAD PUSH2 0x7F6 SWAP2 SWAP1 PUSH2 0xE48 JUMP JUMPDEST SWAP3 POP POP DUP2 SWAP1 SSTORE POP POP POP JUMP JUMPDEST CALLER DUP2 DUP1 PUSH2 0x80D DUP4 PUSH2 0x4B6 JUMP JUMPDEST LT ISZERO PUSH2 0x84E JUMPI PUSH1 0x40 MLOAD PUSH32 0x8C379A000000000000000000000000000000000000000000000000000000000 DUP2 MSTORE PUSH1 0x4 ADD PUSH2 0x845 SWAP1 PUSH2 0xDFD JUMP JUMPDEST PUSH1 0x40 MLOAD DUP1 SWAP2 SUB SWAP1 REVERT JUMPDEST PUSH2 0x859 CALLER DUP6 DUP6 PUSH2 0xAD3 JUMP JUMPDEST DUP3 PUSH1 0x2 PUSH0 CALLER PUSH20 0xFFFFFFFFFFFFFFFFFFFFFFFFFFFFFFFFFFFFFFFF AND PUSH20 0xFFFFFFFFFFFFFFFFFFFFFFFFFFFFFFFFFFFFFFFF AND DUP2 MSTORE PUSH1 0x20 ADD SWAP1 DUP2 MSTORE PUSH1 0x20 ADD PUSH0 KECCAK256 PUSH0 DUP3 DUP3 SLOAD PUSH2 0x8A5 SWAP2 SWAP1 PUSH2 0xE48 JUMP JUMPDEST SWAP3 POP POP DUP2 SWAP1 SSTORE POP DUP3 PUSH1 0x2 PUSH0 DUP7 PUSH20 0xFFFFFFFFFFFFFFFFFFFFFFFFFFFFFFFFFFFFFFFF AND PUSH20 0xFFFFFFFFFFFFFFFFFFFFFFFFFFFFFFFFFFFFFFFF AND DUP2 MSTORE PUSH1 0x20 ADD SWAP1 DUP2 MSTORE PUSH1 0x20 ADD PUSH0 KECCAK256 PUSH0 DUP3 DUP3 SLOAD PUSH2 0x8F8 SWAP2 SWAP1 PUSH2 0xE7B JUMP JUMPDEST SWAP3 POP POP DUP2 SWAP1 SSTORE POP DUP4 PUSH20 0xFFFFFFFFFFFFFFFFFFFFFFFFFFFFFFFFFFFFFFFF AND CALLER PUSH20 0xFFFFFFFFFFFFFFFFFFFFFFFFFFFFFFFFFFFFFFFF AND PUSH32 0xDDF252AD1BE2C89B69C2B068FC378DAA952BA7F163C4A11628F55A4DF523B3EF DUP6 PUSH1 0x40 MLOAD PUSH2 0x95C SWAP2 SWAP1 PUSH2 0xC46 JUMP JUMPDEST PUSH1 0x40 MLOAD DUP1 SWAP2 SUB SWAP1 LOG3 POP POP POP POP JUMP JUMPDEST PUSH0 PUSH1 0x3 PUSH0 DUP5 PUSH20 0xFFFFFFFFFFFFFFFFFFFFFFFFFFFFFFFFFFFFFFFF AND PUSH20 0xFFFFFFFFFFFFFFFFFFFFFFFFFFFFFFFFFFFFFFFF AND DUP2 MSTORE PUSH1 0x20 ADD SWAP1 DUP2 MSTORE PUSH1 0x20 ADD PUSH0 KECCAK256 PUSH0 DUP4 PUSH20 0xFFFFFFFFFFFFFFFFFFFFFFFFFFFFFFFFFFFFFFFF AND PUSH20 0xFFFFFFFFFFFFFFFFFFFFFFFFFFFFFFFFFFFFFFFF AND DUP2 MSTORE PUSH1 0x20 ADD SWAP1 DUP2 MSTORE PUSH1 0x20 ADD PUSH0 KECCAK256 SLOAD SWAP1 POP SWAP3 SWAP2 POP POP JUMP JUMPDEST DUP1 PUSH1 0x3 PUSH0 DUP6 PUSH20 0xFFFFFFFFFFFFFFFFFFFFFFFFFFFFFFFFFFFFFFFF AND PUSH20 0xFFFFFFFFFFFFFFFFFFFFFFFFFFFFFFFFFFFFFFFF AND DUP2 MSTORE PUSH1 0x20 ADD SWAP1 DUP2 MSTORE PUSH1 0x20 ADD PUSH0 KECCAK256 PUSH0 DUP5 PUSH20 0xFFFFFFFFFFFFFFFFFFFFFFFFFFFFFFFFFFFFFFFF AND PUSH20 0xFFFFFFFFFFFFFFFFFFFFFFFFFFFFFFFFFFFFFFFF AND DUP2 MSTORE PUSH1 0x20 ADD SWAP1 DUP2 MSTORE PUSH1 0x20 ADD PUSH0 KECCAK256 DUP2 SWAP1 SSTORE POP DUP2 PUSH20 0xFFFFFFFFFFFFFFFFFFFFFFFFFFFFFFFFFFFFFFFF AND DUP4 PUSH20 0xFFFFFFFFFFFFFFFFFFFFFFFFFFFFFFFFFFFFFFFF AND PUSH32 0x6E11FB1B7F119E3F2FA29896EF5FDF8B8A2D0D4DF6FE90BA8668E7D8B2FFA25E DUP4 PUSH1 0x40 MLOAD PUSH2 0xAC6 SWAP2 SWAP1 PUSH2 0xC46 JUMP JUMPDEST PUSH1 0x40 MLOAD DUP1 SWAP2 SUB SWAP1 LOG3 POP POP POP JUMP JUMPDEST POP POP POP JUMP JUMPDEST PUSH0 DUP2 MLOAD SWAP1 POP SWAP2 SWAP1 POP JUMP JUMPDEST PUSH0 DUP3 DUP3 MSTORE PUSH1 0x20 DUP3 ADD SWAP1 POP SWAP3 SWAP2 POP POP JUMP JUMPDEST DUP3 DUP2 DUP4 MCOPY PUSH0 DUP4 DUP4 ADD MSTORE POP POP POP JUMP JUMPDEST PUSH0 PUSH1 0x1F NOT PUSH1 0x1F DUP4 ADD AND SWAP1 POP SWAP2 SWAP1 POP JUMP JUMPDEST PUSH0 PUSH2 0xB1A DUP3 PUSH2 0xAD8 JUMP JUMPDEST PUSH2 0xB24 DUP2 DUP6 PUSH2 0xAE2 JUMP JUMPDEST SWAP4 POP PUSH2 0xB34 DUP2 DUP6 PUSH1 0x20 DUP7 ADD PUSH2 0xAF2 JUMP JUMPDEST PUSH2 0xB3D DUP2 PUSH2 0xB00 JUMP JUMPDEST DUP5 ADD SWAP2 POP POP SWAP3 SWAP2 POP POP JUMP JUMPDEST PUSH0 PUSH1 0x20 DUP3 ADD SWAP1 POP DUP2 DUP2 SUB PUSH0 DUP4 ADD MSTORE PUSH2 0xB60 DUP2 DUP5 PUSH2 0xB10 JUMP JUMPDEST SWAP1 POP SWAP3 SWAP2 POP POP JUMP JUMPDEST PUSH0 DUP1 REVERT JUMPDEST PUSH0 PUSH20 0xFFFFFFFFFFFFFFFFFFFFFFFFFFFFFFFFFFFFFFFF DUP3 AND SWAP1 POP SWAP2 SWAP1 POP JUMP JUMPDEST PUSH0 PUSH2 0xB95 DUP3 PUSH2 0xB6C JUMP JUMPDEST SWAP1 POP SWAP2 SWAP1 POP JUMP JUMPDEST PUSH2 0xBA5 DUP2 PUSH2 0xB8B JUMP JUMPDEST DUP2 EQ PUSH2 0xBAF JUMPI PUSH0 DUP1 REVERT JUMPDEST POP JUMP JUMPDEST PUSH0 DUP2 CALLDATALOAD SWAP1 POP PUSH2 0xBC0 DUP2 PUSH2 0xB9C JUMP JUMPDEST SWAP3 SWAP2 POP POP JUMP JUMPDEST PUSH0 DUP2 SWAP1 POP SWAP2 SWAP1 POP JUMP JUMPDEST PUSH2 0xBD8 DUP2 PUSH2 0xBC6 JUMP JUMPDEST DUP2 EQ PUSH2 0xBE2 JUMPI PUSH0 DUP1 REVERT JUMPDEST POP JUMP JUMPDEST PUSH0 DUP2 CALLDATALOAD SWAP1 POP PUSH2 0xBF3 DUP2 PUSH2 0xBCF JUMP JUMPDEST SWAP3 SWAP2 POP POP JUMP JUMPDEST PUSH0 DUP1 PUSH1 0x40 DUP4 DUP6 SUB SLT ISZERO PUSH2 0xC0F JUMPI PUSH2 0xC0E PUSH2 0xB68 JUMP JUMPDEST JUMPDEST PUSH0 PUSH2 0xC1C DUP6 DUP3 DUP7 ADD PUSH2 0xBB2 JUMP JUMPDEST SWAP3 POP POP PUSH1 0x20 PUSH2 0xC2D DUP6 DUP3 DUP7 ADD PUSH2 0xBE5 JUMP JUMPDEST SWAP2 POP POP SWAP3 POP SWAP3 SWAP1 POP JUMP JUMPDEST PUSH2 0xC40 DUP2 PUSH2 0xBC6 JUMP JUMPDEST DUP3 MSTORE POP POP JUMP JUMPDEST PUSH0 PUSH1 0x20 DUP3 ADD SWAP1 POP PUSH2 0xC59 PUSH0 DUP4 ADD DUP5 PUSH2 0xC37 JUMP JUMPDEST SWAP3 SWAP2 POP POP JUMP JUMPDEST PUSH0 DUP1 PUSH0 PUSH1 0x60 DUP5 DUP7 SUB SLT ISZERO PUSH2 0xC76 JUMPI PUSH2 0xC75 PUSH2 0xB68 JUMP JUMPDEST JUMPDEST PUSH0 PUSH2 0xC83 DUP7 DUP3 DUP8 ADD PUSH2 0xBB2 JUMP JUMPDEST SWAP4 POP POP PUSH1 0x20 PUSH2 0xC94 DUP7 DUP3 DUP8 ADD PUSH2 0xBB2 JUMP JUMPDEST SWAP3 POP POP PUSH1 0x40 PUSH2 0xCA5 DUP7 DUP3 DUP8 ADD PUSH2 0xBE5 JUMP JUMPDEST SWAP2 POP POP SWAP3 POP SWAP3 POP SWAP3 JUMP JUMPDEST PUSH0 PUSH1 0x20 DUP3 DUP5 SUB SLT ISZERO PUSH2 0xCC4 JUMPI PUSH2 0xCC3 PUSH2 0xB68 JUMP JUMPDEST JUMPDEST PUSH0 PUSH2 0xCD1 DUP5 DUP3 DUP6 ADD PUSH2 0xBB2 JUMP JUMPDEST SWAP2 POP POP SWAP3 SWAP2 POP POP JUMP JUMPDEST PUSH0 DUP1 PUSH1 0x40 DUP4 DUP6 SUB SLT ISZERO PUSH2 0xCF0 JUMPI PUSH2 0xCEF PUSH2 0xB68 JUMP JUMPDEST JUMPDEST PUSH0 PUSH2 0xCFD DUP6 DUP3 DUP7 ADD PUSH2 0xBE5 JUMP JUMPDEST SWAP3 POP POP PUSH1 0x20 PUSH2 0xD0E DUP6 DUP3 DUP7 ADD PUSH2 0xBB2 JUMP JUMPDEST SWAP2 POP POP SWAP3 POP SWAP3 SWAP1 POP JUMP JUMPDEST PUSH0 DUP1 PUSH1 0x40 DUP4 DUP6 SUB SLT ISZERO PUSH2 0xD2E JUMPI PUSH2 0xD2D PUSH2 0xB68 JUMP JUMPDEST JUMPDEST PUSH0 PUSH2 0xD3B DUP6 DUP3 DUP7 ADD PUSH2 0xBB2 JUMP JUMPDEST SWAP3 POP POP PUSH1 0x20 PUSH2 0xD4C DUP6 DUP3 DUP7 ADD PUSH2 0xBB2 JUMP JUMPDEST SWAP2 POP POP SWAP3 POP SWAP3 SWAP1 POP JUMP JUMPDEST PUSH32 0x4E487B7100000000000000000000000000000000000000000000000000000000 PUSH0 MSTORE PUSH1 0x22 PUSH1 0x4 MSTORE PUSH1 0x24 PUSH0 REVERT JUMPDEST PUSH0 PUSH1 0x2 DUP3 DIV SWAP1 POP PUSH1 0x1 DUP3 AND DUP1 PUSH2 0xD9A JUMPI PUSH1 0x7F DUP3 AND SWAP2 POP JUMPDEST PUSH1 0x20 DUP3 LT DUP2 SUB PUSH2 0xDAD JUMPI PUSH2 0xDAC PUSH2 0xD56 JUMP JUMPDEST JUMPDEST POP SWAP2 SWAP1 POP JUMP JUMPDEST PUSH32 0x6E6F7420656E6F75676820746F6B656E73210000000000000000000000000000 PUSH0 DUP3 ADD MSTORE POP JUMP JUMPDEST PUSH0 PUSH2 0xDE7 PUSH1 0x12 DUP4 PUSH2 0xAE2 JUMP JUMPDEST SWAP2 POP PUSH2 0xDF2 DUP3 PUSH2 0xDB3 JUMP JUMPDEST PUSH1 0x20 DUP3 ADD SWAP1 POP SWAP2 SWAP1 POP JUMP JUMPDEST PUSH0 PUSH1 0x20 DUP3 ADD SWAP1 POP DUP2 DUP2 SUB PUSH0 DUP4 ADD MSTORE PUSH2 0xE14 DUP2 PUSH2 0xDDB JUMP JUMPDEST SWAP1 POP SWAP2 SWAP1 POP JUMP JUMPDEST PUSH32 0x4E487B7100000000000000000000000000000000000000000000000000000000 PUSH0 MSTORE PUSH1 0x11 PUSH1 0x4 MSTORE PUSH1 0x24 PUSH0 REVERT JUMPDEST PUSH0 PUSH2 0xE52 DUP3 PUSH2 0xBC6 JUMP JUMPDEST SWAP2 POP PUSH2 0xE5D DUP4 PUSH2 0xBC6 JUMP JUMPDEST SWAP3 POP DUP3 DUP3 SUB SWAP1 POP DUP2 DUP2 GT ISZERO PUSH2 0xE75 JUMPI PUSH2 0xE74 PUSH2 0xE1B JUMP JUMPDEST JUMPDEST SWAP3 SWAP2 POP POP JUMP JUMPDEST PUSH0 PUSH2 0xE85 DUP3 PUSH2 0xBC6 JUMP JUMPDEST SWAP2 POP PUSH2 0xE90 DUP4 PUSH2 0xBC6 JUMP JUMPDEST SWAP3 POP DUP3 DUP3 ADD SWAP1 POP DUP1 DUP3 GT ISZERO PUSH2 0xEA8 JUMPI PUSH2 0xEA7 PUSH2 0xE1B JUMP JUMPDEST JUMPDEST SWAP3 SWAP2 POP POP JUMP JUMPDEST PUSH32 0x6E6F7420616E206F776E65722100000000000000000000000000000000000000 PUSH0 DUP3 ADD MSTORE POP JUMP JUMPDEST PUSH0 PUSH2 0xEE2 PUSH1 0xD DUP4 PUSH2 0xAE2 JUMP JUMPDEST SWAP2 POP PUSH2 0xEED DUP3 PUSH2 0xEAE JUMP JUMPDEST PUSH1 0x20 DUP3 ADD SWAP1 POP SWAP2 SWAP1 POP JUMP JUMPDEST PUSH0 PUSH1 0x20 DUP3 ADD SWAP1 POP DUP2 DUP2 SUB PUSH0 DUP4 ADD MSTORE PUSH2 0xF0F DUP2 PUSH2 0xED6 JUMP JUMPDEST SWAP1 POP SWAP2 SWAP1 POP JUMP INVALID LOG2 PUSH5 0x6970667358 0x22 SLT KECCAK256 0xCD PUSH17 0x206746B47A3ABD11B35722D78CAE2C79F6 PUSH18 0xBBB8B825A527BF3AAD6951CD64736F6C6343 STOP ADDMOD NOT STOP CALLER "
				},
				"gasEstimates": {
					"creation": {
						"codeDepositCost": "783200",
						"executionCost": "infinite",
						"totalCost": "infinite"
					},
					"external": {
						"allowance(address,address)": "infinite",
						"approve(address,uint256)": "infinite",
						"balanceOf(address)": "2829",
						"burn(address,uint256)": "infinite",
						"decimals()": "421",
						"mint(uint256,address)": "infinite",
						"name()": "infinite",
						"symbol()": "infinite",
						"totalSupply()": "2477",
						"transfer(address,uint256)": "infinite",
						"transferFrom(address,address,uint256)": "infinite"
					},
					"internal": {
						"_approve(address,address,uint256)": "infinite",
						"_beforeTokenTransfer(address,address,uint256)": "15"
					}
				},
				"methodIdentifiers": {
					"allowance(address,address)": "dd62ed3e",
					"approve(address,uint256)": "095ea7b3",
					"balanceOf(address)": "70a08231",
					"burn(address,uint256)": "9dc29fac",
					"decimals()": "313ce567",
					"mint(uint256,address)": "94bf804d",
					"name()": "06fdde03",
					"symbol()": "95d89b41",
					"totalSupply()": "18160ddd",
					"transfer(address,uint256)": "a9059cbb",
					"transferFrom(address,address,uint256)": "23b872dd"
				}
			},
			"storageLayout": {
				"storage": [
					{
						"astId": 6,
						"contract": "Erc.sol:ERC20",
						"label": "totalTokens",
						"offset": 0,
						"slot": "0",
						"type": "t_uint256"
					},
					{
						"astId": 8,
						"contract": "Erc.sol:ERC20",
						"label": "owner",
						"offset": 0,
						"slot": "1",
						"type": "t_address"
					},
					{
						"astId": 12,
						"contract": "Erc.sol:ERC20",
						"label": "balances",
						"offset": 0,
						"slot": "2",
						"type": "t_mapping(t_address,t_uint256)"
					},
					{
						"astId": 18,
						"contract": "Erc.sol:ERC20",
						"label": "allowances",
						"offset": 0,
						"slot": "3",
						"type": "t_mapping(t_address,t_mapping(t_address,t_uint256))"
					},
					{
						"astId": 20,
						"contract": "Erc.sol:ERC20",
						"label": "_name",
						"offset": 0,
						"slot": "4",
						"type": "t_string_storage"
					},
					{
						"astId": 22,
						"contract": "Erc.sol:ERC20",
						"label": "_symbol",
						"offset": 0,
						"slot": "5",
						"type": "t_string_storage"
					}
				],
				"types": {
					"t_address": {
						"encoding": "inplace",
						"label": "address",
						"numberOfBytes": "20"
					},
					"t_mapping(t_address,t_mapping(t_address,t_uint256))": {
						"encoding": "mapping",
						"key": "t_address",
						"label": "mapping(address => mapping(address => uint256))",
						"numberOfBytes": "32",
						"value": "t_mapping(t_address,t_uint256)"
					},
					"t_mapping(t_address,t_uint256)": {
						"encoding": "mapping",
						"key": "t_address",
						"label": "mapping(address => uint256)",
						"numberOfBytes": "32",
						"value": "t_uint256"
					},
					"t_string_storage": {
						"encoding": "bytes",
						"label": "string",
						"numberOfBytes": "32"
					},
					"t_uint256": {
						"encoding": "inplace",
						"label": "uint256",
						"numberOfBytes": "32"
					}
				}
			},
			"userdoc": {
				"kind": "user",
				"methods": {},
				"version": 1
			}
		}
	}
}